:100000000C9464000C948C000C948C000C948C0068
:100010000C948C000C948C000C948C000C948C0030
:100020000C948C000C948C000C948C000C948C0020
:100030000C948C000C948C000C948C000C948C0010
:100040000C94ED070C948C000C948C000C948C0098
:100050000C948C000C948C000C948C000C948C00F0
:100060000C94C3040C948C000000000024002700B2
:100070002A0000000000250028002B0000000000DE
:1000800023002600290004040404040404040202DA
:100090000202020203030303030301020408102007
:1000A0004080010204081020010204081020000012
:1000B0000007000201000003040600000000000029
:1000C0000000BA031B07200711241FBECFEFD8E0A2
:1000D000DEBFCDBF11E0A0E0B1E0E8E8F4E102C08E
:1000E00005900D92A834B107D9F711E0A8E4B1E06A
:1000F00001C01D92AC38B107E1F710E0C8ECD0E0C8
:1001000004C02297FE010E943E0AC23CD107C9F7F3
:100110000E94E6070C94420A0C9400000F931F9370
:10012000CF93DF93689F8001699F100D789F100D1A
:100130001124C8010E94AA00EC01009729F060E098
:1001400070E0A8010E94AC01CE01DF91CF911F9118
:100150000F910895CF93DF93BC018230910510F485
:1001600062E070E0A0918A01B0918B01ED01E0E0C6
:10017000F0E040E050E021C0888199818617970720
:1001800069F48A819B81309719F09383828304C03C
:1001900090938B0180938A01FE0134C06817790720
:1001A00038F44115510519F08417950708F4AC018E
:1001B000FE018A819B819C01E9012097E9F64115A6
:1001C0005105A9F1CA01861B970B049708F4BA01DF
:1001D000E0E0F0E02AC08D919C911197841795077B
:1001E000F9F46417750781F412968D919C91139719
:1001F000309719F09383828304C090938B0180938E
:100200008A01FD0132964CC0CA01861B970BFD0185
:10021000E80FF91F6193719302978D939C9340C0EF
:10022000FD01828193819C01D9011097A1F68091F3
:10023000880190918901892B41F48091310190913D
:10024000320190938901809388014091330150914C
:1002500034014115510541F44DB75EB780912F012E
:1002600090913001481B590B2091880130918901F0
:10027000CA01821B930B8617970780F0AB014E5F74
:100280005F4F8417950750F0420F531F5093890119
:1002900040938801F9016193719302C0E0E0F0E0BE
:1002A000CF01DF91CF910895CF93DF93009709F4A9
:1002B00050C0EC0122971B821A82A0918A01B09152
:1002C0008B01109709F140E050E0AC17BD0708F131
:1002D000BB83AA83FE0121913191E20FF31FAE1778
:1002E000BF0779F48D919C911197280F391F2E5FCC
:1002F0003F4F3983288312968D919C9113979B834E
:100300008A834115510571F4D0938B01C0938A0102
:1003100020C012968D919C911397AD01009711F01A
:10032000DC01D3CFFA01D383C28321913191E20F53
:10033000F31FCE17DF0769F488819981280F391FD1
:100340002E5F3F4FFA01318320838A819B81938303
:100350008283DF91CF910895DC0101C06D934150FC
:100360005040E0F708950F931F938C01FC018481A6
:1003700060E00E94C70881E090E00E945F08F801F9
:10038000848161E00E94C70881E090E00E945F08DC
:10039000F801848160E00E94C70884E690E00E9432
:1003A0005F081F910F910895CF92DF92EF92FF9215
:1003B0000F931F93CF93DF93D82EC92E282F392F59
:1003C000C9018C01C0E0D0E0E62EFF24F801858150
:1003D00061E00E94A708B7010C2E02C075956795D1
:1003E0000A94E2F76170F80185810E94C70821969E
:1003F0000F5F1F4FC830D10549F78D2D9C2D0E94EE
:10040000B301DF91CF911F910F91FF90EF90DF909B
:10041000CF900895CF92DF92EF92FF920F931F93A8
:10042000CF93DF93D82EC92E282F392FC9018C01E5
:10043000C0E0D0E0E62EFF24F801858161E00E9453
:10044000A708B7010C2E02C0759567950A94E2F7CC
:100450006170F80185810E94C70821960F5F1F4FC8
:10046000C430D10549F78D2D9C2D0E94B301DF9139
:10047000CF911F910F91FF90EF90DF90CF90089553
:100480001F93CF93DF93EC01162F8A81642F0E9474
:10049000C7088B8160E00E94C7088D8584FF05C076
:1004A000CE01612F0E94D4010EC0612F70E084E064
:1004B000759567958A95E1F7CE010E940A02CE01F3
:1004C000612F0E940A02DF91CF911F91089541E0B0
:1004D0000E944002089540E00E9440020895FC01FD
:1004E0006685862F846086876C60CF010E946B02D0
:1004F0000895DF93CF93CDB7DEB728970FB6F89462
:10050000DEBF0FBECDBF9C01FE013196AFE3B1E06F
:1005100088E00D9001928150E1F7F90181898417FB
:1005200010F4482F4150E42FF0E0EE0FFF1FEC0FC6
:10053000FD1F8181680F6068C9010E946B022896C7
:100540000FB6F894DEBF0FBECDBFCF91DF910895F7
:1005500061E00E946B0280ED97E00E945F080895C1
:10056000CF93DF93EC01423018F08D8588608D8742
:10057000498B1A8A222329F0413019F48D85846031
:100580008D8780E593EC0E945F088A8160E00E947D
:10059000C7088C8160E00E94C7088B8160E00E94E0
:1005A000C7086D8564FD1DC0CE0163E00E940A028C
:1005B00084E991E10E945F08CE0163E00E940A0293
:1005C00084E991E10E945F08CE0163E00E940A0283
:1005D00086E990E00E945F08CE0162E00E940A0274
:1005E00016C06062CE010E946B0284E991E10E9414
:1005F0005F086D856062CE010E946B0286E990E023
:100600000E945F086D856062CE010E946B026D855D
:100610006062CE010E946B0284E08E87CE010E9450
:100620006F02CE010E94A80282E08F87CE0166E0B1
:100630000E946B02DF91CF9108956F927F928F920B
:10064000AF92CF92EF920F931F93DF93CF93CDB7DB
:10065000DEB73C01162F842FF301428323830483EA
:10066000E582C682A78280869D8591879E85928736
:100670009F8593879889948761E00E94A708F3017A
:10068000838161E00E94A708F301848161E00E94F8
:10069000A708112319F0F301158603C080E1F301C7
:1006A0008587C30160E141E020E00E94B002CF9164
:1006B000DF911F910F91EF90CF90AF908F907F902F
:1006C0006F9008958F92AF92CF92DF92EF92FF9248
:1006D0000F931F93CF93DF93DC01362F542F722F8C
:1006E000102FFE2CDC2C8A2C89E391E011969C9330
:1006F0008E9300D000D0EDB7FEB73196CDB7DEB700
:100700001982118212821382CD0161E0432F252FBD
:10071000072FE12ECF2CAD2C0E941D030F900F90C0
:100720000F900F90DF91CF911F910F91FF90EF905D
:10073000DF90CF90AF908F90089581E0809351012A
:1007400060934C0110924F011092500108959091C6
:100750004A0180914B01981710F080E00895E091D4
:100760004801F0914901E90FF11D80819F5F90934D
:100770004A0108950895DF93CF930F92CDB7DEB766
:100780006983809151018823A9F0809150018032C2
:10079000B0F480914F01E0914D01F0914E01E80FCE
:1007A000F11D608380914F018F5F80934F01809393
:1007B000500105C0CE01019661E00E94A6040F9091
:1007C000CF91DF9108950E94BB03089560914D0180
:1007D00070914E0180914C014091500121E00E94A6
:1007E000610410924F01109250011092510108952E
:1007F000862F6091480170914901413208F040E232
:100800000E94290410924A0180934B0108950E948E
:10081000F803089580E290E061E070E00E948E00AD
:10082000809348019093490110924A0110924B0124
:1008300080E290E061E070E00E948E0080934D01C4
:1008400090934E0110924F01109250010E94450664
:100850000895982F413210F040E031C0809153014B
:100860008823E1F781E0809353018FEF8093640147
:1008700010925B01415040935C014F5F990F916072
:100880009093540185EE8093BC0080915301813098
:10089000E1F380915B01841710F440915B01A0911A
:1008A0005901B0915A0120E030E007C0FB01E20F8E
:1008B000F31F8D9180832F5F3F4F2417B8F3842F50
:1008C00008951F93582F122F413210F081E03CC041
:1008D000809153018823E1F782E0809353018FEFE9
:1008E0008093640110925B0140935C01A0915901D7
:1008F000B0915A01FB0102C081918D938E2F861B0E
:100900008417D0F3852F90E0880F991F80935401AE
:1009100085EE8093BC00112321F080915301823039
:10092000E1F3809164018F3F11F480E00DC080916C
:100930006401803211F482E007C080916401803349
:1009400011F084E001C083E01F910895482F6132C7
:1009500010F081E0089580915301843011F082E01D
:10096000089560936001A0915D01B0915E01842FB4
:100970009C01F90102C081918D938E2F841B8617F3
:10098000D0F380E008951F920F920FB60F921124BA
:100990002F933F934F935F936F937F938F939F9387
:1009A000AF93BF93EF93FF938091B90090E0887F5E
:1009B00090708036910509F4E2C081369105CCF53E
:1009C0008832910509F47BC089329105B4F48031F5
:1009D000910509F46FC0813191053CF4009709F449
:1009E00038C1089709F040C165C08831910509F404
:1009F00066C0809709F038C17FC08034910509F442
:100A0000A3C08134910544F48033910509F47FC07B
:100A1000C89709F029C186C08035910509F486C0C0
:100A20008835910509F495C08834910509F01CC1F9
:100A30009EC08839910509F404C189399105ECF407
:100A40008837910509F49BC0893791054CF48836A5
:100A5000910509F494C08037910509F005C18FC054
:100A60008838910509F4EDC08039910509F48DC0ED
:100A70008038910509F0F8C088C0803B910509F4E1
:100A8000B2C0813B91054CF4803A910509F491C0C4
:100A9000883A910509F0E8C0A6C0803C910509F4A8
:100AA000D4C0883C910509F4D0C0883B910509F079
:100AB000DBC0B1C0809154018093BB00C0C0909155
:100AC0005B0180915C01981778F490915B01E09153
:100AD0005901F0915A01E90FF11D80818093BB000B
:100AE0009F5F90935B01ABC085ED8093BC008091CC
:100AF000BC0084FDFCCFB6C080E28093640185ED2C
:100B00008093BC008091BC0084FDFCCFABC080E32F
:100B10008093640185ED8093BC008091BC0084FDCE
:100B2000FCCFA0C088E3809364018FC080915B01FB
:100B30009091BB00E0915901F0915A01E80FF11D2D
:100B400090838F5F80935B0190915B0180915C014A
:100B500074C080915B019091BB00E0915901F091CC
:100B60005A01E80FF11D90838F5F80935B0185ED43
:100B70008093BC008091BC0084FDFCCF73C083E0F7
:100B800080935301109263015AC0809163018032B7
:100B900008F057C0809163019091BB00E091610122
:100BA000F0916201E80FF11D90838F5F80936301E4
:100BB00046C080916301803248F480916301E091E6
:100BC0006101F0916201E80FF11D108260916301F3
:100BD000E0915701F091580180916101909162017B
:100BE00070E0099532C084E08093530110925F0158
:100BF00010926001E0915501F091560109958091A4
:100C00006001882341F481E080936001E0915D01FF
:100C1000F0915E01108290915F01E0915D01F09191
:100C20005E01E90FF11D80818093BB009F5F90936F
:100C30005F0190915F0180916001981710F485EC3D
:100C400001C085E88093BC000FC085EC8093BC0098
:100C500009C01092640185ED8093BC008091BC00B6
:100C600084FDFCCF10925301FF91EF91BF91AF91A2
:100C70009F918F917F916F915F914F913F912F91B4
:100C80000F900FBE0F901F90189510925301449A29
:100C9000459AE9EBF0E080818E7F808380818D7FB3
:100CA000808388E48093B80085E48093BC0080E270
:100CB00090E061E070E00E948E0080935901909373
:100CC0005A0180E290E061E070E00E948E00809323
:100CD0005D0190935E0180E290E061E070E00E942F
:100CE0008E00809361019093620108950F931F938A
:100CF000CF93DF938C0182E591E068E670E00E947B
:100D00009D0382E591E060E070E00E94E30382E5EC
:100D100091E00E94E60382E591E068E670E047E03A
:100D200050E00E940704C0E0D0E082E591E00E941C
:100D3000A703F801EC0FFD1F80832196C730D10572
:100D4000A1F7DF91CF911F910F9108950F931F93FA
:100D5000CF93DF938C01EB01442311F00E947606C0
:100D6000C330D105B9F1C430D1054CF4C130D1053F
:100D7000A1F0C230D1055CF5CD2B61F008C0C530C3
:100D8000D105E1F1C530D10564F12697F1F14FEFBE
:100D90005FEF4BC0F801208102C0F801218130E0F3
:100DA000C90180779070E4E095958795EA95E1F721
:100DB000AC0173E0440F551F7A95E1F7880F991F36
:100DC000480F591F2F703070420F531F2EC0F8016B
:100DD000228116C0F8018381482F50E0477050707F
:100DE00024C0F8018481282F22952F709AE0299F32
:100DF000A00111248F70480F511D17C0F8012581E3
:100E000030E0C90180739070CECFF8018681482F01
:100E100050E04F7050704053584F82958F702AE0C9
:100E2000829FC0011124480F591FCA01DF91CF9141
:100E30001F910F91089582E591E00E940A040895A0
:100E4000AF92CF92EF920F938CE691E066E044E18F
:100E500027E008E079E0E72E5AE0C52E31E1A32E25
:100E60000E9462030F91EF90CF90AF900895CF92C0
:100E7000DF92EF92FF920F931F930CE611E0C801EF
:100E80000E94A802C80160E071E00E944B09C801FD
:100E900060E041E00E947902C80163E171E00E94D4
:100EA0004B09C80160E043E00E947902A5E6EA2E02
:100EB000A1E0FA2EC70162E070E041E00E94A606C0
:100EC000BC01C8010E94120AF4E2CF2EF1E0DF2E2D
:100ED000C801B6010E944B09C70161E070E040E023
:100EE0000E94A606BC01C8010E94120AC801B601F0
:100EF0000E944B09C70160E070E040E00E94A60636
:100F0000BC01C8010E94120AC80166E271E00E9499
:100F10004B09C70164E070E040E00E94A606BC01F6
:100F2000C8010E94120AEDE2CE2EE1E0DE2EC801D9
:100F3000B6010E944B09C70165E070E040E00E94E5
:100F4000A606BC01C8010E94120AC801B6010E948F
:100F50004B09C70166E070E040E00E94A606BC01B4
:100F6000C8010E94120A8BE061E00E94C7088DE070
:100F700060E00E94C70864E670E080E090E00E94B4
:100F800035088BE060E00E94C7088DE061E00E94B8
:100F9000C70864E670E080E090E00E9435081F9189
:100FA0000F91FF90EF90DF90CF9008958CE691E045
:100FB00064E144E020E00E94B0028BE061E00E9426
:100FC000A7088DE061E00E94A70808950E946D08BF
:100FD0000E94D6070E943707FDCF1F920F920FB6CF
:100FE0000F9211242F933F938F939F93AF93BF93AF
:100FF0008091830190918401A0918501B091860137
:10100000309187010196A11DB11D232F2D5F2D3732
:1010100020F02D570196A11DB11D209387018093CB
:10102000830190938401A0938501B0938601809100
:101030007F0190918001A0918101B0918201019680
:10104000A11DB11D80937F0190938001A093810128
:10105000B0938201BF91AF919F918F913F912F915A
:101060000F900FBE0F901F901895EF92FF920F9365
:101070001F937B018C018FB7F894409183015091AD
:10108000840160918501709186018FBF2FB7F8941C
:101090008091830190918401A0918501B091860196
:1010A0002FBF841B950BA60BB70BE816F9060A0792
:1010B0001B0760F71F910F91FF90EF900895019724
:1010C00059F0FC01EE0FFF1FEE0FFF1F32978FB795
:1010D000F8943197F1F78FBF0895789484B58260C2
:1010E00084BD84B5816084BD85B5826085BD85B5CC
:1010F000816085BDEEE6F0E0808181608083E1E87B
:10110000F0E0808182608083808181608083E0E87C
:10111000F0E0808181608083E1EBF0E08081846099
:101120008083E0EBF0E0808181608083EAE7F0E09B
:1011300080818460808380818260808380818160FF
:1011400080838081806880831092C1000895282F59
:1011500030E0C90186569F4FFC0194912A573F4FBA
:10116000F9018491882391F0E82FF0E0EE0FFF1F42
:10117000E859FF4FA591B491662329F48C9190957D
:1011800089238C9308958C91892B8C930895482FF3
:1011900050E0CA0182559F4FFC012491CA01865636
:1011A0009F4FFC0194914A575F4FFA0134913323CA
:1011B000D1F1222331F1233021F4809180008F7707
:1011C00005C0243031F4809180008F7D80938000B1
:1011D00018C0213019F484B58F7704C0223021F46F
:1011E00084B58F7D84BD0DC0263021F48091B00080
:1011F0008F7705C0273029F48091B0008F7D8093D0
:10120000B000E32FF0E0EE0FFF1FEE58FF4FA59167
:10121000B491662329F48C91909589238C93089539
:101220008C91892B8C9308950F931F93CF93DF9309
:101230008C01EB0109C02196D801ED91FC91019040
:10124000F081E02DC801099568816623A1F7DF913F
:10125000CF911F910F910895EF92FF920F931F93DB
:10126000CF93DF938C017B01EA010CC0D7016D9114
:101270007D01D801ED91FC910190F081E02DC80134
:1012800009952197209791F7DF91CF911F910F91A9
:10129000FF90EF900895DC01ED91FC910280F381C5
:1012A000E02D099508952F923F924F925F926F9291
:1012B0007F928F929F92AF92BF92CF92DF92EF92E6
:1012C000FF920F931F93DF93CF93CDB7DEB7A09715
:1012D0000FB6F894DEBF0FBECDBF1C016A017B01C3
:1012E000411551056105710549F4DC01ED91FC9151
:1012F0000190F081E02D60E3099554C08824992481
:101300005401422E55246624772401E010E00C0F8E
:101310001D1F080D191DC701B601A30192010E94EE
:101320001A0AF80160830894811C911CA11CB11C4D
:10133000C701B601A30192010E941A0AC901DA018C
:101340006C017D01C114D104E104F104F1F681E0E6
:10135000E82EF12CEC0EFD1EE80CF91C3E01089461
:10136000611C711CD501C4010197A109B1096C016F
:10137000C818D90814C0F601EE0DFF1D60816A304F
:1013800010F4605D01C0695CD101ED91FC910190A8
:10139000F081E02DC10109950894E108F1086E146F
:1013A0007F0449F7A0960FB6F894DEBF0FBECDBFFD
:1013B000CF91DF911F910F91FF90EF90DF90CF9031
:1013C000BF90AF909F908F907F906F905F904F9065
:1013D0003F902F900895EF92FF920F931F93CF931A
:1013E000DF93EC017A018B0177FF0FC0E881F9816F
:1013F0000190F081E02D6DE2099510950095F09433
:10140000E094E11CF11C011D111DCE01B801A701E2
:101410002AE00E945309DF91CF911F910F91FF9015
:10142000EF900895AB01662757FD6095762F0E94D7
:10143000EB090895A1E21A2EAA1BBB1BFD010DC0EA
:10144000AA1FBB1FEE1FFF1FA217B307E407F50774
:1014500020F0A21BB30BE40BF50B661F771F881F50
:10146000991F1A9469F760957095809590959B01E6
:10147000AC01BD01CF010895EE0FFF1F0590F4915F
:08148000E02D0994F894FFCF60
:10148800687474703A2F2F706F7765727061636B30
:10149800732E004172636F6C61456E657267792EB9
:1014A800636F6D003A00202020202020002F0020AC
:1014B800008C01000000000000670214092C0900DC
:0814C800004000140054000074
:00000001FF
