:100000000C945B000C9483000C9483000C9483008C
:100010000C9483000C9483000C9483000C94830054
:100020000C9483000C9483000C9483000C94830044
:100030000C9483000C9483000C9483000C94830034
:100040000C94B7000C9483000C94B6030C948300BA
:100050000C9483000C9483000C9483000C94830014
:100060000C9483000C948300000024272A000025B0
:10007000282B000023262904040404040404040299
:100080000202020202030303030303010204081035
:100090002040800102040810200102040810200002
:1000A0000000070002010000030406000000000039
:1000B00000000000940111241FBECFEFD4E0DEBF8A
:1000C000CDBF11E0A0E0B1E0E4E1FBE002C00590AB
:1000D0000D92AA30B107D9F711E0AAE0B1E001C052
:1000E0001D92AC39B107E1F710E0C6EBD0E004C0D7
:1000F0002297FE010E948405C43BD107C9F70E94E4
:10010000B0000C9488050C94000080910A010E94B4
:10011000AB0490930D0180930C0164EF71E080E0DB
:1001200090E00E94220140910C0150910D01662740
:1001300057FD6095762F86E191E02AE030E00E943D
:10014000310308958091000161E00E94F30386E18C
:1001500091E040E855E260E070E00E94A801089557
:100160000E945A010E94A2000E948500FDCF1F92AA
:100170000F920FB60F9211242F938F939F93AF93EB
:10018000BF9380910E0190910F01A0911001B09149
:1001900011018050904CAF4FBF4F80930E01909350
:1001A0000F01A0931001B093110127C080910E019F
:1001B00090910F01A0911001B091110180589E43C0
:1001C000A040B04080930E0190930F01A0931001C6
:1001D000B09311018091120190911301A09114012B
:1001E000B09115010196A11DB11D8093120190934C
:1001F0001301A0931401B093150180910E01909109
:100200000F01A0911001B091110181589E43A040AF
:10021000B04060F6BF91AF919F918F912F910F9059
:100220000FBE0F901F9018958FB7F8942091120170
:100230003091130140911401509115018FBFB90104
:10024000CA010895EF92FF920F931F937B018C01D7
:100250008FB7F894409112015091130160911401ED
:10026000709115018FBF2FB7F89480911201909172
:100270001301A0911401B09115012FBF841B950BA0
:10028000A60BB70B8E159F05A007B10760F31F9152
:100290000F91FF90EF900895019759F0FC01EE0F38
:1002A000FF1FEE0FFF1F32978FB7F8943197F1F7CA
:1002B0008FBF0895789484B5826084BD84B58160D1
:1002C00084BD85B5826085BD85B5816085BDEEE65E
:1002D000F0E0808181608083E1E8F0E080818260ED
:1002E0008083808181608083E0E8F0E080818160AC
:1002F0008083E1EBF0E0808184608083E0EBF0E0DC
:10030000808181608083EAE7F0E08081846080837F
:100310008081826080838081816080838081806829
:1003200080831092C100089586E091E090931701B8
:10033000809316010895862F0E94750308950E94E8
:10034000AD0308950E948E0308950E947D030895D1
:10035000CB01BA010E943C030895DC01ED91FC91B0
:100360000190F081E02D09950895DC01ED91FC915B
:100370000190F081E02D099508950F931F93CF937D
:10038000DF938C01EB0109C02196D801ED91FC911E
:100390000190F081E02DC801099568816623A1F7DD
:1003A000DF91CF911F910F9108950F931F938C01AF
:1003B000DC01ED91FC910190F081E02D6DE009955B
:1003C000D801ED91FC910190F081E02DC8016AE027
:1003D00009951F910F9108950F931F938C01DC01D4
:1003E000ED91FC910190F081E02D0995C8010E94EA
:1003F000D5011F910F9108950F931F938C010E94B7
:10040000BD01C8010E94D5011F910F9108950F935E
:100410001F938C01DC01ED91FC910190F081E02DA6
:100420000995C8010E94D5011F910F9108952F923F
:100430003F924F925F926F927F928F929F92AF9274
:10044000BF92CF92DF92EF92FF920F931F93DF93B1
:10045000CF93CDB7DEB7A0970FB6F894DEBF0FBE2F
:10046000CDBF1C016A017B01411551056105710574
:1004700049F4DC01ED91FC910190F081E02D60E305
:10048000099554C0882499245401422E5524662489
:10049000772401E010E00C0F1D1F080D191DC70186
:1004A000B601A30192010E943105F801608308940E
:1004B000811C911CA11CB11CC701B601A3019201B2
:1004C0000E943105C901DA016C017D01C114D1041A
:1004D000E104F104F1F681E0E82EF12CEC0EFD1EB2
:1004E000E80CF91C3E010894611C711CD501C40183
:1004F0000197A109B1096C01C818D90814C0F60107
:10050000EE0DFF1D60816A3010F4605D01C0695C12
:10051000D101ED91FC910190F081E02DC10109958F
:100520000894E108F1086E147F0449F7A0960FB60D
:10053000F894DEBF0FBECDBFCF91DF911F910F9119
:10054000FF90EF90DF90CF90BF90AF909F908F90F3
:100550007F906F905F904F903F902F9008952AE08A
:100560000E94170208950F931F938C010E94AF02FF
:10057000C8010E94D5011F910F910895AB0160E061
:1005800070E00E94AF0208950F931F938C01AB019E
:1005900060E070E00E94AF02C8010E94D5011F9187
:1005A0000F910895EF92FF920F931F93CF93DF93D4
:1005B000EC017A018B0177FF0FC0E881F98101908E
:1005C000F081E02D6DE2099510950095F094E0948E
:1005D000E11CF11C011D111DCE01B801A7012AE08B
:1005E0000E941702DF91CF911F910F91FF90EF9022
:1005F00008950F931F938C010E94D202C8010E949C
:10060000D5011F910F910895AB01662757FD6095A5
:10061000762F0E94D20208950F931F938C01AB0195
:10062000662757FD6095762F0E94D202C8010E946E
:10063000D5011F910F910895DC012115310541F479
:10064000ED91FC910190F081E02D642F09950895C2
:100650002A30310519F40E94D20208950E9417022F
:1006600008950F931F938C010E941C03C8010E94E0
:10067000D5011F910F910895EF92FF920F931F9351
:100680007B018C0122E030E040E050E00E94530505
:10069000205C3D4B404F5F4FCA01B901A801970153
:1006A0000E945305C901DA010197A109B109292F57
:1006B0003A2F4B2F552747FD5A950196A11DB11D85
:1006C0002093C50081508093C400E1ECF0E080816C
:1006D000806180838081886080838081806880835E
:1006E0001F910F91FF90EF900895982F8091C00077
:1006F00085FFFCCF9093C6000895809118019091DA
:10070000190180589F4F20911A0130911B01821BC3
:10071000930B60E870E00E941E05089540911A0155
:1007200050911B0180911801909119018417950730
:1007300019F42FEF3FEF0FC0FA01E45EFE4F208166
:10074000CA01019660E870E00E941E0590931B01AB
:1007500080931A0130E0C901089580911A019091A7
:100760001B01909319018093180108951F920F9215
:100770000FB60F9211242F933F934F935F936F9374
:100780007F938F939F93AF93BF93EF93FF9340918A
:10079000C600E0911801F0911901CF01019660E8BF
:1007A00070E00E941E059C0180911A0190911B012E
:1007B0002817390739F0E45EFE4F40833093190162
:1007C00020931801FF91EF91BF91AF919F918F916D
:1007D0007F916F915F914F913F912F910F900FBE3D
:1007E0000F901F901895282F30E0C90185579F4F13
:1007F000FC01949129583F4FF9018491882381F09D
:10080000E82FF0E0E859FF4FE491F0E0662329F487
:10081000808190958923808308958081892B8083AE
:100820000895482F50E0CA0181569F4FFC01249142
:10083000CA0185579F4FFC01949149585F4FFA01B7
:1008400034913323C1F1222331F1233021F48091FB
:1008500080008F7705C0243031F4809180008F7D37
:100860008093800018C0213019F484B58F7704C0BC
:10087000223021F484B58F7D84BD0DC0263021F453
:100880008091B0008F7705C0273029F48091B000A7
:100890008F7D8093B000E32FF0E0E359FF4FE491A8
:1008A000F0E0662329F48081909589238083089560
:1008B0008081892B80830895482F50E0CA0181569A
:1008C0009F4FFC012491CA0185579F4FFC019491D1
:1008D00049585F4FFA013491332319F420E030E096
:1008E00035C0222331F1233021F4809180008F77AD
:1008F00005C0243031F4809180008F7D809380008A
:1009000018C0213019F484B58F7704C0223021F447
:1009100084B58F7D84BD0DC0263021F48091B00058
:100920008F7705C0273029F48091B0008F7D8093A8
:10093000B000E32FF0E0EE58FF4FE491F0E080814B
:1009400020E030E0892311F021E030E0C901089572
:100950008093080108958F70909108019295990FE6
:10096000990F907C982B90937C0080917A00806402
:1009700080937A0080917A0086FDFCCF20917800E8
:1009800040917900942F80E030E0282B392BC90169
:1009900008951F93CF93DF93182FEB0161E00E941E
:1009A000F303E12FF0E0E156FF4F8491833051F4DF
:1009B00080918000806880938000D0938900C093EC
:1009C000880038C0843051F4809180008062809328
:1009D0008000D0938B00C0938A002CC0813029F412
:1009E00084B5806884BDC7BD25C0823029F484B534
:1009F000806284BDC8BD1EC0863041F48091B000C5
:100A000080688093B000C093B30014C0873041F475
:100A10008091B00080628093B000C093B4000AC09F
:100A2000C038D1051CF4812F60E002C0812F61E045
:100A30000E941104DF91CF911F91089597FB092E19
:100A400007260AD077FD04D049D006D000201AF43A
:100A5000709561957F4F0895F6F7909581959F4F1A
:100A60000895A1E21A2EAA1BBB1BFD010DC0AA1FEF
:100A7000BB1FEE1FFF1FA217B307E407F50720F007
:100A8000A21BB30BE40BF50B661F771F881F991F82
:100A90001A9469F760957095809590959B01AC01CB
:100AA000BD01CF01089597FB092E05260ED057FDF5
:100AB00004D0D7DF0AD0001C38F45095409530950B
:100AC00021953F4F4F4F5F4F0895F6F790958095D2
:100AD000709561957F4F8F4F9F4F0895AA1BBB1B49
:100AE00051E107C0AA1FBB1FA617B70710F0A61B2E
:100AF000B70B881F991F5A95A9F780959095BC014F
:100B0000CD010895EE0FFF1F0590F491E02D09949B
:040B1000F894FFCF87
:0A0B14000D00000000009B0101002D
:00000001FF
