:100000000C9437000C945F000C945F000C945F001C
:100010000C945F000C945F000C945F000C945F00E4
:100020000C945F000C945F000C945F000C945F00D4
:100030000C945F000C945F000C945F000C945F00C4
:100040000C94A3060C945F000C944F070C945F0073
:100050000C945F000C945F000C945F000C945F00A4
:100060000C94AC020C945F00A301DC0598081124E9
:100070001FBECFEFD8E0DEBFCDBF11E0A0E0B1E002
:10008000E4EFF4E102C005900D92AC31B107D9F76D
:1000900011E0ACE1B1E001C01D92A43EB107E1F76F
:1000A00010E0CEE6D0E004C02297FE010E94740A60
:1000B000C836D107C9F70E949C060C94780A0C94A4
:1000C00000000F931F93CF93DF93689F8001699F78
:1000D000100D789F100D1124C8010E947D00EC01C5
:1000E000009729F060E070E0A8010E947F01CE0136
:1000F000DF91CF911F910F910895CF93DF93BC01B2
:100100008230910510F462E070E0A091E201B091BC
:10011000E301ED01E0E0F0E040E050E021C0888143
:1001200099818617970769F48A819B81309719F026
:100130009383828304C09093E3018093E201FE01E4
:1001400034C06817790738F44115510519F0841740
:10015000950708F4AC01FE018A819B819C01E901AD
:100160002097E9F641155105A9F1CA01861B970BA5
:10017000049708F4BA01E0E0F0E02AC08D919C9168
:10018000119784179507F9F46417750781F412968F
:100190008D919C911397309719F09383828304C0BB
:1001A0009093E3018093E201FD0132964CC0CA01B5
:1001B000861B970BFD01E80FF91F6193719302975E
:1001C0008D939C9340C0FD01828193819C01D90154
:1001D0001097A1F68091E0019091E101892B41F403
:1001E00080910D0190910E019093E1018093E001C7
:1001F00040910F01509110014115510541F44DB747
:100200005EB780910B0190910C01481B590B209116
:10021000E0013091E101CA01821B930B8617970719
:1002200080F0AB014E5F5F4F8417950750F0420F8F
:10023000531F5093E1014093E001F90161937193E1
:1002400002C0E0E0F0E0CF01DF91CF910895CF93BD
:10025000DF93009709F450C0EC0122971B821A82A9
:10026000A091E201B091E301109709F140E050E064
:10027000AC17BD0708F1BB83AA83FE012191319120
:10028000E20FF31FAE17BF0779F48D919C91119780
:10029000280F391F2E5F3F4F3983288312968D9187
:1002A0009C9113979B838A834115510571F4D093D8
:1002B000E301C093E20120C012968D919C911397A7
:1002C000AD01009711F0DC01D3CFFA01D383C283D3
:1002D00021913191E20FF31FCE17DF0769F4888176
:1002E0009981280F391F2E5F3F4FFA0131832083F8
:1002F0008A819B8193838283DF91CF910895DC0172
:1003000001C06D9341505040E0F7089581E0809323
:100310002501609320011092230110922401089579
:1003200090911E0180911F01981710F080E00895B0
:10033000E0911C01F0911D01E90FF11D80819F5F8B
:1003400090931E0108950895DF93CF930F92CDB738
:10035000DEB76983809125018823A9F0809124016B
:100360008032B0F480912301E0912101F0912201CB
:10037000E80FF11D6083809123018F5F809323013B
:100380008093240105C0CE01019661E00E948F0296
:100390000F90CF91DF9108950E94A401089560917C
:1003A000210170912201809120014091240121E0DE
:1003B0000E944A02109223011092240110922501FA
:1003C0000895862F60911C0170911D01413208F043
:1003D00040E20E94120210921E0180931F010895B4
:1003E0000E94E101089580E290E061E070E00E94E7
:1003F000610080931C0190931D0110921E011092C8
:100400001F0180E290E061E070E00E946100809353
:1004100021019093220110922301109224010E9445
:100420002E040895982F413210F040E031C08091A1
:1004300027018823E1F781E0809327018FEF8093E4
:10044000380110922F014150409330014F5F990FB6
:1004500091609093280185EE8093BC0080912701E4
:100460008130E1F380912F01841710F440912F0126
:10047000A0912D01B0912E0120E030E007C0FB01DA
:10048000E20FF31F8D9180832F5F3F4F2417B8F346
:10049000842F08951F93582F122F413210F081E0BE
:1004A0003CC0809127018823E1F782E080932701F7
:1004B0008FEF8093380110922F0140933001A0916B
:1004C0002D01B0912E01FB0102C081918D938E2FE1
:1004D000861B8417D0F3852F90E0880F991F809397
:1004E000280185EE8093BC00112321F08091270123
:1004F0008230E1F3809138018F3F11F480E00DC02C
:1005000080913801803211F482E007C08091380177
:10051000803311F084E001C083E01F910895482FDB
:10052000613210F081E0089580912701843011F04C
:1005300082E0089560933401A0913101B0913201BD
:10054000842F9C01F90102C081918D938E2F841B11
:100550008617D0F380E008951F920F920FB60F9286
:1005600011242F933F934F935F936F937F938F93B8
:100570009F93AF93BF93EF93FF938091B90090E067
:10058000887F90708036910509F4E2C0813691052C
:10059000CCF58832910509F47BC089329105B4F419
:1005A0008031910509F46FC0813191053CF40097C9
:1005B00009F438C1089709F040C165C08831910538
:1005C00009F466C0809709F038C17FC08034910576
:1005D00009F4A3C08134910544F48033910509F4F2
:1005E0007FC0C89709F029C186C08035910509F4FC
:1005F00086C08835910509F495C08834910509F0C5
:100600001CC19EC08839910509F404C1893991053E
:10061000ECF48837910509F49BC0893791054CF4B7
:100620008836910509F494C08037910509F005C119
:100630008FC08838910509F4EDC08039910509F41F
:100640008DC08038910509F0F8C088C0803B9105C5
:1006500009F4B2C0813B91054CF4803A910509F44C
:1006600091C0883A910509F0E8C0A6C0803C910588
:1006700009F4D4C0883C910509F4D0C0883B9105A9
:1006800009F0DBC0B1C0809128018093BB00C0C0DD
:1006900090912F0180913001981778F490912F015B
:1006A000E0912D01F0912E01E90FF11D80818093E1
:1006B000BB009F5F90932F01ABC085ED8093BC0082
:1006C0008091BC0084FDFCCFB6C080E280933801ED
:1006D00085ED8093BC008091BC0084FDFCCFABC055
:1006E00080E38093380185ED8093BC008091BC004D
:1006F00084FDFCCFA0C088E3809338018FC0809137
:100700002F019091BB00E0912D01F0912E01E80F97
:10071000F11D90838F5F80932F0190912F01809125
:10072000300174C080912F019091BB00E0912D01A8
:10073000F0912E01E80FF11D90838F5F80932F01C0
:1007400085ED8093BC008091BC0084FDFCCF73C01C
:1007500083E080932701109237015AC080913701BE
:10076000803208F057C0809137019091BB00E09132
:100770003501F0913601E80FF11D90838F5F809372
:10078000370146C080913701803248F480913701AB
:10079000E0913501F0913601E80FF11D1082609172
:1007A0003701E0912B01F0912C018091350190915E
:1007B000360170E0099532C084E0809327011092E1
:1007C000330110923401E0912901F0912A01099539
:1007D00080913401882341F481E080933401E091D9
:1007E0003101F0913201108290913301E091310199
:1007F000F0913201E90FF11D80818093BB009F5F72
:10080000909333019091330180913401981710F443
:1008100085EC01C085E88093BC000FC085EC809317
:10082000BC0009C01092380185ED8093BC00809116
:10083000BC0084FDFCCF10922701FF91EF91BF9186
:10084000AF919F918F917F916F915F914F913F9168
:100850002F910F900FBE0F901F90189510922701A7
:10086000449A459AE9EBF0E080818E7F8083808115
:100870008D7F808388E48093B80085E48093BC00FA
:1008800080E290E061E070E00E94610080932D01C1
:1008900090932E0180E290E061E070E00E946100A0
:1008A000809331019093320180E290E061E070E04A
:1008B0000E946100809335019093360108950F9353
:1008C0001F93CF93DF938C0186E291E068E670E09E
:1008D0000E94860186E291E060E070E00E94CC0117
:1008E000C0E0D0E0F801EC0FFD1F86E291E06081EE
:1008F0000E94A4012196C730D105A1F786E291E0BC
:100900000E94CF01DF91CF911F910F910895FC01BB
:1009100010820E945F040895FC01808180688083BA
:10092000CF010E945F040895CF93DF93EC01FA0199
:100930006330710509F458C0643071054CF46130BE
:10094000710551F162307105DCF5672B71F089C0DA
:100950006530710509F460C0653071050CF449C05B
:100960006630710509F07DC06AC04C33510508F04E
:1009700078C0CA016AE070E00E940E0A262F229514
:10098000207FCF016AE070E00E940E0A280F888164
:100990008078822B888365C04C33510508F061C094
:1009A000CA016AE070E00E940E0A262F2295207F7D
:1009B000CF016AE070E00E940E0A280F298351C01F
:1009C0004831510508F04DC0CA016AE070E00E944C
:1009D0000E0A262F2295207FCF016AE070E00E9448
:1009E0000E0A280F2A833DC048305105D0F54B83AD
:1009F00038C040325105A8F5CA016AE070E00E9493
:100A00000E0A262F2295207FCF016AE070E00E9417
:100A10000E0A280F2C8325C04D30510510F5CA0150
:100A20006AE070E00E940E0A262F2295207FCF01F7
:100A30006AE070E00E940E0A280F2D8312C0423334
:100A4000510578F4CA016AE070E00E940E0A262F70
:100A50002295207FCF016AE070E00E940E0A280FE5
:100A60002E83CE010E945F04DF91CF9108950F93F2
:100A70001F93CF93DF938C0186E291E068E670E0EC
:100A80000E94860186E291E060E070E00E94CC0165
:100A900086E291E00E94CF0186E291E068E670E094
:100AA00047E050E00E94F001C0E0D0E086E291E033
:100AB0000E949001F801EC0FFD1F80832196C73042
:100AC000D105A1F7DF91CF911F910F9108950F9359
:100AD0001F93CF93DF938C01EB01442311F00E940D
:100AE0003705C330D105B9F1C430D1054CF4C1305C
:100AF000D105A1F0C230D1055CF5CD2B61F008C065
:100B0000C530D105E1F1C530D10564F12697F1F189
:100B10004FEF5FEF4BC0F801208102C0F801218147
:100B200030E0C90180779070E4E095958795EA956B
:100B3000E1F7AC0173E0440F551F7A95E1F7880F98
:100B4000991F480F591F2F703070420F531F2EC02E
:100B5000F801228116C0F8018381482F50E04770C8
:100B6000507024C0F8018481282F22952F709AE0BC
:100B7000299FA00111248F70480F511D17C0F80143
:100B8000258130E0C90180739070CECFF801868155
:100B9000482F50E04F7050704053584F82958F70DF
:100BA0002AE0829FC0011124480F591FCA01DF911A
:100BB000CF911F910F91089586E291E00E94F30179
:100BC0000895CF92DF92EF92FF920F931F9329E344
:100BD000E22E21E0F22EC70162E070E041E00E94C7
:100BE0006705BC010DEC11E0C8010E94E70990E027
:100BF000C92E91E0D92EC801B6010E940909C7018A
:100C000061E070E040E00E946705BC01C8010E94FD
:100C1000E709C801B6010E940909C70160E070E058
:100C200040E00E946705BC01C8010E94E709C801B5
:100C300062E071E00E940909C70164E070E040E0F1
:100C40000E946705BC01C8010E94E70989E0C82E1F
:100C500081E0D82EC801B6010E940909C70165E0EC
:100C600070E040E00E946705BC01C8010E94E709EE
:100C7000C801B6010E940909C70166E070E040E0C2
:100C80000E946705BC01C8010E94E709C8010E94D3
:100C9000110968EE73E080E090E00E94EB061F917E
:100CA0000F91FF90EF90DF90CF9008950F931F93D7
:100CB0008DEC91E040E855E260E070E00E948C0726
:100CC00009E311E0C8010E948C04C80160E070E0F3
:100CD00041E050E00E949404C80161E070E049E006
:100CE00050E00E949404C80162E070E041E150E0ED
:100CF0000E949404C80163E070E043E050E00E9469
:100D00009404C80164E070E047E150E00E9494045C
:100D1000C80165E070E046E050E00E949404C8011C
:100D200066E070E04AE050E00E949404C8010E942E
:100D300087041F910F9108950E9415070E9456067F
:100D40000E94E105FDCF1F920F920FB60F92112462
:100D50002F933F938F939F93AF93BF9380914401C1
:100D600090914501A0914601B09147013091480111
:100D70000196A11DB11D232F2D5F2D3720F02D577A
:100D80000196A11DB11D20934801809344019093C9
:100D90004501A0934601B093470180914001909195
:100DA0004101A0914201B09143010196A11DB11DE5
:100DB0008093400190934101A0934201B09343017D
:100DC000BF91AF919F918F913F912F910F900FBE47
:100DD0000F901F901895EF92FF920F931F937B0136
:100DE0008C018FB7F8944091440150914501609176
:100DF0004601709147018FBF2FB7F894809144014D
:100E000090914501A0914601B09147012FBF841BED
:100E1000950BA60BB70BE816F9060A071B0760F738
:100E20001F910F91FF90EF900895789484B58260A0
:100E300084BD84B5816084BD85B5826085BD85B57E
:100E4000816085BDEEE6F0E0808181608083E1E82D
:100E5000F0E0808182608083808181608083E0E82F
:100E6000F0E0808181608083E1EBF0E0808184604C
:100E70008083E0EBF0E0808181608083EAE7F0E04E
:100E800080818460808380818260808380818160B2
:100E900080838081806880831092C10008951F92B2
:100EA0000F920FB60F9211242F933F934F935F939E
:100EB0006F937F938F939F93AF93BF93EF93FF9322
:100EC0004091C600E091C901F091CA01CF0101969D
:100ED00060E870E00E940E0A9C018091CB01909125
:100EE000CC012817390739F0E75BFE4F4083309378
:100EF000CA012093C901FF91EF91BF91AF919F91DA
:100F00008F917F916F915F914F913F912F910F90B2
:100F10000FBE0F901F9018955F926F927F928F92E5
:100F20009F92AF92BF92CF92DF92EF92FF920F9378
:100F30001F93CF93DF93EC013A014B01413482E4DC
:100F400058078FE0680780E078070CF07FC060E802
:100F500074E88EE190E0A40193010E94430A2150BD
:100F6000304040405040CA01B90122E030E040E04A
:100F700050E00E94430A59016A01A601950120959B
:100F800030954095509594E0220F331F441F551F14
:100F90009A95D1F760E074E284EF90E00E94430AF2
:100FA000CA01B9012FEF30E040E050E00E94EF09A4
:100FB000A40193010E94430AC90181509F4F181652
:100FC00019061CF4522E5A9403C055245394521AF5
:100FD00060E079E08DE390E0A40193010E94430A70
:100FE0002150304040405040CA01B90122E030E079
:100FF00040E050E00E94430A20953095409550957E
:1010000083E0220F331F441F551F8A95D1F760E0FC
:1010100074E284EF90E00E94430ACA01B9012FEF05
:1010200030E040E050E00E94EF09A40193010E94EB
:10103000430AC90181509F4F181619061CF4822FCC
:10104000815002C081E0821B851500F5E885F98595
:1010500081E090E00A8802C0880F991F0A94E2F7A5
:10106000808360E079E08DE390E0A40193010E9429
:10107000430A2150304040405040CA01B90122E0AB
:1010800030E040E050E00E94430A04C0E885F98562
:1010900010829501EC81FD813083EE81FF812083F8
:1010A000EA85FB85208141E050E0CA010E8402C040
:1010B000880F991F0A94E2F7282B2083EA85FB8585
:1010C0002081CA010F8402C0880F991F0A94E2F799
:1010D000282B2083EA85FB858081088802C0440F85
:1010E000551F0A94E2F7842B8083DF91CF911F91E3
:1010F0000F91FF90EF90DF90CF90BF90AF909F90B7
:101100008F907F906F905F900895FC01A085B185CE
:1011100021898C9190E0022E02C0959587950A94C2
:10112000E2F780FFF6CF0484F585E02D6083089513
:1011300085E191E09093CE018093CD0189E491E027
:101140009093D0018093CF0185EC90E09093D201F1
:101150008093D10184EC90E09093D4018093D301EB
:1011600080EC90E09093D6018093D50181EC90E0E3
:101170009093D8018093D70186EC90E09093DA01A8
:101180008093D90184E08093DB0183E08093DC01CC
:1011900087E08093DD0185E08093DE0181E080932C
:1011A000DF0108950F931F93CF93DF938C01EB0121
:1011B00009C02196D801ED91FC910190F081E02DBC
:1011C000C801099568816623A1F7DF91CF911F912E
:1011D0000F910895EF92FF920F931F93CF93DF9398
:1011E0008C017B01EA010CC0D7016D917D01D80112
:1011F000ED91FC910190F081E02DC80109952197B6
:10120000209791F7DF91CF911F910F91FF90EF9071
:101210000895DC01ED91FC910280F381E02D0995A8
:1012200008950F931F938C01DC01ED91FC910190C7
:10123000F081E02D6DE00995D801ED91FC910190D0
:10124000F081E02DC8016AE009951F910F91089582
:101250002F923F924F925F926F927F928F929F92C6
:10126000AF92BF92CF92DF92EF92FF920F931F93B4
:10127000DF93CF93CDB7DEB7A0970FB6F894DEBF5C
:101280000FBECDBF1C016A017B01411551056105EF
:10129000710549F4DC01ED91FC910190F081E02DA4
:1012A00060E3099554C0882499245401422E5524A2
:1012B0006624772401E010E00C0F1D1F080D191D96
:1012C000C701B601A30192010E94210AF8016083BF
:1012D0000894811C911CA11CB11CC701B601A3017B
:1012E00092010E94210AC901DA016C017D01C11439
:1012F000D104E104F104F1F681E0E82EF12CEC0ECA
:10130000FD1EE80CF91C3E010894611C711CD501FE
:10131000C4010197A109B1096C01C818D90814C00A
:10132000F601EE0DFF1D60816A3010F4605D01C0B2
:10133000695CD101ED91FC910190F081E02DC1013A
:1013400009950894E108F1086E147F0449F7A09606
:101350000FB6F894DEBF0FBECDBFCF91DF911F91C6
:101360000F91FF90EF90DF90CF90BF90AF909F9044
:101370008F907F906F905F904F903F902F90089547
:10138000EF92FF920F931F93CF93DF93EC017A01BB
:101390008B0177FF0FC0E881F9810190F081E02D8A
:1013A0006DE2099510950095F094E094E11CF11C14
:1013B000011D111DCE01B801A7012AE00E942809D4
:1013C000DF91CF911F910F91FF90EF900895AB01A6
:1013D000662757FD6095762F0E94C0090895629F89
:1013E000D001739FF001829FE00DF11D649FE00D1D
:1013F000F11D929FF00D839FF00D749FF00D659F7E
:10140000F00D9927729FB00DE11DF91F639FB00D7C
:10141000E11DF91FBD01CF011124089597FB092E8D
:1014200007260AD077FD04D049D006D000201AF450
:10143000709561957F4F0895F6F7909581959F4F30
:101440000895A1E21A2EAA1BBB1BFD010DC0AA1F05
:10145000BB1FEE1FFF1FA217B307E407F50720F01D
:10146000A21BB30BE40BF50B661F771F881F991F98
:101470001A9469F760957095809590959B01AC01E1
:10148000BD01CF01089597FB092E05260ED057FD0B
:1014900004D0D7DF0AD0001C38F450954095309521
:1014A00021953F4F4F4F5F4F0895F6F790958095E8
:1014B000709561957F4F8F4F9F4F0895AA1BBB1B5F
:1014C00051E107C0AA1FBB1FA617B70710F0A61B44
:1014D000B70B881F991F5A95A9F780959095BC0165
:1014E000CD010895EE0FFF1F0590F491E02D0994B2
:0414F000F894FFCF9E
:1014F4003A00202020202020002F002000E40100BA
:0C15040000000000008508D208EA080082
:00000001FF
