:100000000C94B5010C9455230C9482230C94AF23CB
:100010000C94DC230C94DD010C94DD010C94DD01C7
:100020000C94DD010C94DD010C94242C0C94AB2C6D
:100030000C94DD010C94DD010C94DD010C94DD01C8
:100040000C94DD010C94DD010C94DD010C94DD01B8
:100050000C94DD010C94DD010C94DD010C94092459
:100060000C94DD010C94DD010C94DD010C94DD0198
:100070000C94DD010C94DD010C94DD010C94DD0188
:100080000C94DD010C94DD010C94DD010C94DD0178
:100090000C94DD010C94DD010C94DD010C94DD0168
:1000A0000C94DD010C94DD010C94DD01F70D020EC2
:1000B0000D0E100E450E4D0E850EA60EA80EBD0E91
:1000C000C00ED110C90ED110D110DE0EFD0EFB0FE7
:1000D000001018102F10D110A210AF10BB10CE10AE
:1000E0007C3C3E5E2B3D3F2F5B5D3B2C2A225C001F
:1000F00000000000240027002A002D00300000002E
:100100000000250028002B002E0031000000000018
:100110002300260029002C002F00040404040403FB
:100120000405020202020403020202020606060697
:100130000606040402020204040802011040804082
:1001400010204080408008020401804020100201FD
:100150001080102040400000000200080E00000344
:100160000401000B0000000000000000000000007F
:1001700000000000070605040100080A0B0C0D0929
:10018000080B000202020100090400000102020043
:1001900000052400100105240101010424020605C4
:1001A0002406000107058103100040090401000234
:1001B0000A00000007050202400000070583024014
:1001C000000004030904220341007200640075006A
:1001D00069006E006F0020004C0065006F006E002B
:1001E0006100720064006F00180341007200640037
:1001F000750069006E006F0020004C004C00430049
:10020000120100020000004041233680000101027B
:10021000000112010002020000404123368000016B
:100220000102000100C18081C105010902A101098B
:1002300001A1008501050919012903150025019572
:1002400003750181029501750581030501093009D6
:100250003109381581257F750895038106C0C005D1
:10026000010906A1018502050719E029E715002506
:100270000175019508810295017508810395067540
:1002800008150025650507190029658100C00904C6
:1002900002000103000000092101010001226500A4
:1002A0000705840340000100000000000000002A50
:1002B0002B280000000000000000000000000000EB
:1002C000000000000000002C9EB4A0A1A2A434A64F
:1002D000A7A5AE362D3738271E1F2021222324251F
:1002E00026B333B62EB7B89F8485868788898A8BD4
:1002F0008C8D8E8F909192939495969798999A9BC6
:100300009C9D2F3130A3AD350405060708090A0B63
:100310000C0D0E0F101112131415161718191A1BA5
:100320001C1DAFB1B0B500494E46494E4954594E17
:10033000414ECDCCCC3D0AD7233C17B7D13877CC32
:100340002B329595E6241FB14F0A00002041000092
:10035000C84200401C4620BCBE4CCA1B0E5AAEC54B
:100360009D740B040B27602B2E2E11241FBECFEF84
:10037000DAE0DEBFCDBF13E0A0E0B1E0ECE8F4E6E8
:1003800002C005900D92AC3FB107D9F717E0ACEF72
:10039000B3E001C01D92AB33B107E1F713E0CAE649
:1003A000D3E004C02297FE010E94FE31C236D1077D
:1003B000C9F70E94AD260C9444320C9400006627C5
:1003C00077270C94F901FB01DC0104C08D910190A9
:1003D000801921F441505040C8F7881B990B0895AB
:1003E000FB01DC0102C001900D9241505040D8F752
:1003F0000895A0E0B0E0EFEFF1E00C941332EC01CF
:100400005B016115710519F0FB0191838083F990FF
:100410008F2D90E00E940232892BC9F7FDE2FF1672
:1004200021F4F990EE24E39405C02BE2F21609F4CE
:10043000F990EE248E0101501040C80167E273E08C
:1004400043E050E00E945903892B01F58E010E5FB5
:100450001F4FC8016AE273E045E050E00E94590373
:10046000892B19F48E01095F1F4FA114B10419F0F3
:10047000F50111830083E0FC04C070E090E080E8A7
:1004800014C070E090E080E86FEF08C1C8016FE22F
:1004900073E043E050E00E945903892B69F4A114F2
:1004A000B10429F470E090E080EC6FE7F7C0229689
:1004B000F501D183C083F6CF8824992440E050E031
:1004C00060E070E0EF2DE053EA30A0F5F2E0EF2AB3
:1004D0008E2D90E09C0128703070E2FE06C0232B28
:1004E00079F50894811C911C2BC0232B19F00894DA
:1004F00081089108DB01CA0112E0880F991FAA1F29
:10050000BB1F1A95D1F7480F591F6A1F7B1F440F55
:10051000551F661F771F4E0F511D611D711D4839F4
:1005200029E9520729E9620729E1720748F084E0C6
:10053000E82A06C0EE3F31F4E3FC39C098E0E92A2E
:10054000F990C0CFE53311F0E53189F529912D32CD
:1005500019F4E0E1EE2A05C02B3219F081E090E0B9
:1005600003C0299182E090E0E22FE053EA3018F0D6
:10057000C81BD90B1CC020E030E0FCE020383F074E
:100580005CF4C901880F991F880F991F280F391F24
:10059000220F331F2E0F311DE991E053EA3068F32B
:1005A000E4FE03C0309521953F4F820E931ECE2C62
:1005B000DD24E1FE07C0A114B10421F02197F5016B
:1005C000D183C083CB01BA010E9439307B018C01F9
:1005D000F3E0CF22DD2423E0C216D10421F417FB7F
:1005E000109517F9109557016801C801B70120E06F
:1005F00030E040E050E00E949C2F882309F44AC07C
:1006000097FE0DC026E4E22E23E0F22E9094819412
:1006100091089394C0E2D0E000E010E012C09EE5A3
:10062000E92E93E0F92EF6CFF7012591359145910A
:100630005491C601B5010E94EF305B016C018C1A28
:100640009D0A8C169D0684F7D595C7950F5F1F4FA1
:100650000630110529F08CEF9FEFE80EF91EF1CF5F
:10066000C501D6017C018D018C2D880F8D2D881F31
:100670008F3F51F0C601B50120E030E040E050E08E
:100680000E949C2F882331F482E290E090933A07F5
:10069000809339077E2D9F2D802F612F272F392F93
:1006A000482F562FB901CA01CDB7DEB7ECE00C9444
:1006B0002F32FB01DC014150504088F08D91813494
:1006C0001CF08B350CF4805E659161341CF06B3549
:1006D0000CF4605E861B611171F3990B0895881B01
:1006E000FCCF6F927F928F929F92AF92BF92CF92E8
:1006F000DF92EF92FF920F931F93CF93DF93EB0163
:10070000AA2797FDA095BA2FBC01CD010E943B30CE
:100710003B014C01A090FE03B090FF03C090000489
:10072000D09001046091060470910704882777FD3A
:100730008095982F0E943B30A60195010E94EF30D2
:100740007B018C01C401B301A80197010E949C2F79
:1007500087FD50C0C601B5012091080430910904FD
:1007600040910A0450910B040E94EF30A8019701B8
:100770000E94372F9B01AC01C401B3010E94EB30F2
:100780001816C4F1BE01882777FD8095982F0E9426
:100790003B303B014C0160910404709105048827B3
:1007A00077FD8095982F0E943B30A60195010E940D
:1007B000EF309B01AC01C401B3010E949C2F87FD67
:1007C00019C010E0C601B50120910C0430910D0450
:1007D00040910E0450910F040E94EF309B01AC0138
:1007E000C401B3010E94EB3018160CF411E081E053
:1007F000182701C010E0812FDF91CF911F910F9139
:10080000FF90EF90DF90CF90BF90AF909F908F9030
:100810007F906F9008951092270410922A0489E126
:10082000809354041092570410926F04109276042F
:1008300010927904109295041092980410929404E6
:100840001092930488ED93E0909392048093910426
:1008500008950F931F93CF93DF93CCEFD3E060E025
:1008600070E08B010F5F1F4F80EB94E00E94C0127D
:100870008993B80109321105A1F7DF91CF911F913A
:100880000F9108950F931F93CF93DF93CCEFD3E095
:1008900060E070E08B010F5F1F4F499180EB94E0A7
:1008A0000E94C712B80109321105A1F7DF91CF915B
:1008B0001F910F910895EF92FF920F931F93CF9383
:1008C000DF938C0185E197E00E94C1261816190676
:1008D0001CF020E030E021C065E070E080E090E0B6
:1008E0000E945F2485E197E00E94C1267C01C0E060
:1008F000D0E00BC085E197E00E94E8268C3241F001
:10090000F801EC0FFD1F80832196CE15DF0594F3CF
:100910009E010C0F1D1FF8011082C901DF91CF91BC
:100920001F910F91FF90EF900895EF92FF920F9318
:100930001F937C0105E117E0C80160E071E00E94AF
:100940009D29C801B7014AE050E00E947E291F910D
:100950000F91FF90EF900895EF92FF920F931F93E6
:100960007C019093C9038093C80305E117E0C80197
:100970006CE071E00E949D29C801B7014AE050E097
:100980000E947E291F910F91FF90EF900895CF93C1
:10099000DF9364E670E080E090E00E945F2485E1F0
:1009A00097E00E94C1268997A9F4CCEFD3E005C057
:1009B00085E197E00E94E826899384E0C532D80754
:1009C000B9F70E94420485E197E067E171E00E9477
:1009D0009A2A23C085E197E066E271E00E949D2992
:1009E00085E197E069E270E04AE050E00E94CB28A0
:1009F00085E197E060E471E00E949D2985E197E040
:100A00000E94C126BC0185E197E04AE050E00E94C7
:100A10007E2985E197E00E944A27DF91CF910895D2
:100A20001092300410922F0410C0E450FC4F85E166
:100A300097E060810E94222780912F0490913004DA
:100A400001969093300480932F04E0912F04F0914D
:100A50003004E932F10548F385E197E065E471E09F
:100A60000E949A2A0895CF92DF92EF92FF920F93FD
:100A70001F937C0105E117E0C80166E471E00E9464
:100A80009D29F7016081772767FD7095C8014AE0CD
:100A900050E00E946B29C8016AE471E00E949D2920
:100AA000C801F70161810E9400288CE4C82E81E012
:100AB000D82EC801B6010E949D29F70142815381B9
:100AC00064817581C80122E030E00E94842AC80157
:100AD000B6010E949D29F701468157816085718585
:100AE000C80122E030E00E94872A1F910F91FF90F9
:100AF000EF90DF90CF9008950F931F93DF93CF93E4
:100B0000CDB7DEB727970FB6F894DEBF0FBECDBFC7
:100B10008E010F5F1F4FC8010E945B04892B29F4CF
:100B200060E070E080E090E003C0C8010E94DF0157
:100B300027960FB6F894DEBF0FBECDBFCF91DF91E1
:100B40001F910F9108952F923F924F925F926F9253
:100B50007F928F929F92AF92BF92CF92DF92EF924D
:100B6000FF920F931F93DF93CF9300D000D0CDB7A8
:100B7000DEB75B01AA2797FDA095BA2FBC01CD0176
:100B80000E943B301B012C01E090FE03F090FF031C
:100B90000091000410910104C801B70120911504CF
:100BA0003091160440911704509118040E94EF30C0
:100BB00069837A838B839C83C801B70120910804E1
:100BC0003091090440910A0450910B040E94EF30C7
:100BD00029813A814B815C810E94372F3B014C0176
:100BE000CC24B7FCC094DC2CC601B5010E943B307C
:100BF0005B016C01C201B101A20191010E94EF30C1
:100C00007B018C01C401B301A40193010E94EF3068
:100C10009B01AC01C801B7010E94382F7B018C01F8
:100C2000C601B501A60195010E94EF309B01AC0100
:100C3000C801B7010E94372F7B018C01C201B101AD
:100C4000A20191010E94382FA40193010E94EF306C
:100C50009B01AC01C801B7010E94A02F7B018C0150
:100C6000A20191010E94EF305B016C0169817A81E0
:100C70008B819C8120E030E040E05FE30E94EF3018
:100C80009B01AC01C601B5010E94382F0E940830BB
:100C900070933B0460933A04C801B701A80197011F
:100CA0000E94EF309B01AC0160E070E080E89FE3C0
:100CB0000E94372F0E945631A20191010E94EF300D
:100CC0000E94083070933D0460933C040F900F9095
:100CD0000F900F90CF91DF911F910F91FF90EF90A8
:100CE000DF90CF90BF90AF909F908F907F906F904C
:100CF0005F904F903F902F900895CF92DF92EF92A8
:100D0000FF920F931F93F82ED92EE62EC72E88E060
:100D10006F2D0E94A52589E06E2D0E94A52505E175
:100D200017E0C8016EE471E00E949D29C8016F2D93
:100D30007D2D4AE050E00E947E29C80168E571E0FF
:100D40000E949D29C8016E2D7C2D4AE050E00E9432
:100D50007E291F910F91FF90EF90DF90CF90089523
:100D6000682F85E10E94A5250895EF92FF920F93C9
:100D70001F937C0180E00E94B0060027F7FC0095DD
:100D8000102FC801B7010E945F2481E00E94B006C5
:100D90001F910F91FF90EF90089582E090E00E94E4
:100DA000B50662E370E080E090E00E945F2482E09C
:100DB00090E00E94B50668EE73E080E090E00E944B
:100DC0005F24089582E090E00E94B50664E670E03A
:100DD00080E090E00E945F2482E090E00E94B506EF
:100DE00068EE73E080E090E00E945F24089581E067
:100DF0000E94B006089587E160E00E94A5251EBC10
:100E00000DB407FEFDCF8EB587E161E00E94A525F8
:100E10000895EF92FF920F931F937C018BE0B7012F
:100E20000E94082605E117E0C80162E671E00E9411
:100E30009D29C801B7014AE050E00E947E291F9118
:100E40000F91FF90EF900895EF92FF920F931F93F1
:100E50007C018AE0B7010E94082605E117E0C8017D
:100E60006AE671E00E949D29C801B7014AE050E09E
:100E70000E947E291F910F91FF90EF9008950F938C
:100E80001F938C010E942407C8010E9409071F912B
:100E90000F910895813069F48093420480911B047E
:100EA00090911C040E943F0785E197E062E771E0A2
:100EB0000CC0109242048091190490911A040E946F
:100EC0003F0785E197E061E871E00E949A2A089562
:100ED000EF92FF920F931F93CF93DF93EC018091DA
:100EE0004204882319F080E00E944A0700E010E0E5
:100EF000EE24FF24EC1AFD0A10C01C161D0614F483
:100F00005A9A01C05A985998599A8091C803909159
:100F1000C9030E94B8240F5F1F4FCE01D7FDC70140
:100F20000817190754F3DF91CF911F910F91FF908C
:100F3000EF900895EF92FF920F931F93CF93DF935B
:100F4000EC0180914204882319F080E00E944A0756
:100F500000E010E0EE24FF24EC1AFD0A10C01C167D
:100F60001D0614F45C9801C05C9A5B985B9A8091B2
:100F7000C8039091C9030E94B8240F5F1F4FCE0190
:100F8000D7FDC7010817190754F3DF91CF911F91BF
:100F90000F91FF90EF9008952F923F924F925F92A2
:100FA0006F927F928F929F92AF92BF92CF92DF9279
:100FB000EF92FF920F931F93DF93CF93CDB7DEB7DE
:100FC0002A970FB6F894DEBF0FBECDBF6B837C832C
:100FD0008D839E832F83388749875A876090FE03CD
:100FE0007090FF038090000490900104C401B3014D
:100FF0002091150430911604409117045091180463
:101000000E94EF3020E030E040E05FEB0E94EF30E4
:101010001B012C016B817C818D819E81A20191013C
:101020000E94382F9B01AC010E94EF307B018C01A4
:101030006F81788589859A859B01AC010E94EF308C
:101040005B016C01C801B701A60195010E94382F10
:101050000E9456310E9408307A836983C401B3012B
:10106000209108043091090440910A0450910B0426
:101070000E94EF302B813C814D815E810E94372F91
:10108000A20191010E94382F9B01AC010E94EF3018
:101090009B01AC01CA01A60195010E94382F0E9454
:1010A00056310E9408307B0180913E0490913F04AC
:1010B00029813A81281739071CF40FEF1FEF02C06E
:1010C00001E010E0E981FA81E817F90711F400E086
:1010D00010E08091400490914104E816F90624F450
:1010E000CC24CA94DC2C03C021E0C22ED12CE816FB
:1010F000F906E1F4CC24DD2419C0800F911F9093F0
:101100003F0480933E04C8010E949A0780914004E6
:10111000909141048E159F0549F08C0D9D1D909373
:10112000410480934004C6010E94680780913E04F8
:1011300090913F0429813A8182179307F1F68091BB
:101140004004909141048E159F0501F76B817C81CD
:101150008D819E810E94083070933B0460933A0415
:101160006F81788589859A850E94083070933D0447
:1011700060933C042A960FB6F894DEBF0FBECDBF35
:10118000CF91DF911F910F91FF90EF90DF90CF9063
:10119000BF90AF909F908F907F906F905F904F9097
:1011A0003F902F9008952F923F924F925F926F92AF
:1011B0007F928F929F92AF92BF92CF92DF92EF92E7
:1011C000FF920F931F93DF93CF93CDB7DEB76E9748
:1011D0000FB6F894DEBF0FBECDBF6F87788B898BBB
:1011E0009A8B2B8B3C8B4D8B5E8BEF8AF88E098F05
:1011F0001A8FAB8EBC8ECD8EDE8E80E090E0A0E0AC
:10120000B0E08F839887A987BA878B839C83AD834F
:10121000BE838B879C87AD87BE871A82198260E068
:1012200070E080E89FE32B813C814D815E810E94CC
:10123000372F7B018C01A80197010E94EF305B01E1
:101240006C016B817C818D819E819B01AC010E9430
:10125000382FA80197010E94EF301B012C016B81F0
:101260007C818D819E819B01AC010E94EF307B01CE
:101270008C01C601B5012F85388949895A890E9498
:10128000EF303B014C01C201B1012BA93CA94DA992
:101290005EA90E94EF309B01AC01C401B3010E9422
:1012A000382F3B014C01C801B7012F89388D498D7A
:1012B0005A8D0E94EF309B01AC01C401B3010E9422
:1012C000382F3B014C01C601B5012B893C894D8962
:1012D0005E890E94EF305B016C01C201B1012FA950
:1012E00038AD49AD5AAD0E94EF309B01AC01C6014B
:1012F000B5010E94382F5B016C01C801B7012B8D2D
:101300003C8D4D8D5E8D0E94EF309B01AC01C6017E
:10131000B5010E94382F5B016C016B857C858D8542
:101320009E85A40193010E94372F7B018C0120E050
:1013300030E040E050E00E94EB3018165CF4C80149
:10134000B70120E030E040E85FE30E94EB30181680
:1013500094F10AC0C801B70120E030E040E85FEB3B
:101360000E949C2F87FD27C06F81788589859A858B
:10137000A60195010E94372F7B018C0120E030E00F
:1013800040E050E00E94EB3018165CF4C801B70151
:1013900020E030E040E85FE30E94EB3018165CF09C
:1013A00018C0C801B70120E030E040E85FEB0E94C0
:1013B0009C2F882374F4C401B301A60195010E94F7
:1013C000CC07AF82B886C986DA866B867C868D8626
:1013D0009E866B817C818D819E812AE037ED43E280
:1013E0005BE30E94382F6B837C838D839E83A9816E
:1013F000BA811196BA83A983A159B14009F00FCFE0
:101400006E960FB6F894DEBF0FBECDBFCF91DF91C1
:101410001F910F91FF90EF90DF90CF90BF90AF9012
:101420009F908F907F906F905F904F903F902F9004
:1014300008954F925F926F927F928F929F92AF9298
:10144000BF92CF92DF92EF92FF920F931F93DF93A1
:10145000CF9300D000D0CDB7DEB72B013C0129835C
:101460003A834B835C830E9408307B018C01698145
:101470007A818B819C810E9408309B01AC01C7015D
:10148000B9010E947103882339F485E197E064E98A
:1014900071E00E949A2A69C060913A0470913B04FD
:1014A000882777FD8095982F0E943B305B016C0167
:1014B00060913C0470913D04882777FD8095982FBA
:1014C0000E943B307B018C018DB79EB708970FB609
:1014D000F8949EBF0FBE8DBF8DB69EB60894811C3A
:1014E000911CC301B201A60195010E94372F20E093
:1014F00030E040E05FE30E94EF309B01AC01C601A9
:10150000B5010E94382FF401608371838283938335
:1015100069817A818B819C81A80197010E94372F74
:1015200020E030E040E05FE30E94EF309B01AC013F
:10153000C801B7010E94382FF40164837583868344
:101540009783C601B501A801970183017201A980A3
:10155000BA80CB80DC800E94D3088DB79EB70896F6
:101560000FB6F8949EBF0FBE8DBF0F900F900F90D7
:101570000F90CF91DF911F910F91FF90EF90DF902F
:10158000CF90BF90AF909F908F907F906F905F9023
:101590004F900895CF93DF93C0E0D0E009C08FEF64
:1015A0009FEF0E949A078FEF9FEF0E946807219696
:1015B0008DE00E94D825892B91F385E197E065EABB
:1015C00071E00E949A2ACE01DF91CF910895CF93C6
:1015D000DF93C0E0D0E009C081E090E00E949A076C
:1015E0008FEF9FEF0E946807219685E00E94D82523
:1015F000892B91F385E197E068EB71E00E949A2ACC
:10160000CE01DF91CF910895EF92FF920F931F9338
:10161000CF93DF93EC010E949A0785E197E06CEC91
:1016200071E00E949D2985E197E0BE014AE050E00B
:101630000E946B2985E197E063ED71E00E949A2A90
:1016400006C064E670E080E090E00E945F2485E1DF
:1016500097E00E94C126892BA1F30E947C057B01A3
:101660008C01BE01882777FD8095982F0E943B3022
:10167000A80197010E94A02FAB01BC0185E197E072
:1016800022E030E00E94872ADF91CF911F910F91D5
:10169000FF90EF9008958091190490911A040E9490
:1016A0003F0780912304909124040E94AC0480E7BA
:1016B00097E10E94950480E090E060E070E00E9475
:1016C0007D0608952F923F924F925F926F927F9284
:1016D0008F929F92AF92BF92CF92DF92EF92FF9242
:1016E0000F931F93DF93CF9300D000D0CDB7DEB719
:1016F00080E00E944A070E94E20680E090E060E0FD
:1017000070E00E947D065DE1452E54E0552E8091EB
:101710001D0490911E040E94240780911F04909143
:1017200020040E94090780912104909122040E94C4
:10173000AC040E94CA0AA9E1B4E08D919C910E9478
:101740003F0784E690E00E949A070E94E70A7C0126
:1017500045EE242E4FEF342E240C351CF101A080D1
:10176000B18081EE9FEF480E591ED2018D919D915F
:101770000D90BC91A02D89839A83AB83BC8360912B
:101780001004709111046A0D7B1D882777FD8095E8
:10179000982F0E943B3029813A814B815C810E94C5
:1017A000EF303B014C010027F7FC0095102FC801DA
:1017B000B7010E943B309B01AC01C401B3010E9400
:1017C000382F20E030E048EC52E40E94382F0E948D
:1017D00008307B018C0170933F0460933E0480913C
:1017E000120490911304A80EB91ECC24B7FCC09427
:1017F000DC2CC601B5010E943B3029813A814B8126
:101800005C810E94EF300E9408309B01AC01709314
:10181000410460934004C701B9010E94A30535E16A
:10182000C32E37E0D32E60913E0470913F04882789
:1018300077FD8095982F0E943B30F2012081318105
:10184000428153810E94A02F7B018C01D1016D91B7
:101850007C91882777FD8095982F0E943B309B01D3
:10186000AC01C801B7010E94372FAB01BC01C60112
:1018700022E030E00E94872A609140047091410488
:10188000882777FD8095982F0E943B30F2012081B8
:101890003181428153810E94A02F7B018C01D101B3
:1018A0006D917C91882777FD8095982F0E943B3021
:1018B0009B01AC01C801B7010E94372FAB01BC01ED
:1018C000C60122E030E00E94872A60913A047091BC
:1018D0003B04882777FD8095982F0E943B30F201CA
:1018E00020813181428153810E94A02FAB01BC0134
:1018F000C60122E030E00E94872A60913C0470918A
:101900003D04882777FD8095982F0E943B30D201B7
:101910002D913D914D915C910E94A02FAB01BC0196
:10192000C60122E030E00E94872AE9E1F4E08081EC
:1019300091810E943F076091080470910904809191
:101940000A0490910B04D2012D913D914D915C912F
:101950000E94EF3020E030E040E05FE30E94EF3093
:101960009B01AC01CA010E94190A80912304909145
:1019700024040E94AC0481E0809335040F900F9002
:101980000F900F90CF91DF911F910F91FF90EF90EB
:10199000DF90CF90BF90AF909F908F907F906F908F
:1019A0005F904F903F902F900895EF92FF920F938A
:1019B0001F93F89485E994E067EE71E041E00E949E
:1019C0002720882341F485E197E061EF71E00E94D0
:1019D0009A2A789446C085E197E066E072E00E941A
:1019E0009A2AEE24FF24870105C00894E11CF11C0B
:1019F000011D111D85E994E00E94181C1816190696
:101A0000A4F3C801B701807090700E9439306093D0
:101A10004504709346048093470490934804B801AA
:101A2000882799270E9439306093490470934A04AB
:101A300080934B0490934C0485E197E060E172E061
:101A40000E949D2985E197E0B801A7012AE030E0D6
:101A50000E94B72885E994E00E94FB1A78940E94BE
:101A6000FB061F910F91FF90EF900895CF93DF93A6
:101A7000EC01F89485E994E067EE71E043E60E949A
:101A80002720882341F485E197E068E172E00E9415
:101A90009A2A78941AC085E197E06EE272E00E947B
:101AA0009D2981E994E0BE014AE050E00E947E2930
:101AB00085E994E00E94FB1A85E197E065E472E015
:101AC0000E949A2A78940E94FB06DF91CF91089594
:101AD000F8948091500490915104892B89F485E900
:101AE00094E06BE472E043E50E9427208823C9F468
:101AF00085E197E068E172E00E949A2A789408955F
:101B000085E994E06BE472E043E60E942720882395
:101B100041F485E197E068E172E00E949A2A7894A6
:101B2000089581E994E063E474E04AE050E00E94A3
:101B3000362385E994E00E94FB1A78940E94FB0604
:101B400085E197E068E572E00E949A2A089585E1B0
:101B500097E06DE572E00E949A2A83E594E066E1E1
:101B600048E00E94F222882329F485E197E065E6A7
:101B700072E004C085E197E068E572E00E949A2A6D
:101B80000895AF92BF92CF92DF92EF92FF920F93A0
:101B90001F93CF93DF93EC0180913504882391F458
:101BA0008981833679F0863669F085E197E064E7CC
:101BB00072E00E949A2A85E197E063E872E00E9451
:101BC0009A2A08C38981992787FD9095A92FB92F53
:101BD000FC01E156F040EA31F10508F0E2C2EA5AB0
:101BE000FF4FEE0FFF1F0590F491E02D09946A81DD
:101BF0007B818C819D810E940830DC01CB010E9499
:101C00009504D5C26A817B818C819D810E940830B8
:101C1000DC01CB010E94040BCAC20E94620B38C0D7
:101C20006A817B818C819D8120E030E040E050E042
:101C30000E949C2F882319F466E872E002C06DE8C8
:101C400072E085E197E00E949A2A6A817B818C810B
:101C50009D8120E030E040E050E00E949C2F8823EE
:101C600019F00E94CD0602C00E94E20685E197E0CD
:101C700063E872E00E949A2A6A817B818C819D814F
:101C80000E940D306093520492C281E00E94F510D0
:101C900085E197E063E872E088C2E090FE03F0908F
:101CA000FF030091000410910104C801B7012A81CB
:101CB0003B814C815D810E94EF300E94083070931F
:101CC0003F0460933E04C801B7012E813F814885DF
:101CD00059850E94EF300E94083070934104609350
:101CE000400485E197E066E972E00E949A2A6091DB
:101CF00040047091410480913E0490913F040E9401
:101D0000A30581E080933504C3CFE090FE03F090FB
:101D1000FF030091000410910104C801B7012A815A
:101D20003B814C815D810E94EF305B016C01C801F9
:101D3000B7012E813F81488559850E94EF309B0174
:101D4000AC01C601B5010E94190AA2CF80E09ECF66
:101D50006A817B818C819D810E9408307B018C018E
:101D60006E817F81888599850E9408309B01AC0136
:101D7000C701B9010E947D068BCF0E94100588CF54
:101D800085E197E063E872E00E949A2A0E94C70406
:101D90007FCF6A817B818C819D810E940830DC012C
:101DA000CB010E949A076E817F81888599850E9468
:101DB0000830DC01CB010E9468076ACF6A817B8111
:101DC0008C819D810E940830DC01CB010E94AC0413
:101DD0006E817F81888599850E940830DC01CB0166
:101DE0000E943F076E817F81888599850E94083017
:101DF00070931A04609319044BCF85E197E068EA69
:101E000072E00E949D2960913A0470913B048827FA
:101E100077FD8095982F0E943B302091FE033091F2
:101E2000FF0340910004509101040E94A02FAB01D8
:101E3000BC0185E197E022E030E00E94872A85E13D
:101E400097E06CEA72E00E949D2960913C047091D9
:101E50003D04882777FD8095982F0E943B30209184
:101E6000FE033091FF0340910004509101040E9451
:101E7000A02FAB01BC0185E197E022E030E00E9499
:101E8000872A85E197E060EB72E00E949D296091CE
:101E90003E0470913F04882777FD8095982F0E941B
:101EA0003B302091FE033091FF034091000450919C
:101EB00001040E94A02F7B018C01609102047091AB
:101EC0000304882777FD8095982F0E943B309B0163
:101ED000AC01C801B7010E94372FAB01BC0185E1FD
:101EE00097E022E030E00E94872A85E197E061ECEC
:101EF00072E00E949D2960914004709141048827FE
:101F000077FD8095982F0E943B302091FE03309101
:101F1000FF0340910004509101040E94A02F7B0117
:101F20008C016091020470910304882777FD8095ED
:101F3000982F0E943B309B01AC01C801B7010E9461
:101F4000372FAB01BC0185E197E022E030E00E9431
:101F5000872A80915204882319F462ED72E002C04E
:101F60006AED72E085E197E00E949A2A85E197E0A8
:101F700064EE72E00E949D2940913604509137042E
:101F8000609138047091390485E197E02AE030E0EF
:101F90000E94572960913A0470913B04882777FD8D
:101FA0008095982F0E943B302091FE033091FF03D3
:101FB00040910004509101040E94A02F6A837B830A
:101FC0008C839D8360913C0470913D04882777FD4C
:101FD0008095982F0E943B302091FE033091FF03A3
:101FE00040910004509101040E94A02F6E837F83D2
:101FF000888799874DCE85E197E065EF72E0D5C07F
:1020000081E080934D0410925104109250046A8133
:102010007B818C819D810E940D3070934F04609371
:102020004E0485E197E06EEF72E00E949A2A30CE6E
:102030006A817B818C819D810E940D3060932E048A
:1020400085E197E06AE173E00E949D2985E197E0D0
:1020500060912E044AE050E00E94F928A8C0EA806E
:10206000FB800C811D81C801B70120E030E040E019
:1020700050E00E94EB30181644F4E092FE03F09218
:10208000FF03009300041093010485E197E066E2EA
:1020900073E00E949D294091FE035091FF036091DF
:1020A00000047091010485E197E022E030E00E9495
:1020B000872A85E197E063E373E00E949D294091C0
:1020C00008045091090460910A0470910B0485E1A1
:1020D00097E022E030E00E94872A85E197E067E3FD
:1020E00073E00E949D2940910C0450910D04609171
:1020F0000E0470910F0485E197E022E030E00E9429
:10210000872A85E197E06BE373E00E949D29609147
:1021100004047091050485E197E04AE050E00E94D4
:102120007E2985E197E068E473E00E949D29609133
:1021300006047091070485E197E04AE050E00E94B0
:102140007E29A6CD6A817B818C819D810E94083089
:10215000DC01CB010E94360D0E94D50C28C080E026
:102160000E943A2385E197E066E573E00E949A2A8F
:102170000E94D3121CC06A817B818C819D8120E0EA
:1021800030E040E050E00E949C2F882311F462EC84
:1021900001C06CE285E10E94A5257ACD0E94A70DC1
:1021A00006C085E197E063E673E00E949A2A809179
:1021B000360490913704A0913804B0913904019607
:1021C000A11DB11D8093360490933704A093380469
:1021D000B0933904DF91CF911F910F91FF90EF9051
:1021E000DF90CF90BF90AF900895BF92CF92DF92D3
:1021F000EF92FF920F931F93DF93CF93CDB7DEB78C
:102200002A970FB6F894DEBF0FBECDBFB82EF89454
:1022100085E994E06BE472E041E00E942720882386
:1022200041F0EE24FF2487016E010894C11CD11CEB
:102230001DC085E197E061EF71E00E949A2A7894D1
:102240004FC0C6010E943305BB2059F085E197E0DD
:102250006FE673E00E949A2A7894C6010E94C10D2D
:10226000F8940894E11CF11C011D111D85E994E00E
:10227000B6014AE050E00E94051B181619060CF33F
:10228000C801B701807090700E9439306093450496
:10229000709346048093470490934804B8018827BC
:1022A00099270E9439306093490470934A048093BF
:1022B0004B0490934C0485E994E00E94FB1A7894B7
:1022C0000E94FB0685E197E065E773E00E949D2987
:1022D00085E197E0B801A7012AE030E00E94B72825
:1022E0002A960FB6F894DEBF0FBECDBFCF91DF9117
:1022F0001F910F91FF90EF90DF90CF90BF900895C6
:1023000086E00E94D825892B11F40E94620B85E299
:1023100094E064EF71E00E94F312882359F060E0CA
:1023200080912D04882309F461E060932D0487E0F7
:102330000E94A52585E197E00E94C126181619067E
:102340000CF585E197E00E94E826809344040E9402
:102350007C056093450470934604809347049093F2
:1023600048040E947C056093490470934A0480935A
:102370004B0490934C0481E080932B0485E197E01B
:102380000E944A2780912B04882309F463C010928D
:102390002B0480914D04882309F44BC080914404A0
:1023A000833731F510924D0485E197E065E873E0DD
:1023B0000E949A2A80E00E94F5106091500470916A
:1023C000510480914E0490914F04681B790B85E174
:1023D00097E04AE050E00E94DC2885E197E063E85E
:1023E00072E00E949A2A10924F0410924E0425C067
:1023F0000E94680D85E197E066E973E00E949D29DF
:1024000060915004709151046F5F7F4F709351043D
:10241000609350046150704085E197E04AE050E0DD
:102420000E94DC2885E197E063E872E00E949A2A26
:1024300004C083E494E00E94C10D81E080932C04E9
:102440000E945124609331047093320480933304CA
:10245000909334040E94512420913104309132042D
:102460004091330450913404621B730B840B950B21
:10247000615D77408040904038F08091420488232D
:1024800019F481E00E944A0708950F931F930E9458
:10249000290405E117E0C80160E071EE0E94C02642
:1024A000C80167EA73E00E949D29C8016091140485
:1024B0004AE050E00E94F92887E061E00E94182578
:1024C00087E061E00E94A52585E161E00E94182572
:1024D00080E00E94B00688E061E00E94182589E053
:1024E00061E00E9418258AE061E00E9418258BE0D7
:1024F00061E00E94182584E061E00E94182580E0D8
:1025000061E00E94182581E061E00E94182582E0C8
:1025100061E00E94182586E060E00E94182586E0B0
:1025200061E00E94A52581E161E00E94182586E115
:1025300061E00E94182587E161E00E94182586E18C
:1025400061E00E94A52587E161E00E94A5258DE05C
:1025500060E00E9418258DE061E00E94A52585E0DD
:1025600060E00E94182585E061E00E94A5250E9498
:102570004B0B0E94F7060E94A70D1F910F91089523
:10258000F999FECF72BD61BDF89A80B50895F999A9
:10259000FECF1FBA72BD61BD40BD0FB6F894FA9A66
:1025A000F99A0FBE08958CB58F7B8CBD08950F935B
:1025B0001F93CF93DF938C01EB0180E061157105D0
:1025C00009F081E0F8018283882341F00E945124C0
:1025D0002197C60FD71FF801D183C083DF91CF9118
:1025E0001F910F910895EF92FF920F931F93CF9336
:1025F000DF93EC017B018A81882311F400E00FC096
:10260000088119810E945124C801861B970B2AEE6C
:102610008136920710F400E006C0082F0195CE0124
:10262000B7010E94D712802FDF91CF911F910F9198
:10263000FF90EF9008958FEF9FEFAFEFBFEF809384
:10264000B1069093B206A093B306B093B40610926D
:10265000B50608950F931F938C01CB01BA01625008
:10266000704080409040F801248130E040E050E02C
:102670000E94BB319B01AC01F80186859785A0893A
:10268000B189280F391F4A1F5B1FB901CA011F9169
:102690000F9108958091B50680FF3EC04091B1062C
:1026A0005091B2066091B3067091B4068091BA065B
:1026B0009091BB0621EB34E00E940E21882371F13A
:1026C0008091B50681FF23C04091B6065091B706B0
:1026D0006091B8067091B906411551056105710503
:1026E000B1F08091B1069091B206A091B306B0917D
:1026F000B406480F591F6A1F7B1F8091BA0690913C
:10270000BB0621EB34E00E940E21882339F0809132
:10271000B5068E7F8093B50681E0089580E0089528
:102720000E944A130895DF92EF92FF920F931F9336
:102730007B018C01D42E8091B1069091B206A091BC
:10274000B306B091B4068E159F05A007B107E1F05E
:102750000E944A13882311F1D2FC0CC08091BA0662
:102760009091BB06B801A70121EB34E00E94CA2179
:102770008823A1F01092B506E092B106F092B2065D
:102780000093B3061093B40683E0D8228091B50677
:102790008D298093B50621EB34E002C020E030E0C3
:1027A000C9011F910F91FF90EF90DF9008956F92F4
:1027B0007F928F929F92AF92BF92CF92DF92EF92D1
:1027C000FF920F931F93CF93DF935C01142F7093AD
:1027D000BB066093BA06DC0157961C9282E090E03B
:1027E000A0E0B0E0F50180839183A283B3831092CF
:1027F000B5068FEF9FEFAFEFBFEF8093B1069093D9
:10280000B206A093B306B093B4061092B606109227
:10281000B7061092B8061092B906442321F4662434
:102820007724430144C0453008F022C160E070E0E5
:1028300080E090E040E00E949313EC01009709F4DF
:1028400017C1412F50E041505040FA0174E0EE0FA3
:10285000FF1F7A95E1F7E80FF91FE254FE4F8081E0
:10286000EE5BF14090E08F779070892B09F000C10A
:10287000E653FE4F80819181A281B3818436910518
:10288000A105B10508F4F4C064E0440F551F6A9532
:10289000E1F7C40FD51FCA53DE4F688079808A8064
:1028A0009B80611471048104910409F4E1C0C401A6
:1028B000B30140E00E949313EC01009709F4D8C0E3
:1028C0008B859C858050924009F0D2C06889662330
:1028D00009F4CEC0EE85FF85309709F4C9C08D8517
:1028E000882309F4C5C0D50152966C93529714966B
:1028F0008C9314971D961C9201E010E008C04F5F66
:10290000D5011D964C934150483008F0B1C0D50117
:102910001D964C911D9714968C9190E09801042E71
:1029200002C0220F331F0A94E2F78217930739F788
:102930008E899F89009721F09C0140E050E004C0FF
:102940002CA13DA14EA15FA1D50115962D933D93DC
:102950004D935C93189752968C91882341F0209365
:10296000B6063093B7064093B8065093B9066F0188
:10297000EE24FF24C60CD71CE81CF91CF501C38A01
:10298000D48AE58AF68A09891A89118F008F70E046
:1029900080E090E025813681478150850E94BB31DF
:1029A0006C0D7D1D8E1D9F1DD5015A966D937D93D7
:1029B0008D939C935D9735E0000F111F3A95E1F7D9
:1029C00001501E4F012F11270695980140E050E05D
:1029D000260F371F481F591FF50126873787408B61
:1029E000518B8B899C89009721F07C0100E010E0DD
:1029F00004C0E8A0F9A00AA11BA1C401B301621B95
:102A0000730B840B950B6E0D7F1D801F911FD501DD
:102A10001D960C901D9704C09695879577956795A0
:102A20000A94D2F7F5016187728783879487653F9F
:102A3000FFE07F07F0E08F07F0E09F0720F48CE0D5
:102A400057968C9315C0655F7F4F8040904018F477
:102A500080E1F5010AC08CA59DA5AEA5BFA5F50135
:102A6000828F938FA48FB58F80E2878B81E001C026
:102A700080E0DF91CF911F910F91FF90EF90DF9059
:102A8000CF90BF90AF909F908F907F906F90089560
:102A900042600E94931308958F929F92AF92BF92CB
:102AA000CF92DF92EF92FF920F931F93CF93DF931A
:102AB000EC016A017B014801590142305105610571
:102AC000710508F44BC089859A85AB85BC85019654
:102AD000A11DB11D84179507A607B70708F43EC0CE
:102AE0008F89803129F4252F362F472F55270BC08A
:102AF0008032A1F59A01AB0117E0569547953795BD
:102B000027951A95D1F78B899C89AD89BE89280FA5
:102B1000391F4A1F5B1FCA01B90141E00E944815D5
:102B20009C010097D9F08F89803149F4F601F0704B
:102B3000EE0FFF1FE20FF31F918280820DC0F6019E
:102B4000EF77F070EE0FFF1FEE0FFF1FE20FF31F86
:102B500080829182A282B38281E001C080E0DF9115
:102B6000CF911F910F91FF90EF90DF90CF90BF908A
:102B7000AF909F908F900895CF92DF92EF92FF9247
:102B80000F931F93CF93DF93EC017A018B016901BF
:102B9000423051056105710508F453C089859A8555
:102BA000AB85BC850196A11DB11D84179507A607AD
:102BB000B70708F446C08F89803129F45527412F83
:102BC000302F2F2D0BC08032E1F59A01AB0167E069
:102BD00056954795379527956A95D1F78B899C89A6
:102BE000AD89BE89280F391F4A1F5B1FCA01B90171
:102BF00040E00E9448159C01009719F18F898031AF
:102C000059F4F701F070EE0FFF1FE20FF31F808100
:102C10009181A0E0B0E00EC0F701EF77F070EE0F09
:102C2000FF1FEE0FFF1FE20FF31F80819181A28132
:102C3000B381BF70F60180839183A283B38381E067
:102C400001C080E0DF91CF911F910F91FF90EF9035
:102C5000DF90CF900895AF92BF92CF92DF92EF9224
:102C6000FF920F931F93DF93CF9300D000D0CDB787
:102C7000DEB76C017A018B0182E090E0A0E0B0E069
:102C8000F60180839183A283B3835E010894A11C23
:102C9000B11CC601B801A70195010E94BC1588238B
:102CA00041F1C601B801A70100E010E020E030E0EA
:102CB0000E944C158823E9F0E980FA800B811C8181
:102CC000F6018789803151F4F8EFEF16FFEFFF0628
:102CD000F0E00F07F0E01F07E0F209C088EFE81608
:102CE0008FEFF8068FEF08078FE0180790F281E06A
:102CF00001C080E00F900F900F900F90CF91DF9167
:102D00001F910F91FF90EF90DF90CF90BF90AF9009
:102D100008952F923F924F925F926F927F928F927F
:102D20009F92AF92BF92CF92DF92EF92FF920F935A
:102D30001F93DF93CF93CDB7DEB72F970FB6F894DD
:102D4000DEBF0FBECDBF1C014A875B876C877D87C6
:102D50003F872E87DC0119968D919D910D90BC9136
:102D6000A02D0196A11DB11D8E839F83A887B987D1
:102D7000F90100811181228133810115110521059D
:102D8000310549F0480159010894811C911CA11C8E
:102D9000B11C1D8210C0D1018D909D90AD90BC9052
:102DA0001D828A859B85AC85BD850197A105B105EE
:102DB00011F491E09D83750164014424552432018E
:102DC0008E010F5F1F4FF10181859285A385B48528
:102DD000481659066A067B0608F090C08E819F81CE
:102DE000A885B9858C159D05AE05BF0550F4F2E0A8
:102DF0008F2E912CA12CB12CE2E0CE2ED12CE12CE7
:102E0000F12CC101B701A60198010E94BC158823CD
:102E100009F474C089819A81AB81BC81A7019601B4
:102E20002F5F3F4F4F4F5F4F0097A105B10519F03E
:102E300049015A010DC0281939094A095B098A85D7
:102E40009B85AC85BD85281739074A075B0759F074
:102E50000894411C511C611C711C0894C11CD11C9C
:102E6000E11CF11CB0CFC101A601B7010FEF1FEFAC
:102E70002FEF3FE00E944C15882399F43FC02601B4
:102E8000370108944108510861087108C101B30174
:102E9000A201970186010E944C15882379F17301E4
:102EA00062018C149D04AE04BF0448F3AE85BF8557
:102EB0004D915D916D917C914115510561057105B3
:102EC00039F0C101950184010E944C158823B1F0AD
:102ED000EE85FF8580829182A282B382FD81FF23ED
:102EE00059F00894811C911CA11CB11CD1018D9238
:102EF0009D92AD92BC92139781E001C080E02F9625
:102F00000FB6F894DEBF0FBECDBFCF91DF911F91FA
:102F10000F91FF90EF90DF90CF90BF90AF909F9078
:102F20008F907F906F905F904F903F902F9008957B
:102F30000F931F93CF93DF93DC01EB018A0180E0B5
:102F400090E020E2FE01E80FF91F208301968B300C
:102F50009105C1F757E040E024C0622F2E3219F0EE
:102F600080EE90E007C05A3051F15AE048E018C0B6
:102F7000321729F1FC01019634913323C9F7541714
:102F8000F0F02132E0F02F37D0F4822F81568A31D1
:102F900010F4622F6052FE01E40FF11D60834F5F59
:102FA00011962C91222311F02F32B9F6F801B1833A
:102FB000A08390E08881803219F091E001C090E018
:102FC000892FDF91CF911F910F910895CF92DF92BA
:102FD000EF92FF920F931F93DF93CF9300D000D017
:102FE000CDB7DEB77C01FC018789908DA18DB28DB4
:102FF00089839A83AB83BC8300E010E06E01089460
:10300000C11CD11C49815A816B817C81D7011596E5
:103010008D919C91169796010E94BC15882379F199
:10302000D7011596ED91FC9116978481080F111D1B
:10303000B0E100301B0718F529813A814B815C8192
:103040008789803131F4285F3F4F40405040D0F2B3
:1030500005C0285F3F4F4F4F5F40A0F2C801A0E07E
:10306000B0E029E0880F991FAA1FBB1F2A95D1F74E
:10307000F701838B948BA58BB68B81E001C080E038
:103080000F900F900F900F90CF91DF911F910F91A4
:10309000FF90EF90DF90CF900895CF93DF93EC01F6
:1030A000FB018B818823D1F57E836D8387898031F5
:1030B000C9F582E08B831F8A188E198E1A8E808D37
:1030C000918DA0E0B0E035E0880F991FAA1FBB1FCB
:1030D0003A95D1F78B8B9C8BAD8BBE8B0FC083E069
:1030E0008B83828D938DA48DB58D8F8B988FA98FB7
:1030F000BA8FCE010E94E617882381F081E0898390
:103100001F82188619861A861B861C861D861E86B7
:103110001F86188A198A1A8A1C8201C080E0DF91F2
:10312000CF9108958032D1F7DACF6F927F928F924C
:103130009F92AF92BF92CF92DF92EF92FF920F9346
:103140001F93CF93DF93EC017A018B012B81222314
:1031500009F480C08B899C89AD89BE898417950745
:10316000A607B70708F476C085C0E114F10401058D
:10317000110551F41F82188619861A861B861C8633
:103180001D861E8681E067C02B853C854D855E854A
:10319000ED81FE81858590E00996215030404040C8
:1031A000504039014A01082E04C0969487947794C0
:1031B00067940A94D2F72F5F3F4F4F4F5F4F0894A9
:1031C000E108F108010911095701680104C0D6940A
:1031D000C794B794A7948A95D2F70894E11CF11C80
:1031E000011D111DA614B704C804D90428F0211527
:1031F00031054105510549F48F89988DA98DBA8D06
:103200008F839887A987BA8716C0A618B708C808F9
:10321000D90811C04F81588569857A858D819E8135
:1032200094010E94BC150894A108B108C108D108F6
:10323000882331F40FC047E0842E912C8C0E9D1E04
:10324000A114B104C104D10429F7EB86FC860D87D3
:103250001E8798CF80E0DF91CF911F910F91FF9053
:10326000EF90DF90CF90BF90AF909F908F907F9026
:103270006F900895223009F078CFE7CFCF93DF9396
:10328000EC01462F6F85788989899A890E9493136A
:10329000AC01009719F420E030E00AC08C81282F9F
:1032A00030E065E0220F331F6A95E1F7240F351FE8
:1032B000C901DF91CF9108950F931F93CF93DF93AF
:1032C0008C01FC0183818823E1F1818187FF36C075
:1032D000C80161E00E943E19EC01009791F18881DC
:1032E000853E79F1F8018381823040F483899489A5
:1032F000A589B6898C8F9D8FAE8FBF8FF801878986
:10330000908DA18DB28D9B8F8A8FCD01AA27BB276F
:103310009D8B8C8BE091BE06F091BF06309751F0EB
:10332000BE016A5E7F4FCE0148960995888D998DC2
:103330009B8B8A8BF80181818F7781830E944A134E
:1033400004C081E0F801808380E0DF91CF911F917C
:103350000F9108956F927F928F929F92AF92BF923A
:10336000CF92DF92EF92FF920F931F93DF93CF9351
:1033700000D000D0CDB7DEB77C015A016B01DC0173
:1033800013968C911397813009F091C011968C910E
:1033900081FF8DC0A0C00097A105B10511F481E0A7
:1033A00087C0F7016384748485849684C701B6015D
:1033B000A5010E949518882309F479C0D7011596B4
:1033C0008D919C911697A114B104C104D10489F484
:1033D00057964D915D916D917C915A970E942B1655
:1033E000882309F464C0F701178A108E118E128E9B
:1033F00044C0D70117964D915D916D917C911A97BC
:103400009E012F5F3F4F0E94BC15882309F44FC0D7
:10341000D7011596ED91FC91169749815A816B81E0
:103420007C818789803149F4483FBFEF5B07B0E07A
:103430006B07B0E07B0748F020C0483F8FEF58078C
:103440008FEF68078FE07807C0F4CF010E942B163A
:10345000882369F1D70117964D915D916D917C910B
:103460001A9715968D919C9116970FEF1FEF2FEFDE
:103470003FE00E944C158823D1F0F701A38AB48A5B
:10348000C58AD68A818180688183C7010E945C19C0
:10349000882369F0B601A5016A147B048C049D049D
:1034A00010F4B401A301C7010E94951801C080E087
:1034B0000F900F900F900F90CF91DF911F910F9170
:1034C000FF90EF90DF90CF90BF90AF909F908F9044
:1034D0007F906F900895F70183899489A589B689B3
:1034E00084179507A607B70708F055CFE0CF1F93BD
:1034F000CF93DF93EC01142F262F30E0F90185E004
:10350000EE0FFF1F8A95E1F7EF54FB4F8385817122
:1035100021F0842F827109F064C08091B1069091EE
:10352000B206A091B306B091B4068F87988BA98B91
:10353000BA8B6C83F901B5E0EE0FFF1FBA95E1F786
:10354000EF54FB4F2489358940E050E0A90133272F
:1035500022272F8B388F498F5A8F828D938DA0E031
:10356000B0E0282B392B4A2B5B2B2F8B388F498FC0
:103570005A8F838590E088719070009751F4848D04
:10358000958DA68DB78D8B8B9C8BAD8BBE8B81E083
:1035900008C0409731F5CE010E94E617882309F153
:1035A00084E08B83812F8F7089831F821886198610
:1035B0001A861B861C861D861E8614FF18C0CE0127
:1035C00040E050E060E070E00E94AA19882379F49E
:1035D00008C04B895C896D897E89CE010E9495184F
:1035E00002C01B8280E0DF91CF911F91089515FDED
:1035F000F0CF81E0F8CF0F931F938C010E945C19EC
:10360000F80113821F910F9108952F923F924F92CC
:103610005F926F927F928F929F92AF92BF92CF9262
:10362000DF92EF92FF920F931F93DF93CF9300D01F
:10363000CDB7DEB74C011A01DC0113968C911397BC
:10364000882309F4B4C011968C9180FFB0C0C7C024
:1036500015012E183F082B01F4013796FA83E983F0
:1036600031019FC0D4011B962D913D914D915C91EC
:103670001E979FEFA92E91E0B92EA222B322159694
:10368000ED91FC91169779018A0189E016950795CD
:10369000F794E7948A95D1F7948113968C918230B0
:1036A00049F4428D538D648D758D4E0D5F1D601FE5
:1036B000711F35C0D92EDA94DE20A114B10401F5B2
:1036C000DD20F1F4211531054105510551F4F401D6
:1036D0008789908DA18DB28D87839087A187B287CE
:1036E0000FC0D40117964D915D916D917C911A9701
:1036F000CF0129813A810E94BC15882309F457C063
:10370000F4014781508561857285858196810E948B
:103710002A13AB01BC014D0D511D611D711DA1147A
:10372000B10499F4F0E06F16F2E07F0670F080913A
:10373000B1069091B206A091B306B091B4064817B5
:1037400059076A077B0709F067C0CB01BA0140E05F
:103750000E949313009759F140E052E04A195B0927
:1037600083014615570508F48A019C012A0D3B1D6B
:10377000C201B901A8010E94F001400E511E98013A
:1037800040E050E0F40183859485A585B685820FDD
:10379000931FA41FB51F83879487A587B687601AD8
:1037A000710A6114710409F05DCFA10102C04FEFED
:1037B0005FEFCA010F900F90CF91DF911F910F9192
:1037C000FF90EF90DF90CF90BF90AF909F908F9041
:1037D0007F906F905F904F903F902F900895D4010D
:1037E0005396AD90BD90CD90DC9056971B96ED9082
:1037F000FD900D911C911E979A0140E050E0D6017A
:10380000C5018E199F09A00BB10B281739074A076C
:103810005B0708F01DCF1FCF8091BA069091BB06C1
:1038200092010E94CA21882311F200E012E0A5CF84
:10383000DF93CF930F92CDB7DEB7BE016F5F7F4F9F
:1038400041E050E00E94051B019719F02FEF3FEF78
:1038500003C08981282F30E0C9010F90CF91DF91FB
:103860000895EF92FF920F931F93CF93DF93EC0194
:103870008B81823038F1EB84FC840D851E85CE016E
:103880000E94181C97FD1EC08B859C85AD85BE854A
:103890004F96A11DB11D8B879C87AD87BE8755E0D4
:1038A00016950795F794E7945A95D1F72E2D30E0A9
:1038B0002F70307045E0220F331F4A95E1F72F54E7
:1038C0003B4F02C020E030E0C901DF91CF911F9152
:1038D0000F91FF90EF900895CF93DF93EC019C013F
:1038E000295F3F4F8D819E8141E050E060E070E0B4
:1038F0000E9489168823A1F08F89988DA98DBA8D91
:103900000097A105B10559F48F819885A985BA85DD
:103910008F8B988FA98FBA8F89818068898381E086
:10392000DF91CF9108952F923F924F925F926F92C5
:103930007F929F92AF92BF92CF92DF92EF92FF92CF
:103940000F931F93DF93CF9300D000D0CDB7DEB796
:103950006C01162F072F1A01DC0113968C91139717
:10396000813009F046C111968C9181FF42C15DC141
:10397000F601438954896589768983859485A5856F
:10398000B68584179507A607B70731F0C6010E94D0
:103990009518882309F42DC1812F902F9C012901AE
:1039A0003101EDC0D6011596ED91FC911697DA0123
:1039B000C90169E0B695A795979587956A95D1F75E
:1039C00094809A9498225FEFA52E51E0B52EA22202
:1039D000B322992009F052C0A114B10409F04EC0DD
:1039E000D60117964D915D916D917C911A97411575
:1039F00051056105710571F1CF019E012F5F3F4FA8
:103A00000E94BC15882309F4F4C029813A814B81B6
:103A10005C81D6011596ED91FC91169787898031CE
:103A200049F4283FBFEF3B07B0E04B07B0E05B072E
:103A300048F019C0283FEFEF3E07EFEF4E07EFE0E9
:103A40005E0788F4D60117962D933D934D935C93B2
:103A50001A9714C0F6018789908DA18DB28D0097B9
:103A6000A105B10531F4C6010E946C1C882331F414
:103A7000C0C0F60187839087A187B287D6011796C9
:103A80004D915D916D917C911A9715968D919C91B8
:103A900016970E942A137B018C01E90CF11C011D71
:103AA000111DA114B104A9F4B0E06B16B2E07B06BD
:103AB000A8F5F60123853485458556858389948943
:103AC000A589B689281739074A075B0710F045E032
:103AD00001C041E0C801B7010E949313009709F4A7
:103AE00088C040E052E04A195B098301461557053A
:103AF00008F48A019C012A0D3B1DC901B201A801ED
:103B00000E94F001A00EB11EF0E0AF16F2E0BF0679
:103B100011F50E9490138823F1F46BC08091B106D7
:103B20009091B206A091B306B091B4068E159F0590
:103B3000A007B10711F40E941B138091BA0690915F
:103B4000BB06B801A70192010E940E21882309F447
:103B500050C000E012E0980140E050E0F60183859B
:103B60009485A585B685820F931FA41FB51F8387F3
:103B70009487A587B687400E511E601A710AD60138
:103B80001B962D913D914D915C911E97611471048E
:103B900009F008CF53968D919D910D90BC91A02D69
:103BA00082179307A407B50748F4F601238B348BDB
:103BB000458B568B81818068818310C08091BE06C1
:103BC0009091BF06892B51F02114310439F0D601B0
:103BD00011968C911197806811968C93F6018181D2
:103BE00083FF05C0C6010E945C19882311F0A10162
:103BF00005C081E0D6018C934FEF5FEFCA010F90B3
:103C00000F900F900F90CF91DF911F910F91FF9028
:103C1000EF90DF90CF90BF90AF909F907F906F908C
:103C20005F904F903F902F90089582FDA1CEB4CE2B
:103C30009F92AF92BF92CF92DF92EF92FF920F933B
:103C40001F93CF93DF938C01FC0183899489A5890D
:103C5000B689805E9F4FAF41B04008F05CC0C8019C
:103C60000E946C1C882309F456C0D80117964D9108
:103C70005D916D917C911A9715968D919C911697F7
:103C80000E942A135B016C0145E00E949313EC0132
:103C9000009709F442C080E092E0FE019C0111927D
:103CA00021503040E1F79C2EED2EFF24F39411C0FB
:103CB000B601A5014F0D511D611D711D8091BA0600
:103CC0009091BB06292D3E2D0E940E21882319F1CB
:103CD000F394D8011596ED91FC9116972481F21674
:103CE00038F330E040E050E079E0220F331F441F0A
:103CF000551F7A95D1F753968D919D910D90BC915A
:103D0000A02D820F931FA41FB51FF801838B948BE6
:103D1000A58BB68B02C0C0E0D0E0CE01DF91CF9181
:103D20001F910F91FF90EF90DF90CF90BF90AF90D9
:103D30009F9008958F929F92AF92BF92CF92DF9201
:103D4000EF92FF920F931F93CF93DF936C01EB01E0
:103D5000942E852EA22E8D819E81F60196838583D9
:103D6000CB0140E050E060E070E00E949518BB2479
:103D700034C0CE010E94311CFC01009709F48EC0B2
:103D8000A5E016950795F794E794AA95D1F71E2D0F
:103D90001F702081222311F0253EA9F4BB2081F45D
:103DA0008091B1069091B206A091B306B091B4068D
:103DB000F6018787908BA18BB28B1483BB24B394BD
:103DC000222359F418C0892D982DBF014BE050E0F3
:103DD0000E94E301009709F46FC0EB84FC840D8519
:103DE0001E858B899C89AD89BE89E816F9060A076C
:103DF0001B0708F4BECFA6FE51C0A1FE4FC0BB20DA
:103E000051F0F6011481C60161E00E943E19EC01F7
:103E1000009761F443C08B81823009F43FC0CE012A
:103E20000E94181E0097D1F1EC0110E080E2FE0123
:103E300011928A95E9F7DE01292D382DC901FC017F
:103E40008BE001900D928150E1F7E091BE06F09178
:103E5000BF06309739F0BE01625F7F4FCE014096BA
:103E6000099508C081E298E2998B888B80E098E000
:103E70009F878E87888999899B8B8A8B998F888F5A
:103E80008E859F859F8B8E8B0E944A13882331F0ED
:103E9000C601612F4A2D0E94771A01C080E0DF9190
:103EA000CF911F910F91FF90EF90DF90CF90BF9037
:103EB000AF909F908F900895A7FEEACFEFCF2F92FB
:103EC0003F924F925F926F927F928F929F92AF92AA
:103ED000BF92CF92DF92EF92FF920F931F93DF93E7
:103EE000CF93CDB7DEB7C654D0400FB6F894DEBF3F
:103EF0000FBECDBF3C016B01DE01AE5BBF4F119623
:103F00005C934E9325962FAF25976115710509F4A3
:103F100083C01F861AA6FC018381882309F07CC018
:103F20001C861FA2FA0180818F32F1F086019CE08D
:103F3000E92EF12CEC0EFD1E82E4A82EB12CAC0E65
:103F4000BD1E4E010894811C911C2796FFAEEEAE5B
:103F50002797B7E22B2E312C2C0E3D1E270124C0B3
:103F60001196B183A08301C0FD01A081B1818C9124
:103F70008F32B1F3D60113968C9113978250823011
:103F8000A8F28E01095D1F4F15966D917C911697D1
:103F9000C8010E944D18882351F63EC0342D252DAE
:103FA0008701832F922F7C01F50180819181B401DB
:103FB000A5010E949817882329F42EC03196D501B7
:103FC000ED93FC93D501ED91FC9180818F32B1F39B
:103FD0008823C9F0C701B801A40121E00E949A1EFC
:103FE0008823D1F00C151D0519F0C8010E94FB1A99
:103FF0002796EEADFFAD2797EE16FF0679F6C101C5
:10400000322D292FCDCFC301B801A40125962FADA4
:1040100025970E949A1E01C080E0CA5BDF4F0FB651
:10402000F894DEBF0FBECDBFCF91DF911F910F91EE
:10403000FF90EF90DF90CF90BF90AF909F908F90C8
:104040007F906F905F904F903F902F900895FB016D
:10405000242F6091BC067091BD06AF010E945F1FC6
:104060000895FF920F931F93CF93DF938B010E94CC
:104070005124EB01FF24FA9409C00E9451246C1BC7
:104080007D0B6017710710F080E008C0FEBC0DB416
:1040900007FEFDCF8EB58F3F81F781E0DF91CF9195
:1040A0001F910F91FF900895FC0122812D3010F097
:1040B00046E002C0422F4695242F30E0C901959575
:1040C000879580658CBD40FF02C080E004C080E021
:1040D000463009F081E08DBD808160E00E94A52519
:1040E0000895FF920F931F93DF93CF9300D000D0DA
:1040F000CDB7DEB78C01F62E29833A834B835C83E0
:104100000E945420C8016CE271E00E9431208F2D82
:1041100080648EBD0DB407FEFDCFFE0131969E0179
:104120002350304083818EBD0DB407FEFDCF319703
:10413000E217F307B9F7FF2011F087E801C085E91E
:104140008EBD0DB407FEFDCF8CE0F81631F48FEF75
:104150008EBD0DB407FEFDCF8EB590E02FEF2EBDC6
:104160000DB407FEFDCF8EB587FF02C09150B9F7A1
:10417000F80183830F900F900F900F90CF91DF91F4
:104180001F910F91FF900895FC01808161E00E94D2
:10419000A5258FEF8EBD0DB407FEFDCF0895CF93FB
:1041A000DF93EC01DA016EBD0DB407FEFDCF8C91FB
:1041B0008EBD1196EC91119782E090E00DB407FE50
:1041C000FDCFEEBD22E08030920731F0FD01E80F17
:1041D000F91FE0810196F2CF0DB407FEFDCF8FEFFE
:1041E0008EBD0DB407FEFDCF8FEF8EBD0DB407FE63
:1041F000FDCF8FEF8EBD0DB407FEFDCF8EB58B8347
:104200008F71853011F481E006C083E18983CE018E
:104210000E94C42080E0DF91CF910895CF92DF9279
:10422000EF92FF920F931F93CF93DF93EC017A01EC
:104230008B0169018C81833039F059E0EE0CFF1C51
:10424000001F111F5A95D1F7CE0168E1A80197010F
:104250000E947120882311F086E023C0CE016EEF0A
:10426000A6010E94CF208823E9F0CE0168E572E024
:104270000E943120882311F487E113C0CE016DE044
:1042800020E030E040E050E00E947120882341F4BB
:104290008FEF8EBD0DB407FEFDCF8EB5882379F06C
:1042A00086E18983CE010E94C42080E0DF91CF9116
:1042B0001F910F91FF90EF90DF90CF900895CE0166
:1042C0000E94C42081E0F2CFBF92CF92DF92EF92A2
:1042D000FF920F931F93CF93DF93EC016B017A0151
:1042E0000E9451248B01BB24BA9409C00E9451241E
:1042F000601B710B6D52714010F081E10BC0BEBCB0
:104300000DB407FEFDCF8EB58B838F3F79F38E3FC3
:1043100039F08FE08983CE010E94C42080E030C054
:10432000D7011197EF28D9F08FEF8EBD20E030E054
:104330009FEF0BC00DB407FEFDCF8EB59EBDF601FD
:10434000E20FF31F80832F5F3F4F2A173B0790F345
:104350000DB407FEFDCF8EB5AC0DBD1D8C931B8239
:104360008FEF8EBD0DB407FEFDCF8EB58FEF8EBDE6
:104370000DB407FEFDCF8EB5CE010E94C42081E0B2
:10438000DF91CF911F910F91FF90EF90DF90CF9031
:10439000BF900895CF92DF92EF92FF920F931F93F9
:1043A000CF93DF93EC017A018B0169018C8183301B
:1043B00039F0B9E0EE0CFF1C001F111FBA95D1F7C0
:1043C000CE0161E1A80197010E947120882339F094
:1043D00084E08983CE010E94C42080E006C0CE0123
:1043E000B60140E052E00E946421DF91CF911F911D
:1043F0000F91FF90EF90DF90CF900895BF92CF92F2
:10440000DF92EF92FF920F931F93CF93DF93EC0114
:10441000B62E1C82198248830E9451246B01888128
:1044200061E00E941825888161E00E94A52581E154
:1044300061E00E94A52581E161E00E9418258EE0DF
:1044400060E00E94182580E161E00E9418258FE05D
:1044500061E00E9418258BE08A8382E58CBD1DBC3B
:1044600080E09FEF9EBD0DB407FEFDCF8F5F8A30C9
:10447000C9F709C00E9451246C197D09615D77401C
:1044800010F081E063C0CE0160E020E030E040E069
:1044900050E00E947120813069F71FEFCE0168E083
:1044A0002AEA31E040E050E00E947120853011F4AA
:1044B00081E00DC080E01EBD0DB407FEFDCF9EB5AE
:1044C0008F5F8430C1F79B839A3A31F482E08C830A
:1044D0008C81823051F40DC00E9451246C197D09E9
:1044E000615D7740D8F282E031C0EE24FF2487017D
:1044F0000FC0E12CF12C012D80E4182F09C00E947F
:1045000051246C197D09615D774010F08AE01EC06E
:10451000CE0167E320E030E040E050E00E947120EF
:10452000CE0169E2A80197010E947120882339F722
:104530008C81823029F5CE016AE320E030E040E052
:1045400050E00E947120882331F088E08983CE01F9
:104550000E94C42021C08FEF8EBD0DB407FEFDCF99
:104560008EB5807C803C11F483E08C8380E09FEFEB
:104570009EBD0DB407FEFDCF2EB58F5F8330C1F712
:10458000CE010E94C4208EE08B1518F488E1898347
:1045900003C0BA8281E001C080E0DF91CF911F911A
:1045A0000F91FF90EF90DF90CF90BF900895CF9341
:1045B000DF93EC01662331F0A396D093BD06C09340
:1045C000BC06A3978EA1882321F0CE0183960E947A
:1045D000FB1ACE0183962596BE010E944D18DF91ED
:1045E000CF9108950F931F93CF93DF93EC01262F64
:1045F000642F422F0E94FE218823C9F08E010B5F99
:104600001F4FC801BE0141E00E94D713882339F42F
:10461000C801BE0140E00E94D713882341F0CE01BB
:1046200061E00E94D722882319F081E001C080E078
:10463000DF91CF911F910F910895DF93CF930F9248
:10464000CDB7DEB769830496BE016F5F7F4F41E04F
:1046500050E00E94931C20E030E0019711F421E02B
:1046600030E0C9010F90CF91DF91089504960E9428
:10467000931C08958430C0F4813049F0813028F0D3
:10468000823039F0833041F406C0E89805C0E998DB
:1046900003C0EA9801C0EB98E82FF0E0EE0FFF1F8F
:1046A000E054F94F1182108208951F920F920FB6B5
:1046B0000F9211242F933F934F935F936F937F93A8
:1046C0008F939F93AF93BF93EF93FF938091C00617
:1046D0009091C106892B29F0E091C006F091C106A6
:1046E0000995FF91EF91BF91AF919F918F917F912C
:1046F0006F915F914F913F912F910F900FBE0F904F
:104700001F9018951F920F920FB60F9211242F939E
:104710003F934F935F936F937F938F939F93AF9349
:10472000BF93EF93FF938091C2069091C306892BAC
:1047300029F0E091C206F091C3060995FF91EF912F
:10474000BF91AF919F918F917F916F915F914F91A9
:104750003F912F910F900FBE0F901F9018951F92B1
:104760000F920FB60F9211242F933F934F935F93A5
:104770006F937F938F939F93AF93BF93EF93FF9329
:104780008091C4069091C506892B29F0E091C4065A
:10479000F091C5060995FF91EF91BF91AF919F915F
:1047A0008F917F916F915F914F913F912F910F90DA
:1047B0000FBE0F901F9018951F920F920FB60F9279
:1047C00011242F933F934F935F936F937F938F9316
:1047D0009F93AF93BF93EF93FF938091C606909101
:1047E000C706892B29F0E091C606F091C706099506
:1047F000FF91EF91BF91AF919F918F917F916F91B9
:104800005F914F913F912F910F900FBE0F901F908E
:1048100018951F920F920FB60F9211242F933F936A
:104820008F939F93AF93BF938091CC069091CD06C9
:10483000A091CE06B091CF063091D0060196A11D71
:10484000B11D232F2D5F2D3720F02D570196A11D6F
:10485000B11D2093D0068093CC069093CD06A093F3
:10486000CE06B093CF068091C8069091C906A0915C
:10487000CA06B091CB060196A11DB11D8093C80652
:104880009093C906A093CA06B093CB06BF91AF918F
:104890009F918F913F912F910F900FBE0F901F907E
:1048A00018958FB7F8942091CC063091CD064091A1
:1048B000CE065091CF068FBFB901CA0108959B0162
:1048C000AC017FB7F8948091C8069091C906A09179
:1048D000CA06B091CB0666B5A89B05C06F3F19F01C
:1048E0000196A11DB11D7FBFBA2FA92F982F882730
:1048F000860F911DA11DB11D62E0880F991FAA1F8F
:10490000BB1F6A95D1F7BC012DC0FFB7F894809109
:10491000C8069091C906A091CA06B091CB06E6B52B
:10492000A89B05C0EF3F19F00196A11DB11DFFBF67
:10493000BA2FA92F982F88278E0F911DA11DB11D69
:10494000E2E0880F991FAA1FBB1FEA95D1F7861BCB
:10495000970B885E9340C8F2215030404040504051
:1049600068517C4F211531054105510571F60895B7
:10497000019739F0880F991F880F991F02970197A7
:10498000F1F70895789484B5826084BD84B5816020
:1049900084BD85B5826085BD85B5816085BDEEE647
:1049A000F0E0808181608083E1E8F0E01082808126
:1049B00082608083808181608083E0E8F0E0808194
:1049C00081608083E1E9F0E0808182608083808182
:1049D00081608083E0E9F0E0808181608083E1ECA8
:1049E000F0E0808184608083808182608083808128
:1049F00081608083E3ECF0E0808181608083E0EC83
:104A0000F0E0808182608083E2ECF0E08081816070
:104A10008083EAE7F0E08081846080838081826027
:104A20008083808181608083808180688083089515
:104A3000CF93DF93482F50E0CA01885C9E4FFC0162
:104A40003491465E5E4FFA018491882369F190E0CB
:104A5000880F991FFC01E051FF4FA591B491FC0113
:104A6000E250FF4FC591D491662351F42FB7F894CB
:104A70008C91932F909589238C93888189230BC0E7
:104A8000623061F42FB7F8948C91932F909589231D
:104A90008C938881832B88832FBF06C09FB7F8949F
:104AA0008C91832B8C939FBFDF91CF910895883099
:104AB00071F1893068F4823031F1833020F4813033
:104AC00009F042C01DC0833089F08430E9F512C07E
:104AD0008B3059F18C3028F48930E9F08A30A1F517
:104AE0001EC08C3031F18E3079F529C08091800064
:104AF0008F7703C0809180008F7D80938000089520
:104B000084B58F7702C084B58F7D84BD0895809170
:104B100090008F7707C0809190008F7D03C08091B7
:104B20009000877F8093900008958091C0008F77D8
:104B300003C08091C0008F7D8093C0000895809154
:104B4000C200877F8093C2000895FF920F931F9346
:104B5000F62E482F50E0CA018A5A9E4FFC0124913C
:104B6000CA01885C9E4FFC011491465E5E4FFA01BB
:104B700004910023C9F0222319F0822F0E945725A7
:104B8000E02FF0E0EE0FFF1FE250FF4FA591B49130
:104B90009FB7F894FF2021F48C911095812302C0D7
:104BA0008C91812B8C939FBF1F910F91FF90089543
:104BB0000F931F93482F50E0CA018A5A9E4FFC0161
:104BC0002491CA01885C9E4FFC010491465E5E4FB1
:104BD000FA011491112319F420E030E015C02223CA
:104BE00019F0822F0E945725812F90E0880F991F7E
:104BF000845F9E4FFC01A591B4918C9120E030E040
:104C0000802311F021E030E0C9011F910F91089538
:104C10001F93CF93DF93182FEB0161E00E941825BB
:104C2000209709F48FC0CF3FD10509F48EC0E12F42
:104C3000F0E0EA5AFE4F8491883009F440C0893090
:104C400070F4823019F1833020F4813009F077C09C
:104C500018C0833001F1843009F071C026C08B3058
:104C600009F44BC08C3030F4893099F18A3009F066
:104C700066C039C08C3009F44DC08E3009F05FC079
:104C800051C084B5806884BDC7BD63C084B58062EF
:104C900084BDC8BD5EC08091800080688093800024
:104CA000D0938900C093880054C0809180008062B6
:104CB00080938000D0938B00C0938A004AC080917B
:104CC0009000806880939000D0939900C0939800E2
:104CD00040C080919000806280939000D0939B00B0
:104CE000C0939A0036C080919000886080939000B5
:104CF000D0939D00C0939C002CC08091C000806820
:104D00008093C0008091C0008F7B8093C000C093CF
:104D1000CF001FC08091C00080628093C000C0930C
:104D2000D00017C08091C20088608093C20080913B
:104D3000C2008B7F8093C200C093D2000AC0C038EB
:104D4000D1051CF4812F60E002C0812F61E00E9438
:104D5000A525DF91CF911F910895CF93DF930E94F6
:104D6000C2248BE297E00E94612B0E944512C0E0B2
:104D7000D0E00E9480112097E1F30E940000F9CF5B
:104D80000895209111073091120780911307909197
:104D90001407281B390B2F733070C9010895209117
:104DA000110730911207809113079091140728176B
:104DB000390719F42FEF3FEF09C0E0911307F09185
:104DC0001407EF52F94F8081282F30E0C901089570
:104DD00020911107309112078091130790911407C9
:104DE0002817390719F42FEF3FEF13C0E09113078D
:104DF000F0911407EF52F94F2081809113079091A1
:104E0000140701968F739070909314078093130783
:104E100030E0C9010895109218071092170788EE24
:104E200093E0A0E0B0E08093190790931A07A09355
:104E30001B07B0931C0780EE93E0909316078093B6
:104E4000150708950F931F93DF93CF930F92CDB75C
:104E5000DEB78C0169838091D103882369F083E0F8
:104E6000BE016F5F7F4F41E050E00E947F2B18161C
:104E7000190614F49C0107C081E090E0F8019383C7
:104E8000828320E030E0C9010F90CF91DF911F9124
:104E90000F91089583E00E94562B0895CF93DF93DE
:104EA00012C082E00E94E12A2FEF8F3F9207C9F0E3
:104EB000E0911107F0911207EF52F94F8083D093E0
:104EC0001207C0931107C0911107D09112072196C4
:104ED000CF73D0708091130790911407C817D9072A
:104EE00001F7DF91CF910895FC0180818E5F80836F
:104EF00080E860E871E042E450E00E94FA2A0895F8
:104F0000FC0181819081913A59F4813209F04CC0C1
:104F100080E06AEC73E047E050E00E94FA2A42C069
:104F2000913209F041C0803239F48AEC93E067E0B5
:104F300070E00E943E2B36C0823209F035C082817B
:104F40008093D1038091CA039091CB03A091CC03AD
:104F5000B091CD03805B9440A040B04019F58091A2
:104F6000D10380FD12C087E797E7909301088093F3
:104F700000082BE088E190E00FB6F894A8958093A4
:104F800060000FBE209360000DC088E10FB6F8945A
:104F900080936000109260000FBEA89510920108E7
:104FA0001092000881E0089580E00895CF92DF928A
:104FB000EF92FF920F931F93CF93DF937C016B01CE
:104FC0008A01C0E0D0E00FC0D6016D916D01D7011C
:104FD000ED91FC910190F081E02DC7010995C80F7A
:104FE000D91F015010400115110571F7CE01DF9155
:104FF000CF911F910F91FF90EF90DF90CF90089588
:10500000DC01ED91FC910190F081E02D099508956E
:10501000EF92FF920F931F938C01DC01ED91FC91B5
:105020000190F081E02D6DE009957C01D801ED91B2
:10503000FC910190F081E02DC8016AE009959C0186
:105040002E0D3F1DC9011F910F91FF90EF90089504
:10505000CF93DF93EC016115710519F420E030E086
:105060000FC0DB010D900020E9F71197A61BB70BCD
:10507000E881F9810280F381E02DAD0109959C0161
:10508000C901DF91CF9108954F925F927F928F92E5
:105090009F92AF92BF92CF92DF92EF92FF920F93C7
:1050A0001F93DF93CF93CDB7DEB7A1970FB6F894D8
:1050B000DEBF0FBECDBF2C01742ECB01223008F411
:1050C0002AE019A231E2C32ED12CCC0EDD1E822E95
:1050D0009924AA24BB24672D752FA50194010E9451
:1050E000DA3179018A01C801B701A50194010E9452
:1050F000BB31472D461B0894C108D1084A3014F42F
:10510000405D01C0495CF6014083E114F1040105F2
:10511000110521F07E2C5F2DC801DDCFC201B60143
:105120000E942828A1960FB6F894DEBF0FBECDBF0F
:10513000CF91DF911F910F91FF90EF90DF90CF9073
:10514000BF90AF909F908F907F905F904F90089509
:10515000DC012115310541F4ED91FC910190F081C4
:10516000E02D642F099508950E9444280895EF9238
:10517000FF920F931F937C010E94A8288C01C70106
:105180000E9408289C01200F311FC9011F910F9117
:10519000FF90EF900895EF92FF920F931F939A0163
:1051A0007B0100E010E0B801A7010E94A8281F9130
:1051B0000F91FF90EF900895CF92DF92EF92FF92C0
:1051C0000F931F936C017B019A0100E010E0B8017E
:1051D000A7010E94A8288C01C6010E940828080F78
:1051E000191FC8011F910F91FF90EF90DF90CF9092
:1051F0000895CF92DF92EF92FF920F931F936C016D
:10520000E62E9A01FF2400E010E0B801A7010E94F9
:10521000A8288C01C6010E940828080F191FC80180
:105220001F910F91FF90EF90DF90CF900895CF9254
:10523000DF92EF92FF920F931F93CF93DF93EC01D6
:105240006A017B012115310541F4E881F981019062
:10525000F081E02D642F09951FC02A303105D1F46B
:1052600077FF17C0E881F9810190F081E02D6DE2B0
:1052700009958C0144275527BA014C195D096E091F
:105280007F09CE012AE00E9444289801280F391F87
:1052900004C02AE00E9444289C01C901DF91CF91FB
:1052A0001F910F91FF90EF90DF90CF900895EF92B4
:1052B000FF920F931F937C010E9417298C01C70155
:1052C0000E9408289C01200F311FC9011F910F91D6
:1052D000FF90EF900895EF92FF920F931F937B0141
:1052E0009A010027F7FC0095102FB801A7010E9432
:1052F00017291F910F91FF90EF900895CF92DF92A1
:10530000EF92FF920F931F936C017B019A0100278C
:10531000F7FC0095102FB801A7010E9417298C01F6
:10532000C6010E940828080F191FC8011F910F917C
:10533000FF90EF90DF90CF9008950E942828089565
:105340007F928F929F92AF92BF92CF92DF92EF9215
:10535000FF920F931F93CF93DF934C017A018B0140
:10536000722ECB01BA01A80197010E94A0318823B7
:1053700021F0C4016AEB73E021C0C0E0D0E0570126
:105380006801E894D7F8C601B5012FEF3FEF4FE76A
:105390005FE70E94A031882351F4C601B5012FEFC9
:1053A0003FEF4FE75FE70E949C2F181614F0C1E013
:1053B000D0E0219739F0C4016EEB73E00E942828F9
:1053C000EC0193C0C801B7012FEF3FEF4FE75FE457
:1053D0000E94EB30181654F0C801B7012FEF3FEFD1
:1053E0004FE75FEC0E949C2F882324F4C40162ECF9
:1053F00073E0E4CFC801B70120E030E040E050E0C6
:105400000E949C2F87FD03C0C0E0D0E00EC0D401F5
:10541000ED91FC910190F081E02DC4016DE20995C0
:10542000EC0117FB109517F9109520E030E040E0F3
:105430005FE3DD240BC0CA01B90120E030E040E2A7
:1054400051E40E94A02F9B01AC01D394D71498F390
:10545000C801B7010E94382F5B016C010E940D301A
:105460007B018C01C401B801A7012AE030E00E9451
:10547000A828C80FD91F772039F0C40166EC73E063
:105480000E942828C80FD91FC801B7010E943930CF
:105490009B01AC01C601B5010E94372F24C020E05A
:1054A00030E040E251E40E94EF307B018C010E9429
:1054B00008305B016C01CC24B7FCC094DC2CC40127
:1054C000B601A5012AE030E00E941729C80FD91FB4
:1054D000C601B5010E943B309B01AC01C801B70178
:1054E0000E94372F7A947720D1F6CE01DF91CF91A9
:1054F0001F910F91FF90EF90DF90CF90BF90AF90F2
:105500009F908F907F9008950E94A0290895EF9218
:10551000FF920F931F937C010E94A0298C01C70169
:105520000E940828080F191FC8011F910F91FF90B2
:10553000EF900895EF92FF920F931F937C010E94CA
:1055400028288C01C7010E940828080F191FC801CC
:105550001F910F91FF90EF900895282F80912507BC
:105560008823C1F057FF1AC015C0289890932407CC
:105570008091F1008193E217F307B9F741155105C6
:1055800039F08091F200882319F48BE68093E800CB
:10559000AFBF02C04FEF5FEFCA010895AFB7F894F5
:1055A00027702093E9008091F200282F30E0241723
:1055B00035070CF4A901FB019B01240F311D94E672
:1055C000DACFDF93CF930F92CDB7DEB7BE016F5F17
:1055D0007F4F41E050E00E94AD2A019719F02FEF74
:1055E0003FEF03C08981282F30E0C9010F90CF9190
:1055F000DF910895FF920F931F93F82E142F052F1C
:105600004091280750912907212F302FC901DC0133
:10561000FB016EEF29C0F7FE02C0949101C090819A
:10562000209126073091270724173507ACF4809185
:10563000E8008570E1F38091E80082FF03C02FEF5E
:105640003FEF17C09093F100C90101968F739070DE
:10565000892B11F46093E8002F5F3F4F30932707A9
:1056600020932607119731961097A9F6812F902F36
:105670009C01C9011F910F91FF9008959C01809199
:10568000E80082FFFCCFF901260F311D03C0809195
:10569000F1008193E217F307D1F7289884E680930D
:1056A00024078BEF8093E800CB0108958093E900F5
:1056B0008091F200882319F08AE38093E80008952E
:1056C00008951092250781E08093D70080EA8093A7
:1056D000D80082E189BD09B400FEFDCF61E070E031
:1056E00080E090E00E945F2480E98093D8008CE005
:1056F0008093E2001092E000559A209A08955F92FC
:105700006F927F928F929F92AF92BF92CF92DF92D1
:10571000EF92FF920F931F93CF93DF93E82E842E87
:10572000752E80912507882371F18B01242F352F49
:10573000C901EC017AEFF72E67E0962E9E2050E427
:10574000552E8E2D90E040E2A42EB12CA822B92235
:105750003AE3632E20E4C22ED12CC822D92258C0AD
:105760009FB7F8949092E9008091E80085FD02C00F
:1057700020E004C08091F200252D281B9FBF22232A
:1057800061F4FA9419F42FEF3FEF4DC061E070E03F
:1057900080E090E00E945F243BC0822F90E0C81719
:1057A000D9070CF42C2FC21BD1094FB7F894909253
:1057B000E900A114B10421F406C01092F1002150B7
:1057C0002223D9F719C0E7FC03C0F801922F10C0BB
:1057D000C801322F06C0FC010196E491E093F1006C
:1057E00031503323C1F706C081918093F10091506D
:1057F0009923D1F7020F111D8091E80085FF05C0A4
:10580000209729F4C114D10411F06092E8004FBF31
:10581000209709F0A5CF5D9884E680932307282D73
:10582000372DC9019C01C901DF91CF911F910F91C3
:10583000FF90EF90DF90CF90BF90AF909F908F90B0
:105840007F906F905F9008951F920F920FB60F9206
:1058500011242F933F934F935F936F937F938F9375
:105860009F93AF93BF93EF93FF938091E1001092CA
:10587000E100982F83FF0FC01092E90081E0809330
:10588000EB001092EC0082E38093ED00109225076C
:1058900088E08093F00092FF34C083E08093E900B9
:1058A0008091F200882319F08AE38093E8008FB793
:1058B000F89492E09093E9009091F2008FBF9923C1
:1058C00021F085E197E00E944E27809123078823ED
:1058D00051F0809123078150809323078091230703
:1058E000882309F45D9A80912407882351F08091E0
:1058F000240781508093240780912407882309F48A
:10590000289AFF91EF91BF91AF919F918F917F91D5
:105910006F915F914F913F912F910F900FBE0F901C
:105920001F9018950F931F93DF93CF930F92CDB7CE
:10593000DEB719828E010F5F1F4FC8010E947427C6
:10594000C8010E942B2F898190E00F90CF91DF91A9
:105950001F910F9108951F920F920FB60F9211246D
:10596000EF92FF921F932F933F934F935F936F9309
:105970007F938F939F93AF93BF93EF93FF93DF93A7
:10598000CF93CDB7DEB76197DEBFCDBF1092E900F0
:105990008091E80083FF0FC1FE0131969E01275FD1
:1059A0003F4F03C08091F1008193E217F307D1F7D5
:1059B000289884E68093240782EF8093E8009981F9
:1059C00097FF05C08091E80080FFFCCF03C08EEFF9
:1059D0008093E800292F30E0C90180769070892BF0
:1059E00009F0C2C08A81882329F41092F100109234
:1059F000F100D6C0813009F4D3C0833009F4D0C09F
:105A0000853049F48091E80080FFFCCF8B8180686D
:105A10008093E300C5C0863009F07CC01C81EF8014
:105A2000F8841230C1F51092E90010922707109205
:105A3000260710922907109228070E94922C99E0BD
:105A4000FE013996DF01292F1D922A95E9F79987E2
:105A50001A8791E09E8790E8988B9AEF998B209116
:105A6000260730912707275F3F4F3C872B878D877D
:105A70001092E9001092270710922607F09229074A
:105A8000E092280780E0BF0149E050E00E94FA2A36
:105A90000E94922C85C01092E90010922707109264
:105AA0002607F0922907E0922807123241F482E299
:105AB00090E00E94232F892B09F476C071C0113029
:105AC00079F488E0E816F10419F481E080932A075C
:105AD00080912A07882309F06BC0E0E0F2E013C050
