:100000000C94AD000C94C6190C94F3190C94B70A17
:100010000C94E10A0C940B0B0C94D5000C94D500B5
:100020000C94D5000C94D5000C94D5000C94D500FC
:100030000C94D5000C94D5000C94D5000C94D500EC
:100040000C94D6180C94D5000C94D5000C94D500C3
:100050000C94D5000C94D5000C94D5000C94D500CC
:100060000C943B060C94D50000C201000100110065
:1000700011000D0000E100000A002500250022000B
:10008000009600001900390039003600127A00008D
:100090001F004600460044008070000022004D0012
:1000A0004D004A00004B00003600750075007200DC
:1000B000403800004A009C009C0099008025000008
:1000C0007200EC00EC00E900C0120000E900DA0167
:1000D000DA01D70160090000D701B603B603B30304
:1000E000B0040000B3036E076E076B072C0100001D
:1000F000DC0EC11DC11DBE1D000000002400270034
:100100002A0000000000250028002B00000000004D
:100110002300260029000404040404040404020249
:100120000202020203030303030301020408102076
:100130004080010204081020010204081020000081
:100140000007000201000003040600000000000098
:10015000000032059308B60FAF0F11241FBECFEF7A
:10016000D8E0DEBFCDBF13E0A0E0B1E0EAE0FFE3FE
:1001700002C005900D92AE31B107D9F714E0AEE19F
:10018000B3E001C01D92AE31B107E1F711E0C8E55F
:10019000D1E004C02297FE010E943D1FC235D10765
:1001A000C9F70E94CF180C94781F0C9400000F938D
:1001B0001F93CF93DF93689F8001699F100D789FF5
:1001C000100D1124C8010E94F300EC01009729F0E2
:1001D00060E070E0A8010E94F501CE01DF91CF91AF
:1001E0001F910F910895CF93DF93BC018230910549
:1001F00010F462E070E0A0911C04B0911D04ED01C8
:10020000E0E0F0E040E050E021C08881998186176D
:10021000970769F48A819B81309719F093838283D1
:1002200004C090931D0480931C04FE0134C0681721
:10023000790738F44115510519F08417950708F42A
:10024000AC01FE018A819B819C01E9012097E9F6BE
:1002500041155105A9F1CA01861B970B049708F4B3
:10026000BA01E0E0F0E02AC08D919C9111978417CB
:100270009507F9F46417750781F412968D919C9196
:100280001397309719F09383828304C090931D04D1
:1002900080931C04FD0132964CC0CA01861B970B4B
:1002A000FD01E80FF91F6193719302978D939C9361
:1002B00040C0FD01828193819C01D9011097A1F674
:1002C00080911A0490911B04892B41F48091FC02C7
:1002D0009091FD0290931B0480931A044091FE02BA
:1002E0005091FF024115510541F44DB75EB7809121
:1002F000FA029091FB02481B590B20911A0430918D
:100300001B04CA01821B930B8617970780F0AB0171
:100310004E5F5F4F8417950750F0420F531F509365
:100320001B0440931A04F9016193719302C0E0E049
:10033000F0E0CF01DF91CF910895CF93DF93009745
:1003400009F450C0EC0122971B821A82A0911C0470
:10035000B0911D04109709F140E050E0AC17BD07C3
:1003600008F1BB83AA83FE0121913191E20FF31FB3
:10037000AE17BF0779F48D919C911197280F391F03
:100380002E5F3F4F3983288312968D919C9113974E
:100390009B838A834115510571F4D0931D04C0934A
:1003A0001C0420C012968D919C911397AD0100976B
:1003B00011F0DC01D3CFFA01D383C28321913191B3
:1003C000E20FF31FCE17DF0769F488819981280FA8
:1003D000391F2E5F3F4FFA01318320838A819B8131
:1003E00093838283DF91CF910895DC0101C06D93E7
:1003F00041505040E0F70895FB01DC010D900020D2
:10040000E9F7119701900D920020E1F70895FB01A3
:10041000DC014150504048F001900D920020C9F796
:1004200001C01D9241505040E0F70895FB015191E9
:100430005523A9F0BF01DC014D9145174111E1F7AA
:1004400059F4CD010190002049F04D914015411122
:10045000C9F3FB014111EFCF81E090E001970895CE
:10046000FA01CF93FF93EF93223044F1253234F514
:10047000C22FE894CA3049F497FB3EF490958095DA
:10048000709561957F4F8F4F9F4F2C2F33274427B7
:100490005527FF93EF930E94051FEF91FF91605D39
:1004A0006A330CF0695D6193B901CA016050704014
:1004B0008040904051F716F4CDE2C19310828F91A5
:1004C0009F91CF910C947B04AEE0B0E0EAE6F2E0BD
:1004D0000C944F1F0D891E8986E08C831A83098333
:1004E0008FEF9FE79E838D839E01275E3F4FCE0156
:1004F00001966F89788DA9010E9488022F81388525
:10050000020F131FF80110822E96E4E00C946B1F6B
:10051000ABE0B0E0EEE8F2E00C94411F3C012B01AF
:100520005A01FC0117821682838181FD03C06FEF9F
:100530007FEFC6C19AE0892E1E010894211C311C50
:10054000F3012381F20123FD859123FF81912F0186
:10055000882309F4B2C1853239F423FD859123FF44
:1005600081912F01853229F490E0B3010E948B0420
:10057000E7CF982FFF24EE249924FFE1FF15D0F058
:100580009B3269F09C3228F4903259F0933291F406
:100590000EC09D3249F0903369F441E024C052E02E
:1005A000F52A84E0F82A28C098E0F92A25C0E0E17D
:1005B000FE2A22C0F7FC29C0892F80538A3070F4AC
:1005C000F6FE05C0989C902C1124980E15C0E89C4E
:1005D000E02C1124E80EF0E2FF2A0EC09E3229F42E
:1005E000F6FC6BC140E4F42A07C09C3619F450E8CD
:1005F000F52A02C0983649F4F20123FD959123FFB4
:1006000091912F01992309F0B8CF892F8554833018
:1006100018F08052833038F444E050E0A40EB51E48
:100620005FE359830FC0933631F0933779F09335F8
:1006300009F056C020C0F5018081898342E050E076
:10064000A40EB51E610101E010E012C0F501C080EA
:10065000D180F6FC03C06FEF7FEF02C0692D70E020
:1006600042E050E0A40EB51EC6010E9470048C0149
:100670005FE7F52214C0F501C080D180F6FC03C00D
:100680006FEF7FEF02C0692D70E042E050E0A40EF2
:10069000B51EC6010E9465048C0150E8F52AF3FEE0
:1006A00007C01AC080E290E0B3010E948B04EA9474
:1006B0008E2D90E008171907A8F30EC0F601F7FC7D
:1006C0008591F7FE81916F0190E0B3010E948B0448
:1006D000E110EA94015010400115110579F7EAC0C4
:1006E000943611F0993669F5F7FE08C0F5012081BE
:1006F00031814281538184E090E00AC0F50180811C
:1007000091819C01442737FD4095542F82E090E071
:10071000A80EB91E9FE6F92257FF09C050954095D3
:10072000309521953F4F4F4F5F4FE0E8FE2ACA01B9
:10073000B901A1012AE030E00E94B704D82ED218F6
:1007400040C0953729F41F2D1F7E2AE030E01DC0E0
:100750001F2D197F9F3661F0903720F4983509F0EE
:10076000ACC00FC0903739F0983709F0A6C004C06C
:1007700028E030E00AC0106114FD146020E130E090
:1007800004C014FD166020E132E017FF08C0F50137
:10079000608171818281938144E050E008C0F5015D
:1007A00080819181BC0180E090E042E050E0A40EA5
:1007B000B51EA1010E94B704D82ED2188FE7F82EDB
:1007C000F122F6FE0BC05EEFF522D91438F4F4FEE8
:1007D00007C0F2FC05C08FEEF82202C01D2D01C03B
:1007E000192DF4FE0DC0FE01ED0DF11D8081803349
:1007F00019F499EEF92208C01F5FF2FE05C003C08C
:100800008F2D867809F01F5F0F2DF3FC14C0F0FECA
:100810000FC01E1510F09D2C0BC09D2C9E0C911A24
:100820001E2D06C080E290E0B3010E948B041F5F82
:100830001E15C0F304C01E1510F4E11A01C0EE2409
:1008400004FF0FC080E390E0B3010E948B0402FF1D
:100850001DC001FD03C088E790E00EC088E590E070
:100860000BC0802F867891F001FF02C08BE201C09F
:1008700080E2F7FC8DE290E0B3010E948B0406C099
:1008800080E390E0B3010E948B049A94D914C0F3E2
:10089000DA94F101ED0DF11D808190E0B3010E9429
:1008A0008B04DD20A9F706C080E290E0B3010E942E
:1008B0008B04EA94EE20C1F743CEF3016681778181
:1008C000CB012B96E2E10C945D1FFC010590615079
:1008D00070400110D8F7809590958E0F9F1F089556
:1008E000FC016150704001900110D8F780959095FF
:1008F0008E0F9F1F0895DC01FC01672F71917723F4
:10090000E1F7329704C07C916D9370836291AE17CA
:10091000BF07C8F308950F931F93CF93DF938C0104
:10092000EB018B8181FF1BC082FF0DC02E813F81B7
:100930008C819D812817390764F4E881F98101933E
:10094000F983E88306C0E885F985802F0995892B0E
:1009500031F48E819F8101969F838E8302C00FEFB9
:100960001FEFC801DF91CF911F910F910895FA01F8
:10097000AA27283051F1203181F1E8946F936E7FDE
:100980006E5F7F4F8F4F9F4FAF4FB1E03ED0B4E0CF
:100990003CD0670F781F891F9A1FA11D680F791F10
:1009A0008A1F911DA11D6A0F711D811D911DA11D21
:1009B00020D009F468943F912AE0269F1124301931
:1009C000305D3193DEF6CF010895462F4770405DCC
:1009D0004193B3E00FD0C9F7F6CF462F4F70405D7B
:1009E0004A3318F0495D31FD4052419302D0A9F7D6
:1009F000EACFB4E0A6959795879577956795BA95D0
:100A0000C9F700976105710508959B01AC010A2E95
:100A100006945795479537952795BA95C9F7620F6C
:100A2000731F841F951FA01D089581E080932703E5
:100A3000609322031092250310922603089590914B
:100A4000200380912103981710F080E00895E09131
:100A50001E03F0911F03E90FF11D80819F5F9093AA
:100A6000200308950895DF93CF930F92CDB7DEB79B
:100A70006983809127038823A9F08091260380321F
:100A8000B0F480912503E0912303F0912403E80F53
:100A9000F11D6083809125038F5F809325038093F0
:100AA000260305C0CE01019661E00E941E060F904C
:100AB000CF91DF9108950E9433050895609123033B
:100AC00070912403809122034091260321E00E942B
:100AD000D90510922503109226031092270308953A
:100AE000862F60911E0370911F03413208F040E28F
:100AF0000E94A105109220038093210308950E9473
:100B00007005089580E290E061E070E00E94D700F7
:100B100080931E0390931F031092200310922103D1
:100B200080E290E061E070E00E94D70080932303B0
:100B30009093240310922503109226030E94BD0770
:100B40000895982F413210F040E031C08091290380
:100B50008823E1F781E0809329038FEF80933A03A4
:100B6000109231034150409332034F5F990F9160CF
:100B700090932A0385EE8093BC00809129038130F5
:100B8000E1F380913103841710F440913103A09177
:100B90002F03B091300320E030E007C0FB01E20FEB
:100BA000F31F8D9180832F5F3F4F2417B8F3842F5D
:100BB00008951F93582F122F413210F081E03CC04E
:100BC000809129038823E1F782E0809329038FEF46
:100BD00080933A031092310340933203A0912F0384
:100BE000B0913003FB0102C081918D938E2F861B43
:100BF0008417D0F3852F90E0880F991F80932A03E4
:100C000085EE8093BC00112321F08091290382306E
:100C1000E1F380913A038F3F11F480E00DC08091A1
:100C20003A03803211F482E007C080913A038033A6
:100C300011F084E001C083E01F910895482F6132D4
:100C400010F081E0089580912903843011F082E052
:100C5000089560933603A0913303B0913403842F39
:100C60009C01F90102C081918D938E2F841B861700
:100C7000D0F380E008951F920F920FB60F921124C7
:100C80002F933F934F935F936F937F938F939F9394
:100C9000AF93BF93EF93FF938091B90090E0887F6B
:100CA00090708036910509F4E2C081369105CCF54B
:100CB0008832910509F47BC089329105B4F4803102
:100CC000910509F46FC0813191053CF4009709F456
:100CD00038C1089709F040C165C08831910509F411
:100CE00066C0809709F038C17FC08034910509F44F
:100CF000A3C08134910544F48033910509F47FC089
:100D0000C89709F029C186C08035910509F486C0CD
:100D10008835910509F495C08834910509F01CC106
:100D20009EC08839910509F404C189399105ECF414
:100D30008837910509F49BC0893791054CF48836B2
:100D4000910509F494C08037910509F005C18FC061
:100D50008838910509F4EDC08039910509F48DC0FA
:100D60008038910509F0F8C088C0803B910509F4EE
:100D7000B2C0813B91054CF4803A910509F491C0D1
:100D8000883A910509F0E8C0A6C0803C910509F4B5
:100D9000D4C0883C910509F4D0C0883B910509F086
:100DA000DBC0B1C080912A038093BB00C0C090918A
:100DB000310380913203981778F490913103E091D8
:100DC0002F03F0913003E90FF11D80818093BB0068
:100DD0009F5F90933103ABC085ED8093BC00809101
:100DE000BC0084FDFCCFB6C080E280933A0385ED61
:100DF0008093BC008091BC0084FDFCCFABC080E33D
:100E000080933A0385ED8093BC008091BC0084FD03
:100E1000FCCFA0C088E380933A038FC08091310358
:100E20009091BB00E0912F03F0913003E80FF11D8A
:100E300090838F5F809331039091310380913203CF
:100E400074C0809131039091BB00E0912F03F09129
:100E50003003E80FF11D90838F5F8093310385EDA0
:100E60008093BC008091BC0084FDFCCF73C083E004
:100E700080932903109239035AC08091390380323C
:100E800008F057C0809139039091BB00E09137037F
:100E9000F0913803E80FF11D90838F5F8093390341
:100EA00046C080913903803248F480913903E09143
:100EB0003703F0913803E80FF11D10826091390378
:100EC000E0912D03F0912E03809137039091380328
:100ED00070E0099532C084E08093290310923503B5
:100EE00010923603E0912B03F0912C030995809129
:100EF0003603882341F481E080933603E091330385
:100F0000F0913403108290913503E0913303F09116
:100F10003403E90FF11D80818093BB009F5F9093A4
:100F200035039091350380913603981710F485ECC2
:100F300001C085E88093BC000FC085EC8093BC00A5
:100F400009C010923A0385ED8093BC008091BC00EB
:100F500084FDFCCF10922903FF91EF91BF91AF91D7
:100F60009F918F917F916F915F914F913F912F91C1
:100F70000F900FBE0F901F90189510922903449A5E
:100F8000459AE9EBF0E080818E7F808380818D7FC0
:100F9000808388E48093B80085E48093BC0080E27D
:100FA00090E061E070E00E94D70080932F0390935F
:100FB000300380E290E061E070E00E94D70080930F
:100FC00033039093340380E290E061E070E00E948C
:100FD000D700809337039093380308950F931F939E
:100FE000CF93DF938C0188E293E068E670E00E9483
:100FF000150588E293E060E070E00E945B0588E2FE
:1010000093E00E945E0588E293E068E670E047E0C6
:1010100050E00E947F05C0E0D0E088E293E00E94AB
:101020001F05F801EC0FFD1F80832196C730D10505
:10103000A1F7DF91CF911F910F9108950F931F9307
:10104000CF93DF938C01EB01442311F00E94EE0754
:10105000C330D105B9F1C430D1054CF4C130D1054C
:10106000A1F0C230D1055CF5CD2B61F008C0C530D0
:10107000D105E1F1C530D10564F12697F1F14FEFCB
:101080005FEF4BC0F801208102C0F801218130E000
:10109000C90180779070E4E095958795EA95E1F72E
:1010A000AC0173E0440F551F7A95E1F7880F991F43
:1010B000480F591F2F703070420F531F2EC0F80178
:1010C000228116C0F8018381482F50E0477050708C
:1010D00024C0F8018481282F22952F709AE0299F3F
:1010E000A00111248F70480F511D17C0F8012581F0
:1010F00030E0C90180739070CECFF8018681482F0F
:1011000050E04F7050704053584F82958F702AE0D6
:10111000829FC0011124480F591FCA01DF91CF914E
:101120001F910F91089588E293E00E94820508952F
:10113000F999FECF72BD61BDF89A80B50895F9990D
:10114000FECF1FBA72BD61BD40BD0FB6F894FA9ACA
:10115000F99A0FBE0895FC0177FD0CC0828193813E
:101160006817790738F40190F081E02DE60FF71F3A
:101170008081089580E00895FC01808191810E9422
:101180009D0108950F931F93CF93DF93EC018B0183
:10119000CB0101960E94F300888399831D830C8301
:1011A0001B821A8220E030E007C0E881F981E20F5B
:1011B000F31F10822F5F3F4F8C819D8128173907C5
:1011C000A0F3DF91CF911F910F910895AF92BF923D
:1011D000CF92DF92EF92FF920F931F937B018C01CE
:1011E0006A0181E290E00E94F300B82EA92EC801A6
:1011F000B7014B2D5A2D96010E9430028B2D9A2D4E
:101200001F910F91FF90EF90DF90CF90BF90AF9024
:101210000895FC01808191810E9416029C0180E06A
:10122000232B09F081E008950F931F938C01DC01BB
:1012300012964D915C9113974F5F5F4F8D919C91EA
:101240000E940702D801ED91FC91119712968D91A1
:101250009C911397E80FF91F10821F910F91089529
:10126000FF920F931F93CF93DF93EC01F62E2A8109
:101270003B818C819D8128173907A1F40881198150
:10128000C9010196880F991F9D838C8301960E9446
:10129000F30088839983CE01B8010E941409C80124
:1012A0000E949D018A819B81E881F981E80FF91FE5
:1012B000F08201969B838A83E881F981E80FF91F08
:1012C0001082CE01DF91CF911F910F91FF90089571
:1012D0000E94300908950F931F93CF93DF93EC0181
:1012E0008B016115710511F400E011E0D8010D903A
:1012F0000020E9F71197A01BB10BBB83AA838C8157
:101300009D818A179B0768F4BD83AC83888199818E
:101310000E949D018A819B8101960E94F30088832F
:10132000998320E030E007C0E881F981E20FF31FE4
:1013300010822F5F3F4F8C819D8128173907A0F3C2
:10134000CE01B8010E941409CE01DF91CF911F9107
:101350000F910895EF92FF920F931F93CF93DF9316
:10136000EC017B01FB01228133818A819B81280F63
:10137000391F3B832A838C819D818217930788F4D0
:10138000088119813D832C83C90101960E94F300D5
:1013900088839983CE01B8010E941409C8010E9474
:1013A0009D01F70160817181888199810E94FC0112
:1013B000E881F9818A819B81E80FF91F1082CE01B3
:1013C000DF91CF911F910F91FF90EF9008950E94B0
:1013D000AA090895EF92FF920F931F93CF93DF9383
:1013E000EC017B016115710521F430E0E32E31E061
:1013F000F32ED7010D900020E9F71197AE19BF0920
:101400008A819B81A80FB91FBB83AA838C819D8190
:101410008A179B0788F408811981BD83AC83CD01AD
:1014200001960E94F30088839983CE01B8010E943F
:101430001409C8010E949D0188819981B7010E9409
:10144000FC01E881F9818A819B81E80FF91F1082F4
:10145000CE01DF91CF911F910F91FF90EF900895F2
:10146000EF92FF920F931F93F82EE92ECB01BA0152
:10147000A9010E94E6088C018F2D9E2DB8010E94C3
:10148000EA09C8010E949D018F2D9E2D1F910F9189
:10149000FF90EF9008950F931F93182F092FAB0122
:1014A000662757FD6095762F2AE030E00E94300ACB
:1014B000812F902F1F910F9108950E94EA0908959E
:1014C0001F93CF93DF93FC01A481B5812C9173818D
:1014D000272309F048C08185928501972FEF8F3F20
:1014E0009207D9F7C385D48560E031E040E050E051
:1014F00010E0CE01212F01972FEF8F3F9207D9F7F0
:101500008C91872311F0632B03C0832F8095682370
:10151000330F4F5F5F4F4830510559F785859685EA
:1015200020E001972FEF8F3F9207D9F78091850335
:101530002091860390E001968F73907030E08217BF
:10154000930779F0E0918503F0E0EB5BFC4F60835B
:101550008091850390E001968F739070809385034E
:1015600002C081E0818BDF91CF911F9108951F927E
:101570000F920FB60F9211242F933F934F935F93C7
:101580006F937F938F939F93AF93BF93EF93FF934B
:101590008091430390914403009711F00E94600AE8
:1015A000FF91EF91BF91AF919F918F917F916F913B
:1015B0005F914F913F912F910F900FBE0F901F9011
:1015C00018951F920F920FB60F9211242F933F93ED
:1015D0004F935F936F937F938F939F93AF93BF933B
:1015E000EF93FF938091430390914403009711F090
:1015F0000E94600AFF91EF91BF91AF919F918F91EF
:101600007F916F915F914F913F912F910F900FBEFE
:101610000F901F9018951F920F920FB60F921124E2
:101620002F933F934F935F936F937F938F939F93EA
:10163000AF93BF93EF93FF93809143039091440343
:10164000009711F00E94600AFF91EF91BF91AF9156
:101650009F918F917F916F915F914F913F912F91CA
:101660000F900FBE0F901F901895CF92DF92EF92C0
:10167000FF920F931F93CF93DF93EC017A018B01BD
:10168000188A1F861E861D861C861B861A8619864A
:1016900020E030E06901CC0CDD1CC20ED31EB60187
:1016A000660F771F660F771FAB0148595F4FFA012E
:1016B00085919591A591B4918E159F05A007B107CD
:1016C000E9F4FB01E459FF4F859194919A8789874A
:1016D000FB01E259FF4F859194919C878B87FB0119
:1016E000E059FF4F859194919E878D87FB01EE58BD
:1016F000FF4F85919491988B8F8706C02F5F3F4F46
:101700002C30310509F0C6CF8D859E85892B09F4D3
:101710004CC03A81383090F48091680084608093A6
:10172000680020916D0081E090E002C0880F991F51
:101730003A95E2F7282B20936D002FC03E30B0F48D
:101740008091680081608093680040916B00232F36
:1017500030E02850304081E090E002C0880F991FAF
:101760002A95E2F7482B40936B0017C03631A8F456
:101770008091680082608093680040916C00232F04
:1017800030E02E50304081E090E002C0880F991F79
:101790002A95E2F7482B40936C008F85988920E0CA
:1017A00001972FEF8F3F9207D9F7809143039091D4
:1017B00044038C179D0771F0198A9FB7F894109213
:1017C00085038091850380938603D0934403C0935F
:1017D00043039FBFDF91CF911F910F91FF90EF9037
:1017E000DF90CF900895FC018091430390914403D2
:1017F0008E179F0779F0118A9FB7F894109285038E
:101800008091850380938603F0934403E093430320
:101810009FBF06C09091860380918503981719F4A5
:101820002FEF3FEF0FC0E0918603F0E0EB5BFC4F42
:1018300020818091860390E001968F739070809351
:10184000860330E0C9010895FC0180914303909123
:1018500044038E179F0781F0118A9FB7F894109266
:1018600085038091850380938603F0934403E0937E
:1018700043039FBF80E008958091850320918603F4
:1018800090E0805C9F4F821B910960E470E00E94B1
:10189000F21E08950F931F93DC011F968D919C916A
:1018A0005097892B09F46EC08091430390914403B3
:1018B0008A179B0781F051961C9251979FB7F89415
:1018C000109285038091850380938603B09344032F
:1018D000A09343039FBF1FB7F8941796ED91FC9117
:1018E0001897908116968C911697809589238083FE
:1018F0001F968D919C915097059620E001972FEFB0
:101900008F3F9207D9F731E040E050E070E000E00F
:10191000832F90E0862397231796ED91FC911897DB
:1019200016962C911697892B21F08081822B80832B
:1019300004C080812095282320831F968D919C913F
:101940005097202F01972FEF8F3F9207D9F7330F32
:101950004F5F5F4F48305105D9F61796ED91FC91D6
:101960001897808116969C911697892B80831FBFAC
:101970001F968D919C91509720E001972FEF8F3FFC
:101980009207D9F71F910F91089520914303309149
:1019900044032817390749F49FB7F8941092850338
:1019A00080918503809386039FBF0895FF920F93D4
:1019B0001F938C01F62E862F60E00E94201A8F2D37
:1019C00061E00E94401AD8011296FC9212978F2D66
:1019D00090E0FC01E65DFE4FE4911396EC931397C3
:1019E0008A5E9E4FFC016491E62FF0E0EE0FFF1F30
:1019F000E45FFE4F8591949115969C938E93149776
:101A00001F910F91FF900895FF920F931F938C01E8
:101A1000F62E862F61E00E94201A8F2D61E00E9431
:101A2000401A8F2D90E0FC01E65DFE4FE491D80155
:101A30001696EC9316978A5E9E4FFC016491E62FF2
:101A4000F0E0EE0FFF1FEE5FFE4F85919491189628
:101A50009C938E9317971F910F91FF900895FF927B
:101A60000F931F938C01F62E86E093E0F80191838B
:101A70008083128611861486138616861586108A30
:101A80001786118AC801642F0E94040DC8016F2DAA
:101A90000E94D60C1F910F91FF9008950F931F93F2
:101AA0008C01FC01848160E00E94401A81E090E09A
:101AB0000E944819F801848161E00E94401A81E087
:101AC00090E00E944819F801848160E00E94401A69
:101AD00084E690E00E9448191F910F910895CF92DB
:101AE000DF92EF92FF920F931F93CF93DF93D82E45
:101AF000C92E282F392FC9018C01C0E0D0E0E62E75
:101B0000FF24F801858161E00E94201AB7010C2EA4
:101B100002C0759567950A94E2F76170F8018581B6
:101B20000E94401A21960F5F1F4FC830D10549F718
:101B30008D2D9C2D0E944E0DDF91CF911F910F9105
:101B4000FF90EF90DF90CF900895CF92DF92EF92C9
:101B5000FF920F931F93CF93DF93D82EC92E282F78
:101B6000392FC9018C01C0E0D0E0E62EFF24F80136
:101B7000858161E00E94201AB7010C2E02C0759584
:101B800067950A94E2F76170F80185810E94401A16
:101B900021960F5F1F4FC430D10549F78D2D9C2D25
:101BA0000E944E0DDF91CF911F910F91FF90EF900A
:101BB000DF90CF9008951F93CF93DF93EC01162F02
:101BC0008A81642F0E94401A8B8160E00E94401A33
:101BD0008D8584FF05C0CE01612F0E946F0D0EC060
:101BE000612F70E084E0759567958A95E1F7CE01E5
:101BF0000E94A50DCE01612F0E94A50DDF91CF910E
:101C00001F91089541E00E94DB0D089540E00E947D
:101C1000DB0D0895FC016685862F846086876C60E5
:101C2000CF010E94060E0895DF93CF93CDB7DEB7A4
:101C300028970FB6F894DEBF0FBECDBF9C01FE0102
:101C40003196A6E1B3E088E00D9001928150E1F772
:101C5000F9018189841710F4482F4150E42FF0E0F6
:101C6000EE0FFF1FEC0FFD1F8181680F6068C90137
:101C70000E94060E28960FB6F894DEBF0FBECDBFA9
:101C8000CF91DF91089561E00E94060E80ED97E00C
:101C90000E9448190895CF93DF93EC01423018F069
:101CA0008D8588608D87498B1A8A222329F04130DF
:101CB00019F48D8584608D8780E593EC0E94481926
:101CC0008A8160E00E94401A8C8160E00E94401A84
:101CD0008B8160E00E94401A6D8564FD1DC0CE01BD
:101CE00063E00E94A50D84E991E10E944819CE01AC
:101CF00063E00E94A50D84E991E10E944819CE019C
:101D000063E00E94A50D86E990E00E944819CE018B
:101D100062E00E94A50D16C06062CE010E94060E10
:101D200084E991E10E9448196D856062CE010E94AC
:101D3000060E86E990E00E9448196D856062CE012A
:101D40000E94060E6D856062CE010E94060E84E040
:101D50008E87CE010E940A0ECE010E94430E82E0C1
:101D60008F87CE0166E00E94060EDF91CF91089525
:101D70006F927F928F92AF92CF92EF920F931F93B9
:101D8000DF93CF93CDB7DEB73C01162F842FF3013D
:101D9000428323830483E582C682A78280869D8551
:101DA00091879E8592879F8593879889948761E024
:101DB0000E94201AF301838161E00E94201AF3013E
:101DC000848161E00E94201A112319F0F301158625
:101DD00003C080E1F3018587C30160E141E020E0B9
:101DE0000E944B0ECF91DF911F910F91EF90CF90FA
:101DF000AF908F907F906F9008958F92AF92CF9217
:101E0000DF92EF92FF920F931F93CF93DF93DC014A
:101E1000362F542F722F102FFE2CDC2C8A2C80E1B1
:101E200093E011969C938E9300D000D0EDB7FEB74F
:101E30003196CDB7DEB71982118212821382CD019D
:101E400061E0432F252F072FE12ECF2CAD2C0E94D0
:101E5000B80E0F900F900F900F90DF91CF911F91C0
:101E60000F91FF90EF90DF90CF90AF908F900895FB
:101E7000AF92CF92EF920F938130910509F049C054
:101E80006F5F7F4F09F066C087E893E066E044E14A
:101E900027E008E079E0E72E5AE0C52E3BE0A32ECC
:101EA0000E94FD0E8AE993E062E370E00E94C2089E
:101EB00080EA93E060E570E00E94C20886EA93E061
:101EC00068E270E00E94C2088CEA93E064E170E08E
:101ED0000E94C20882EB93E06DE070E00E94C208AD
:101EE00088EB93E06CE070E00E94C2088EEB93E018
:101EF0006CE070E00E94C20889EE93E060E143E08C
:101F00000E942F0D8BEF93E06DE040E00E942F0DBB
:101F100021C0892BF9F46F5F7F4FE1F48EEB93E0E2
:101F20000E94BC0888EB93E00E94BC0882EB93E01F
:101F30000E94BC088CEA93E00E94BC0886EA93E009
:101F40000E94BC0880EA93E00E94BC088AE993E002
:101F50000E94BC080F91EF90CF90AF90089580E061
:101F600090E06FEF7FEF0E94380F089581E090E0DE
:101F70006FEF7FEF0E94380F0895CF93DF93C0E09B
:101F8000D0E084E00E948D1A892B19F420E030E023
:101F90000CC06AE070E080E090E00E941E1921967B
:101FA000C436D10571F721E030E0C901DF91CF914E
:101FB0000895EF92FF920F931F93CF93DF93C0E0AA
:101FC000D0E08BEF93E00E94240C893008F452C0DB
:101FD0008BEF93E00E94F30B8093CE038BEF93E0A3
:101FE0000E94F30B8093CF038BEF93E00E94F30BDF
:101FF0008093D0038BEF93E00E94F30B8093D10387
:102000008BEF93E00E94F30B8093D2038BEF93E06E
:102010000E94F30B8093D3038BEF93E00E94F30BAA
:10202000F82EEE24F092D503E092D4038BEF93E0E8
:102030000E94F30BE80EF91EF092D503E092D40350
:1020400000E010E0C801B7010E94AE1D2AEE38E79B
:102050004CEC59E30E94641E6093D6037093D7033F
:102060008093D8039093D90381E08093DA0320E032
:1020700030E02BC064E670E080E090E00E941E1922
:102080002196C431D10509F09CCF1092CE03109255
:10209000CF031092D0031092D1031092D20310926A
:1020A000D3031092D5031092D40380E090E0A0E017
:1020B000B0E08093D6039093D703A093D803B09356
:1020C000D9031092DA0321E030E0C901DF91CF910A
:1020D0001F910F91FF90EF9008951F93CF93DF937F
:1020E0008AE993E065E071E00E946B098CE060E0B2
:1020F0000E94401A62E370E080E090E00E941E19A6
:1021000089EE93E00E94240CC0E0D0E029C089EE63
:1021100093E00E94F30B182F80919C0390919D03F4
:10212000C19734F08AE993E065E071E00E946B09A1
:102130008AE993E0612F0E9468091D3041F489EE1D
:1021400093E00E94240C882311F411E001C010E0F8
:102150006AE070E080E090E00E941E19112359F4BB
:102160002196C536D10539F089EE93E00E94240C02
:10217000882369F3CCCF8CE061E00E94401ADF91A4
:10218000CF911F91089589EE93E04DE050E060E01B
:1021900070E020E030E00E940C1C0E946D108AE983
:1021A00093E066E071E00E940909811181E00895E1
:1021B0000F931F938CE061E00E94401A09EE13E038
:1021C000C80140E855E260E070E00E94350BC801AC
:1021D0000E94C50C8AE993E065E071E00E946B09FA
:1021E00081E061E00E94401A85E060E00E94401AB0
:1021F00064E670E080E090E00E941E1985E061E0F6
:102200000E94401A81E060E00E94401A1F910F91E5
:1022100008958BEF93E040E855E260E070E00E94A3
:10222000350B08958BE393E060E070E041E00E949D
:102230001E0808954F925F926F927F928F929F92A5
:10224000AF92BF92CF92DF92EF92FF920F931F93C4
:10225000DF93CF93CDB7DEB72E970FB6F894DEBFDE
:102260000FBECDBF8CEA93E065E071E00E946B0980
:102270008BE393E062E070E041E00E941E083C01C5
:102280008AE06816710434F48CEA93E06BE071E044
:102290000E945D0A8CEA93E0B3010E944B0A8CEA2B
:1022A00093E06DE071E00E945D0A8BE393E061E0F2
:1022B00070E040E00E941E085C019AE0A916B1049B
:1022C00034F48CEA93E06BE071E00E945D0A8CEAE2
:1022D00093E0B5010E944B0A8CEA93E06DE071E057
:1022E0000E945D0A8BE393E060E070E040E00E94B2
:1022F0001E082C018A30910534F48CEA93E06BE0DF
:1023000071E00E945D0A8CEA93E0B2010E944B0AE0
:102310008CEA93E06FE071E00E945D0A8BE393E04A
:1023200064E070E040E00E941E084C018A30910594
:1023300034F48CEA93E06BE071E00E945D0A8CEA71
:1023400093E0B4010E944B0A8CEA93E061E171E0F2
:102350000E945D0A8BE393E065E070E040E00E943C
:102360001E086C018AE0C816D10434F48CEA93E0AC
:102370006BE071E00E945D0A8CEA93E0B6010E9476
:102380004B0A8CEA93E061E171E00E945D0A8BE305
:1023900093E066E070E040E00E941E088C018CEA49
:1023A00093E0B8010E944B0AADB7BEB718970FB6BD
:1023B000F894BEBF0FBEADBFEDB7FEB731967E013C
:1023C0000894E11CF11C1296FC92EE92119783E1A5
:1023D00091E09383828395E0CC0CDD1C9A95E1F724
:1023E000C828D9280C5B1740102F0027110FC02ACE
:1023F000D12AD582C482B5E0AA0CBB1CBA95E1F7FC
:10240000762C6624770C770C770CA628B728C201A7
:1024100062E070E00E94F21ECB0162E070E00E9478
:10242000F21EA62AB72AB782A6820E9464028DB73E
:102430009EB708960FB6F8949EBF0FBE8DBF82EB75
:1024400093E0B7010E946B092E960FB6F894DEBF99
:102450000FBECDBFCF91DF911F910F91FF90EF90F5
:10246000DF90CF90BF90AF909F908F907F906F90B4
:102470005F904F90089587E893E00E94430E87E8AD
:1024800093E060E040E00E94140E87E893E06BE187
:1024900071E00E94391B87E893E060E041E00E9410
:1024A000140E8091C6039091C7038430910509F4FE
:1024B00047C0853091053CF481309105A1F0029729
:1024C00009F079C025C08730910509F44AC08830E9
:1024D000910521F0059709F06EC02DC087E893E0C3
:1024E00069E271E010C087E893E06AE371E00E945E
:1024F000391B87E893E060E042E00E94140E87E811
:1025000093E066E471E00E94391B1092E80359C021
:1025100087E893E063E571E00E94391B87E893E068
:1025200060E042E00E94140E60919A0370919B0358
:1025300087E893E0E8CF87E893E067E671E0E3CFD0
:1025400087E893E069E771E00E94391B87E893E030
:1025500060E042E00E94140E87E893E063E871E0D7
:102560002EC087E893E064E971E00E94391B87E898
:1025700093E060E042E00E94140E87E893E065EA91
:1025800071E00E94391B2091E6033091E7038BEF45
:102590009FEF289FB001299F700D389F700D112467
:1025A000615F7F4F87E893E00E94041C87E893E017
:1025B00062EB71E004C087E893E068EB71E00E9491
:1025C000391B68EE73E080E090E00E941E190895C8
:1025D000DF92EF92FF920F931F938C0122E4E22E81
:1025E00023E0F22EC701B8010E949808D82E0F5F91
:1025F0001F4FC701B8010E949808382F20E02D0D09
:10260000311DC9011F910F91FF90EF90DF90089548
:10261000DF92EF92FF920F931F938C01462FD72EDC
:1026200032E4E32E33E0F32EC701B8010E949F0885
:102630000F5F1F4FC701B8014D2D0E949F081F91CA
:102640000F91FF90EF90DF9008958F929F92AF923D
:10265000BF92CF92DF92EF92FF920F931F93CF938F
:10266000DF937B018C01842E20E030E040E050E0DD
:102670000E94111D88234CF487E893E06DE20E94CC
:10268000311B17FB109517F91095C801B7010E946F
:102690007D1D9B01AC01EB0187E893E0B9010E942D
:1026A000041C882009F479C087E893E060EC71E0AD
:1026B0000E94391B982C41E0A42EB12CC12CD12CA6
:1026C000C601B5012AE030E040E050E00E94C71E9C
:1026D0005B016C019A94A1F7C801B70120E030E0DA
:1026E00040E050E00E94601E9E01442737FD409567
:1026F000542F88234CF0CA01B9010E94B01D9B01E0
:10270000AC01C801B70106C0CA01B9010E94B01DE1
:10271000A80197010E94AC1C7B018C01C601B50188
:102720000E94AE1D9B01AC01C801B7010E94641E4E
:102730000E94821DD62EE72EF82E092F182D11503B
:10274000262F372F482F592FC901DA01BC01CD019F
:1027500001C011502AE030E040E050E00E94051F27
:10276000C901DA01BC01CD01611571058105910531
:1027700081F707C087E893E06BE071E00E94391BA6
:1027800011501123B9F787E893E04D2D5E2D6F2D81
:10279000702F2AE030E00E940C1CDF91CF911F9136
:1027A0000F91FF90EF90DF90CF90BF90AF909F90F0
:1027B0008F900895CF93DF9387E893E00E94430EB4
:1027C0000E941A118091C6039091C703892B19F0BA
:1027D0000E943B12AEC087E893E062EC71E00E9479
:1027E000391B8091C8039091C9038330910529F169
:1027F0008430910534F481309105A9F0029761F598
:1028000017C08530910551F085309105DCF00697B1
:1028100019F587E893E06BEC71E01CC087E893E062
:1028200065ED71E017C087E893E06DED71E012C0CF
:1028300087E893E069EE71E00DC087E893E066EF0A
:1028400071E008C087E893E00E94430E87E893E0B8
:102850006EEF71E00E94391B87E893E060E041E091
:102860000E94140EC0E0D0E08CEA93E0BE010E940A
:10287000AB08682F87E893E00E94020E2196C830CB
:10288000D10591F78091E803882371F087E893E000
:102890006FE072E00E94391B6091CC037091CD0310
:1028A00087E893E00E94041C87E893E060E042E040
:1028B0000E94140E809100038230F1F0833039F0D1
:1028C0008130B9F587E893E066E172E004C087E8FB
:1028D00093E065E272E00E94391B6091DC03709125
:1028E000DD038091DE039091DF0320E030E04EE8CD
:1028F00052E40E94151D14C087E893E063E372E080
:102900000E94391B8091D0036AE00E94E61E90E08D
:10291000AA2797FDA095BA2FBC01CD010E94B01D3A
:1029200041E00E94251387E893E063E272E00E9491
:10293000391BDF91CF9108950F931F938C0180E095
:1029400060E00E94401A81E061E00E94401A10930A
:10295000C7030093C6030E94DA131F910F910895D5
:10296000CF93DF93EC010E94BD0F019721F481E02A
:1029700090E00E949C1489EE93E0BE010E94391BF6
:10298000DF91CF9108950F931F93CF93DF93EC01C5
:102990008B010E94BD0F019719F481E090E025C0E2
:1029A00089EE93E0BE010E94391B89EE93E04DE071
:1029B00050E060E070E020E030E00E940C1C012B51
:1029C000E1F00E946D108AE993E066E071E00E94F8
:1029D0000909882391F48AE993E063E472E00E9494
:1029E0000909882339F085E090E00E949C1421E0D9
:1029F00030E005C082E090E0F8CF20E030E0C9018F
:102A0000DF91CF911F910F91089586EA93E062E5DF
:102A100072E00E946B0986EA93E068EB73E00E9423
:102A2000E70986EA93E062EB73E00E94E709809190
:102A3000A6039091A70361E070E00E94C3149C017B
:102A4000009711F021E030E0C901089586EA93E093
:102A500067E572E00E946B0986EA93E068EB73E039
:102A60000E94E7098091A6039091A70361E070E0BE
:102A70000E94C3149C01009711F021E030E0C901CD
:102A800008950F931F930E940515892B99F586EAE7
:102A900093E06CE572E00E946B090091A80310912D
:102AA000A90386EA93E064E772E00E946B0986EA74
:102AB00093E0B8010E944B0A8091A6039091A7036E
:102AC00060E070E00E94C314892BA1F486EA93E0D1
:102AD0006CE572E00E946B098091A6039091A703B8
:102AE0000E94B0140E942615009711F081E090E03A
:102AF0009C0102C021E030E0C9011F910F910895AF
:102B00000E940515892B09F074C00E941A1180EAF1
:102B100093E069E772E00E946B0980EA93E06EE758
:102B200072E00E945D0A80EA93E06DE071E00E942D
:102B30005D0A6091CC037091CD0380EA93E00E941E
:102B40004B0A80EA93E06FE071E00E945D0A80EA40
:102B500093E06CEA73E00E94E70980EA93E06FE09B
:102B600071E00E945D0A6091C6037091C70380EA1C
:102B700093E00E944B0A8091C6039091C70303978C
:102B800061F480EA93E06FE071E00E945D0A80EA00
:102B900093E06AE973E00E94E70980EA93E062E863
:102BA00072E00E945D0A86EA93E064E772E00E94A8
:102BB0006B096091A2037091A30386EA93E00E94DF
:102BC0004B0A8091A6039091A70360E070E00E94F9
:102BD000C314892B71F48091A0039091A1030E94EA
:102BE000B0140E942615009711F081E090E09C013E
:102BF00002C021E030E0C901089581E060E00E9458
:102C0000401A80E061E00E94401A0E9480151092F4
:102C1000C7031092C603089586EA93E064E872E061
:102C20000E946B098091A6039091A70361E070E078
:102C30000E94C31481E090E00E94E812BC019093CE
:102C4000CD038093CC036F5F7F4F81E090E00E94C3
:102C5000081388EB93E06EE772E00E946B0988EB43
:102C600093E068E872E00E945D0A6091CC03709185
:102C7000CD0388EB93E00E944B0A88EB93E06AE86F
:102C800072E00E945D0A0E944115019739F483E0C9
:102C900090E00E949C1421E030E005C081E0809328
:102CA000E80320E030E0C90108950E940515892B52
:102CB00009F0BBC00E941A1180EA93E06FE872E04D
:102CC0000E946B0980EA93E06EE772E00E945D0A61
:102CD00080EA93E06DE071E00E945D0A6091CC03B0
:102CE0007091CD0380EA93E00E944B0A80EA93E062
:102CF0006FE071E00E945D0A80EA93E06CEA73E0A5
:102D00000E94E70980EA93E06FE071E00E945D0AAB
:102D10006091D00380EA93E070E00E944B0A80EA61
:102D200093E06FE071E00E945D0A6091D6037091BC
:102D3000D7038091D8039091D9030E947D1D9B01F8
:102D4000AC0180EA93E0B9010E944B0A80EA93E06B
:102D50006FE071E00E945D0A6091CF0380EA93E02A
:102D600070E00E944B0A80EA93E06FE071E00E94FD
:102D70005D0A6091CE0380EA93E070E00E944B0A06
:102D800080EA93E06FE071E00E945D0A6091DC03ED
:102D90007091DD038091DE039091DF030E947D1D21
:102DA0009B01AC0180EA93E0B9010E944B0A80EAE2
:102DB00093E062E872E00E945D0A8091A403909122
:102DC000A5032091A2033091A303821B930B181635
:102DD00019062CF086E090E00E949C1426C086EA3A
:102DE00093E064E772E00E946B096091A203709126
:102DF000A30386EA93E00E944B0A8091A603909178
:102E0000A70360E070E00E94C314892B71F48091E5
:102E1000A0039091A1030E94B0140E942615009770
:102E200011F081E090E09C0102C021E030E0C90196
:102E3000089580E00E94B31981E061E00E94401A89
:102E400087E893E00E94430E87E893E060E040E06B
:102E50000E94140E80910003813081F487E893E092
:102E600064E972E00E94391B82E00E948D1A892B6E
:102E7000D9F381E160E00E94401AFFCF87E893E038
:102E800064EA72E00E94391B87E893E060E041E069
:102E90000E94140E87E893E065EB72E00E94391BF4
:102EA00082E00E948D1A892BD9F381E060E00E94B4
:102EB000401A80E06FE278E140E050E00E94901913
:102EC0000895CF93DF930E941211EC018091CA0301
:102ED0009091CB03C817D90709F476C0D093CB03E0
:102EE000C093CA0380E00E94DC1AAA2797FDA09530
:102EF000BA2FBC01CD010E94B01D6093DC0370931A
:102F0000DD038093DE039093DF0381E00E94DC1AEF
:102F1000AA2797FDA095BA2FBC01CD010E94B01D34
:102F20006093E0037093E1038093E2039093E303E3
:102F300020E030E04AEF53E40E94601E181614F4BB
:102F400083E005C08091DB03813021F482E080932F
:102F5000000332C081E0809300036091DC03709134
:102F6000DD038091DE039091DF0320E030E841E350
:102F700054E40E94111D88239CF487E090E00E9495
:102F80009C148091E6039091E70301969093E703E8
:102F90008093E603019702977CF00E9419170CC0FA
:102FA0008091C6039091C703079731F40E94FD15E5
:102FB0001092E7031092E60385E090E09093C90336
:102FC0008093C8030E94DA13CE016EE170E00E9484
:102FD000F21E892B09F040C01092E5031092E40321
:102FE0000E94C310882331F18091E8038130C1F43D
:102FF00083E090E09093C9038093C8030E94DA13A2
:103000008091C4039091C50301969093C50380936A
:10301000C4030E945516892B69F00E94FD150AC051
:1030200081E090E09093C9038093C8030E94DA1373
:103030000E940C1682E090E09093C9038093C8032D
:103040000E94DA130E94D90F892B19F01092DB032A
:1030500003C081E08093DB03DF91CF9108958091DD
:10306000E4039091E50301969093E5038093E403D4
:103070008091E4039091E5034F9734F01092E503BB
:103080001092E4030E94191708950F931F93109252
:10309000C5031092C4031092DB0380E061E00E943C
:1030A000201A81E061E00E94201A84E060E00E9422
:1030B000201A8CE061E00E94201A8CE061E00E94FE
:1030C000401A85E061E00E94201A85E061E00E94DC
:1030D000401A81E161E00E94201A82E060E00E94D3
:1030E000201A82E061E00E94401A80E061E00E94C4
:1030F000401A81E060E00E94401A81E161E00E9494
:10310000401A07E813E0C80164E144E020E00E94AF
:103110004B0EC8010E94430EC80169EC72E00E9488
:10312000391BC80160E041E00E94140EC8016CED3B
:1031300072E00E94391BC80160E043E00E94140E57
:10314000C8016DEE72E00E94391BC8016EE772E0A3
:103150000E94391BC80162EF72E00E94391BC8014E
:103160004DEC5CEC6CE87FE30E94A81C6CED75E014
:1031700080E090E00E941E1980E06FE278E140E07C
:1031800050E00E949019C8010E94430E0E9409114C
:103190000E941A110E94D8101F910F9108950E9449
:1031A00056190E9445180E946117FDCF1F920F9279
:1031B0000FB60F9211242F933F938F939F93AF934A
:1031C000BF938091110490911204A0911304B091C7
:1031D0001404309115040196A11DB11D232F2D5FFC
:1031E0002D3720F02D570196A11DB11D20931504F8
:1031F0008093110490931204A0931304B0931404C9
:1032000080910D0490910E04A0910F04B0911004D0
:103210000196A11DB11D80930D0490930E04A093FF
:103220000F04B0931004BF91AF919F918F913F9184
:103230002F910F900FBE0F901F901895EF92FF9255
:103240000F931F937B018C018FB7F8944091110469
:103250005091120460911304709114048FBF2FB722
:10326000F8948091110490911204A0911304B091EC
:1032700014042FBF841B950BA60BB70BE816F90699
:103280000A071B0760F71F910F91FF90EF900895B9
:10329000019759F0FC01EE0FFF1FEE0FFF1F329751
:1032A0008FB7F8943197F1F78FBF0895789484B56C
:1032B000826084BD84B5816084BD85B5826085BD32
:1032C00085B5816085BDEEE6F0E080818160808318
:1032D000E1E8F0E08081826080838081816080838A
:1032E000E0E8F0E0808181608083E1EBF0E08081C4
:1032F00084608083E0EBF0E0808181608083EAE796
:10330000F0E080818460808380818260808380811E
:10331000816080838081806880831092C1000895DD
:10332000823000F5E82FF0E0EE0FFF1FEA5EFB4F62
:1033300071836083882319F08130A1F408C08091E3
:1033400069008C7F842B80936900E89A08958091AE
:103350006900440F551F440F551F837F842B8093B2
:103360006900E99A0895823080F4882319F0813049
:1033700021F402C0E89801C0E998E82FF0E0EE0FD0
:10338000FF1FEA5EFB4F1182108208951F920F9279
:103390000FB60F9211242F933F934F935F936F9328
:1033A0007F938F939F93AF93BF93EF93FF938091FE
:1033B000160490911704892B29F0E0911604F091DE
:1033C00017040995FF91EF91BF91AF919F918F9154
:1033D0007F916F915F914F913F912F910F900FBE11
:1033E0000F901F9018951F920F920FB60F921124F5
:1033F0002F933F934F935F936F937F938F939F93FD
:10340000AF93BF93EF93FF938091180490911904A9
:10341000892B29F0E0911804F09119040995FF9186
:10342000EF91BF91AF919F918F917F916F915F913C
:103430004F913F912F910F900FBE0F901F901895B5
:10344000282F30E0C901865D9E4FFC0194912A5ED1
:103450003E4FF9018491882391F0E82FF0E0EE0FC0
:10346000FF1FE850FF4FA591B491662329F48C917A
:10347000909589238C9308958C91892B8C93089532
:10348000482F50E0CA01825C9E4FFC012491CA0182
:10349000865D9E4FFC0194914A5E5E4FFA01349125
:1034A0003323D1F1222331F1233021F480918000A4
:1034B0008F7705C0243031F4809180008F7D809318
:1034C000800018C0213019F484B58F7704C02230F1
:1034D00021F484B58F7D84BD0DC0263021F4809108
:1034E000B0008F7705C0273029F48091B0008F7D20
:1034F0008093B000E32FF0E0EE0FFF1FEE5FFE4F72
:10350000A591B491662329F48C91909589238C938D
:1035100008958C91892B8C930895682F70E0CB01CE
:10352000825C9E4FFC012491CB01865D9E4FFC0185
:1035300044916A5E7E4FFB019491992319F420E037
:1035400030E038C0222331F1233021F48091800013
:103550008F7705C0243031F4809180008F7D809377
:10356000800018C0213019F484B58F7704C0223050
:1035700021F484B58F7D84BD0DC0263021F4809167
:10358000B0008F7705C0273029F48091B0008F7D7F
:103590008093B000892F90E0880F991F845F9E4F21
:1035A000FC01A591B4918C9120E030E0842311F0CE
:1035B00021E030E0C90108958F7090910103929548
:1035C000990F990F907C982B90937C0080917A00B2
:1035D000806480937A0080917A0086FDFCCF2091F0
:1035E000780040917900942F80E030E0282B392B2F
:1035F000C90108950F931F93CF93DF938C01EB01C3
:1036000009C02196D801ED91FC910190F081E02D47
:10361000C801099568816623A1F7DF91CF911F91B9
:103620000F910895EF92FF920F931F93CF93DF9323
:103630008C017B01EA010CC0D7016D917D01D8019D
:10364000ED91FC910190F081E02DC8010995219741
:10365000209791F7DF91CF911F910F91FF90EF90FD
:103660000895DC01ED91FC910190F081E02D099528
:103670000895DC01ED91FC910280F381E02D099524
:1036800008952F923F924F925F926F927F928F9206
:103690009F92AF92BF92CF92DF92EF92FF920F93E1
:1036A0001F93DF93CF93CDB7DEB7A0970FB6F894F3
:1036B000DEBF0FBECDBF1C016A017B014115510564
:1036C0006105710549F4DC01ED91FC910190F081F7
:1036D000E02D60E3099554C0882499245401422EBA
:1036E00055246624772401E010E00C0F1D1F080DFF
:1036F000191DC701B601A30192010E94051FF8011F
:1037000060830894811C911CA11CB11CC701B601E7
:10371000A30192010E94051FC901DA016C017D011C
:10372000C114D104E104F104F1F681E0E82EF12C9A
:10373000EC0EFD1EE80CF91C3E010894611C711C86
:10374000D501C4010197A109B1096C01C818D908B4
:1037500014C0F601EE0DFF1D60816A3010F4605D4B
:1037600001C0695CD101ED91FC910190F081E02DE7
:10377000C10109950894E108F1086E147F0449F726
:10378000A0960FB6F894DEBF0FBECDBFCF91DF91EC
:103790001F910F91FF90EF90DF90CF90BF90AF906F
:1037A0009F908F907F906F905F904F903F902F9061
:1037B00008952AE00E94411B0895EF92FF920F9313
:1037C0001F93CF93DF93EC017A018B0177FF0FC03A
:1037D000E881F9810190F081E02D6DE20995109565
:1037E0000095F094E094E11CF11C011D111DCE0127
:1037F000B801A7012AE00E94411BDF91CF911F91E0
:103800000F91FF90EF900895AB01662757FD6095EB
:10381000762F0E94DD1B0895DC012115310541F44E
:10382000ED91FC910190F081E02D642F09950895B0
:103830002A30310519F40E94DD1B08950E94411BB6
:1038400008959F92AF92BF92CF92DF92EF92FF9234
:103850000F931F93CF93DF93EC017A018B01922E8C
:10386000CB01BA0120E030E040E050E00E94111DA1
:10387000882364F4E881F9810190F081E02DCE0184
:103880006DE2099517FB109517F9109520E030E0CF
:1038900040E05FE3AA240BC0CA01B90120E030E098
:1038A00040E251E40E94151D9B01AC01A394A914B0
:1038B00098F3C801B7010E94AD1C5B016C010E9426
:1038C000821D7B018C01CE01B801A7010E94D91B8A
:1038D000992029F0CE0168EF72E00E94391BC801DF
:1038E000B7010E94AE1D9B01AC01C601B5010E944B
:1038F000AC1C20C020E030E040E251E40E94641E95
:103900007B018C010E947D1D5B016C01CC24B7FC06
:10391000C094DC2CCE01B601A5010E94DD1BC601BE
:10392000B5010E94B01D9B01AC01C801B7010E9406
:10393000AC1C9A949920F1F6DF91CF911F910F91D1
:10394000FF90EF90DF90CF90BF90AF909F90089541
:1039500022E00E94211C08955058BB27AA270ED0B0
:1039600075C166D130F06BD120F031F49F3F11F476
:103970001EF45BC10EF4E095E7FB51C1E92F77D14E
:1039800080F3BA17620773078407950718F071F47C
:103990009EF58FC10EF4E0950B2EBA2FA02D0B01D2
:1039A000B90190010C01CA01A0011124FF27591B84
:1039B00099F0593F50F4503E68F11A16F040A22F8A
:1039C000232F342F4427585FF3CF469537952795FB
:1039D000A795F0405395C9F77EF41F16BA0B620BFA
:1039E000730B840BBAF09150A1F0FF0FBB1F661F41
:1039F000771F881FC2F70EC0BA0F621F731F841F84
:103A000048F4879577956795B795F7959E3F08F0A9
:103A1000B3CF9395880F08F09927EE0F9795879568
:103A20000895D9D008F481E008950CD00FC107D1D2
:103A300040F0FED030F021F45F3F19F0F0C051119A
:103A400039C1F3C014D198F39923C9F35523B1F3C5
:103A5000951B550BBB27AA2762177307840738F0FD
:103A60009F5F5F4F220F331F441FAA1FA9F333D05C
:103A70000E2E3AF0E0E830D091505040E695001C10
:103A8000CAF729D0FE2F27D0660F771F881FBB1FCC
:103A9000261737074807AB07B0E809F0BB0B802DA6
:103AA000BF01FF2793585F4F2AF09E3F510568F0F2
:103AB000B6C000C15F3FECF3983EDCF38695779586
:103AC0006795B795F7959F5FC9F7880F911D9695F4
:103AD000879597F90895E1E0660F771F881FBB1F50
:103AE000621773078407BA0720F0621B730B840BFD
:103AF000BA0BEE1F88F7E095089504D06894B111D1
:103B0000D9C00895BCD088F09F5790F0B92F99275D
:103B1000B751A0F0D1F0660F771F881F991F1AF0D8
:103B2000BA95C9F712C0B13081F0C3D0B1E00895A1
:103B3000C0C0672F782F8827B85F39F0B93FCCF322
:103B4000869577956795B395D9F73EF490958095CE
:103B5000709561957F4F8F4F9F4F0895E89409C0EE
:103B600097FB3EF490958095709561957F4F8F4FB0
:103B70009F4F9923A9F0F92F96E9BB279395F695C6
:103B8000879577956795B795F111F8CFFAF4BB0F44
:103B900011F460FF1BC06F5F7F4F8F4F9F4F16C0A8
:103BA000882311F096E911C0772321F09EE8872F32
:103BB000762F05C0662371F096E8862F70E060E0EE
:103BC0002AF09A95660F771F881FDAF7880F969567
:103BD000879597F90895990F0008550FAA0BE0E80B
:103BE000FEEF16161706E807F907C0F012161306BF
:103BF000E407F50798F0621B730B840B950B39F4FF
:103C00000A2661F0232B242B252B21F408950A2664
:103C100009F4A140A6958FEF811D811D089597F9A4
:103C20009F6780E870E060E008959FEF80EC089562
:103C300000240A941616170618060906089500248B
:103C40000A9412161306140605060895092E039405
:103C5000000C11F4882352F0BB0F40F4BF2B11F479
:103C600060FF04C06F5F7F4F8F4F9F4F089557FDD8
:103C70009058440F551F59F05F3F71F04795880FDA
:103C800097FB991F61F09F3F79F087950895121671
:103C900013061406551FF2CF4695F1DF08C016161D
:103CA00017061806991FF1CF8695710561050894CE
:103CB0000895E894BB2766277727CB0197F90895E5
:103CC0008ADF08F48FEF08950BD0C0CFB1DF28F062
:103CD000B6DF18F0952309F0A2CFA7CF1124EACFC1
:103CE000C6DFA0F3959FD1F3950F50E0551F629F5B
:103CF000F001729FBB27F00DB11D639FAA27F00D45
:103D0000B11DAA1F649F6627B00DA11D661F829F6B
:103D10002227B00DA11D621F739FB00DA11D621F50
:103D2000839FA00D611D221F749F3327A00D611D6D
:103D3000231F849F600D211D822F762F6A2F11244F
:103D40009F5750408AF0E1F088234AF0EE0FFF1FA2
:103D5000BB1F661F771F881F91505040A9F79E3FD9
:103D6000510570F05CCFA6CF5F3FECF3983EDCF3DB
:103D7000869577956795B795F795E7959F5FC1F716
:103D8000FE2B880F911D9695879597F90895629F50
:103D9000D001739FF001829FE00DF11D649FE00D43
:103DA000F11D929FF00D839FF00D749FF00D659FA4
:103DB000F00D9927729FB00DE11DF91F639FB00DA3
:103DC000E11DF91FBD01CF0111240895991B79E070
:103DD00004C0991F961708F0961B881F7A95C9F79B
:103DE0008095089597FB092E07260AD077FD04D009
:103DF0002ED006D000201AF4709561957F4F08955B
:103E0000F6F7909581959F4F0895A1E21A2EAA1B6F
:103E1000BB1BFD010DC0AA1FBB1FEE1FFF1FA2177A
:103E2000B307E407F50720F0A21BB30BE40BF50B77
:103E3000661F771F881F991F1A9469F76095709500
:103E4000809590959B01AC01BD01CF010895AA1BFF
:103E5000BB1B51E107C0AA1FBB1FA617B70710F075
:103E6000A61BB70B881F991F5A95A9F780959095A7
:103E7000BC01CD010895EE0FFF1F0590F491E02DD8
:103E800009942F923F924F925F926F927F928F92FE
:103E90009F92AF92BF92CF92DF92EF92FF920F93D9
:103EA0001F93CF93DF93CDB7DEB7CA1BDB0B0FB6E3
:103EB000F894DEBF0FBECDBF09942A8839884888A0
:103EC0005F846E847D848C849B84AA84B984C88436
:103ED000DF80EE80FD800C811B81AA81B981CE0F2D
:103EE000D11D0FB6F894DEBF0FBECDBFED01089512
:103EF00011E0C8E5D1E004C0FE010E943D1F2296FA
:0A3F0000CA35D107C9F7F894FFCFC6
:103F0A0000302E340000443A5C3E0030003A002C67
:103F1A00002F002030782558255800737461747575
:103F2A00733A206572726F7200676976696E6720EC
:103F3A007570206F6E207573620077616974206FE7
:103F4A006E2075736200706C7567206469736B20EC
:103F5A00696E0055534220636F6D6D616E64206611
:103F6A0061696C65643A0055534220737469636BE6
:103F7A002072656D6F766564006675656C20636591
:103F8A006C6C006E6F742073656E64696E67206472
:103F9A00617461006261747465727920746F6F2054
:103FAA006C6F77210073687574646F776E20696E21
:103FBA002000207365637300756E6B6E6F776E00F9
:103FCA002E007374617475733A20007573622072DF
:103FDA00656164790072756E6E696E6700776169F2
:103FEA0074206F6E205553420077616974206F6E9A
:103FFA002064617461006C6F6767696E670073683B
:10400A00757474696E6720646F776E2E2E2E002089
:10401A006C6F672023007573696E67206261747420
:10402A003A200056006368617267652062617474A1
:10403A003A20007573696E67206675656C63656CF6
:10404A006C3A004465766963652052656D6F7665E2
:10405A0064004F50572000434C4620007479706525
:10406A002C69642C74696D652C646174652C6461B7
:10407A0074610A0057524620006572722C007070F3
:10408A0031000A00495041002D002E435356006C5E
:10409A006F672C00737769746368696E67206F664F
:1040AA00662E2E00737769746368206F6666206DCA
:1040BA0061696E7300616E64206675656C20636564
:1040CA006C6C20666972737400687474703A2F2F6E
:1040DA00706F7765727061636B732E004172636FE4
:1040EA006C61456E657267792E636F6D0049443A5B
:1040FA0020002053573A20002E0020001E04000002
:10410A000101000000004A0CFA1A121B000000000C
:0E411A00020EFA1A121B00004000140054009E
:00000001FF
