:100000000C9462000C948A000C948A000C948A0070
:100010000C948A000C948A000C948A000C948A0038
:100020000C948A000C942F010C948A000C948A0082
:100030000C948A000C948A000C948A000C948A0018
:100040000C94B7050C948A000C948A000C948A00D6
:100050000C948A000C948A000C948A000C948A00F8
:100060000C948A000C948A000000000024002700F1
:100070002A0000000000250028002B0000000000DE
:1000800023002600290004040404040404040202DA
:100090000202020203030303030301020408102007
:1000A0004080010204081020010204081020000012
:1000B0000007000201000003040600000000000029
:1000C00000005E0311241FBECFEFD4E0DEBFCDBF22
:1000D00011E0A0E0B1E0EEE6F3E102C005900D9280
:1000E000A036B107D9F711E0A0E6B1E001C01D923A
:1000F000A13AB107E1F710E0C4ECD0E004C02297C8
:10010000FE010E94B109C23CD107C9F70E94B005A7
:100110000C94B5090C9400000F931F938B019C0164
:10012000809170008E7F809370008091B0008C7FF2
:100130008093B0008091B100877F8093B10080915F
:10014000B6008F7D8093B600809170008D7F809384
:1001500070008091B10084608093B1008091B10003
:100160008C7F8093B10086E090E090936C01809347
:100170006B01011511052105310569F481E090E05D
:10018000A0E0B0E08093600190936101A0936201D0
:10019000B093630108C00093600110936101209344
:1001A00062013093630150936501409364011F9194
:1001B0000F910895109266011092670110926801E4
:1001C0001092690110926A0180916B0190916C010B
:1001D0008093B200E0E7F0E0808181608083089541
:1001E0008091660190916701A0916801B0916901C9
:1001F0000196A11DB11D8093660190936701A093A4
:100200006801B093690120916601309167014091C6
:100210006801509169018091600190916101A09104
:100220006201B0916301281739074A075B07B0F0F4
:1002300080916A01882391F481E080936A01109291
:100240006601109267011092680110926901E091B5
:100250006401F0916501099510926A0108951F9259
:100260000F920FB60F9211242F933F934F935F93EA
:100270006F937F938F939F93AF93BF93EF93FF936E
:1002800080916B0190916C018093B2000E94F0000C
:10029000FF91EF91BF91AF919F918F917F916F915E
:1002A0005F914F913F912F910F900FBE0F901F9034
:1002B0001895F999FECF72BD61BDF89A80B5089581
:1002C000F999FECF1FBA72BD61BD40BD0FB6F8945B
:1002D000FA9AF99A0FBE08950F931F938C01FC01AF
:1002E000848160E00E949F0681E090E00E943706D2
:1002F000F801848161E00E949F0681E090E00E9405
:100300003706F801848160E00E949F0684E690E051
:100310000E9437061F910F910895CF92DF92EF92BE
:10032000FF920F931F93CF93DF93D82EC92E282FC0
:10033000392FC9018C01C0E0D0E0E62EFF24F8017E
:10034000858161E00E947F06B7010C2E02C0759581
:1003500067950A94E2F76170F80185810E949F0613
:1003600021960F5F1F4FC830D10549F78D2D9C2D69
:100370000E946C01DF91CF911F910F91FF90EF9040
:10038000DF90CF900895CF92DF92EF92FF920F937C
:100390001F93CF93DF93D82EC92E282F392FC90151
:1003A0008C01C0E0D0E0E62EFF24F801858161E0F9
:1003B0000E947F06B7010C2E02C0759567950A94BE
:1003C000E2F76170F80185810E949F0621960F5F18
:1003D0001F4FC430D10549F78D2D9C2D0E946C0113
:1003E000DF91CF911F910F91FF90EF90DF90CF9011
:1003F00008951F93CF93DF93EC01162F8A81642F0A
:100400000E949F068B8160E00E949F068D8584FF7D
:1004100005C0CE01612F0E948D010EC0612F70E0DA
:1004200084E0759567958A95E1F7CE010E94C30136
:10043000CE01612F0E94C301DF91CF911F910895DA
:1004400041E00E94F901089540E00E94F9010895F9
:10045000FC016685862F846086876C60CF010E94D0
:1004600024020895DF93CF93CDB7DEB728970FB658
:10047000F894DEBF0FBECDBF9C01FE013196A8E50A
:10048000B1E088E00D9001928150E1F7F901818996
:10049000841710F4482F4150E42FF0E0EE0FFF1FB7
:1004A000EC0FFD1F8181680F6068C9010E94240262
:1004B00028960FB6F894DEBF0FBECDBFCF91DF9167
:1004C000089562E00E94240280ED97E00E943706C2
:1004D000089561E00E94240280ED97E00E943706B3
:1004E0000895CF93DF93EC01423018F08D8588603A
:1004F0008D87498B1A8A222329F0413019F48D8582
:1005000084608D8780E593EC0E9437068A8160E0E5
:100510000E949F068C8160E00E949F068B8160E0B4
:100520000E949F066D8564FD1DC0CE0163E00E94A0
:10053000C30184E991E10E943706CE0163E00E9485
:10054000C30184E991E10E943706CE0163E00E9475
:10055000C30186E990E00E943706CE0162E00E9466
:10056000C30116C06062CE010E94240284E991E1B9
:100570000E9437066D856062CE010E94240286E9E2
:1005800090E00E9437066D856062CE010E942402D1
:100590006D856062CE010E94240284E08E87CE01C8
:1005A0000E942802CE010E94690282E08F87CE015C
:1005B00066E00E942402DF91CF9108956F927F92AE
:1005C0008F92AF92CF92EF920F931F93DF93CF93BF
:1005D000CDB7DEB73C01162F842FF301428323836E
:1005E0000483E582C682A78280869D8591879E8549
:1005F00092879F8593879889948761E00E947F0600
:10060000F301838161E00E947F06F301848161E050
:100610000E947F06112319F0F301158603C080E1C3
:10062000F3018587C30160E141E020E00E9471028F
:10063000CF91DF911F910F91EF90CF90AF908F905E
:100640007F906F9008958F92AF92CF92DF92EF924A
:10065000FF920F931F93CF93DF93DC01362F542F1C
:10066000722F102FFE2CDC2C8A2C82E591E0119643
:100670009C938E9300D000D0EDB7FEB73196CDB7E6
:10068000DEB71982118212821382CD0161E0432FFD
:10069000252F072FE12ECF2CAD2C0E94DE020F90CC
:1006A0000F900F900F90DF91CF911F910F91FF90BE
:1006B000EF90DF90CF90AF908F900895AF92CF9250
:1006C000EF920F938EE691E060E04DE021E002E0D2
:1006D00073E0E72E54E0C52E35E0A32E0E942303DD
:1006E0000F91EF90CF90AF900895DF92EF92FF922D
:1006F0000F931F938C01EDE6EE2EE1E0FE2EC70175
:10070000B8010E945901D82E0F5F1F4FC701B801D1
:100710000E945901382F20E02D0D311DC9011F9174
:100720000F91FF90EF90DF900895DF92EF92FF928C
:100730000F931F938C01462FD72EFDE6EF2EF1E08D
:10074000FF2EC701B8010E9460010F5F1F4FC70154
:10075000B8014D2D0E9460011F910F91FF90EF9005
:10076000DF90089589E061E00E949F068EE691E0A7
:100770000E946902809193018130B9F0823051F575
:1007800087E061E00E949F068EE691E060E071E004
:100790000E9441078EE691E060E041E00E94320253
:1007A0008EE691E067E071E051C087E061E00E9471
:1007B0009F068EE691E060E071E00E9441078EE6C0
:1007C00091E060E041E00E9432028EE691E064E157
:1007D00071E03CC087E060E00E949F068EE691E0F9
:1007E0006FE171E00E94410760918701709188017B
:1007F0008091830190918401680F791F8EE691E0CA
:100800000E94E5078EE691E067E271E00E944107F1
:100810008EE691E060E041E00E9432028EE691E0D7
:100820006DE271E00E94410760918501709186013F
:100830008091810190918201680F791F8EE691E08D
:100840000E94E5078EE691E065E371E00E944107B2
:1008500089E060E00E949F0608950F931F938AE04D
:1008600061E00E949F0681E00E94EC068C018AE014
:1008700060E00E949F0620E030E00159114014F032
:1008800021E030E0C9011F910F910895CF92DF92CE
:10089000EF92FF920F931F93CF93DF9382E00E941A
:1008A000EC06EC01909397018093960182E0CA3D9B
:1008B000D80734F482E08093930188E060E004C0BC
:1008C0001092930188E061E00E949F06609194017C
:1008D000709195016B01CC1ADD0A882777FD809510
:1008E000982F0E94830820E030E040E05FE30E9400
:1008F0000F097B018C01BE01882777FD8095982F19
:100900000E94830820E030E040E05FE30E940F098E
:100910009B01AC01C801B7010E94EC070E9450087E
:10092000709395016093940185E1C816D10424F079
:1009300081E08093890108C0882799278C199D0937
:10094000459714F01092890120918901332727FDE2
:100950003095C901DF91CF911F910F91FF90EF90DA
:10096000DF90CF9008950E94460420919201892B38
:1009700009F443C0213061F40E94FF0560938A01AD
:1009800070938B0180938C0190938D011092920152
:100990000E942D040197E9F40E94FF0520918A012D
:1009A00030918B0140918C0150918D01621B730B32
:1009B000840B950B28EE33E040E050E00E94940950
:1009C000309386012093850130938801209387011D
:1009D0004DC088E060E00E949F0681E08093930113
:1009E00068E873E180E090E00E940D0688E061E035
:1009F0000E949F061092930139C02223B9F587E027
:100A000060E00E949F0681E08093920160918501E1
:100A1000709186018091810190918201680F791F08
:100A2000709382016093810110928601109285017A
:100A300080918301909184012091870130918801F8
:100A4000820F931F909384018093830110928801F9
:100A50001092870182E090E00E94950360918301EB
:100A60007091840180E090E00E94950364EF71E052
:100A700080E090E00E940D0608950F931F930EE60C
:100A800011E0C80162E040E120E00E947102C8016B
:100A90000E946102C8010E946902C80168E371E016
:100AA0000E944107C80160E041E00E943202C80193
:100AB00062E471E00E94410764EF71E080E090E041
:100AC0000E940D0682E090E00E94750390938201DF
:100AD0008093810180E090E00E94750390938401EF
:100AE00080938301109286011092850110928801F3
:100AF0001092870110928E0110928F011092900136
:100B00001092910181E08093920184EF91E09093A3
:100B1000950180939401109289011092930189E0CC
:100B200061E00E947F0687E061E00E947F068AE024
:100B300061E00E947F0688E061E00E947F0688E015
:100B400061E00E949F0664EF71E080E090E042EB7C
:100B500053E00E948C000E94DA001F910F910895CB
:100B60000E9445060E943D050E94B304FDCF1F92DE
:100B70000F920FB60F9211242F933F938F939F9351
:100B8000AF93BF9380919C0190919D01A0919E0194
:100B9000B0919F013091A0010196A11DB11D232F9D
:100BA0002D5F2D3720F02D570196A11DB11D2093EB
:100BB000A00180939C0190939D01A0939E01B0930E
:100BC0009F018091980190919901A0919A01B09113
:100BD0009B010196A11DB11D8093980190939901ED
:100BE000A0939A01B0939B01BF91AF919F918F9178
:100BF0003F912F910F900FBE0F901F9018958FB7B8
:100C0000F89420919C0130919D0140919E0150915A
:100C10009F018FBFB901CA010895EF92FF920F9310
:100C20001F937B018C018FB7F89440919C015091E8
:100C30009D0160919E0170919F018FBF2FB7F89425
:100C400080919C0190919D01A0919E01B0919F0186
:100C50002FBF841B950BA60BB70BE816F9060A07E6
:100C60001B0760F71F910F91FF90EF900895019778
:100C700059F0FC01EE0FFF1FEE0FFF1F32978FB7E9
:100C8000F8943197F1F78FBF0895789484B5826016
:100C900084BD84B5816084BD85B5826085BD85B520
:100CA000816085BDEEE6F0E0808181608083E1E8CF
:100CB000F0E0808182608083808181608083E0E8D1
:100CC000F0E0808181608083E1EBF0E080818460EE
:100CD0008083E0EBF0E0808181608083EAE7F0E0F0
:100CE0008081846080838081826080838081816054
:100CF00080838081806880831092C1000895282FAE
:100D000030E0C90186569F4FFC0194912A573F4F0E
:100D1000F9018491882391F0E82FF0E0EE0FFF1F96
:100D2000E859FF4FA591B491662329F48C919095D1
:100D300089238C9308958C91892B8C930895482F47
:100D400050E0CA0182559F4FFC012491CA0186568A
:100D50009F4FFC0194914A575F4FFA01349133231E
:100D6000D1F1222331F1233021F4809180008F775B
:100D700005C0243031F4809180008F7D8093800005
:100D800018C0213019F484B58F7704C0223021F4C3
:100D900084B58F7D84BD0DC0263021F48091B000D4
:100DA0008F7705C0273029F48091B0008F7D809324
:100DB000B000E32FF0E0EE0FFF1FEE58FF4FA591BC
:100DC000B491662329F48C91909589238C9308958E
:100DD0008C91892B8C9308958F7090914D019295F1
:100DE000990F990F907C982B90937C0080917A00BA
:100DF000806480937A0080917A0086FDFCCF2091F8
:100E0000780040917900942F80E030E0282B392B36
:100E1000C90108950F931F93CF93DF938C01EB01CA
:100E200009C02196D801ED91FC910190F081E02D4F
:100E3000C801099568816623A1F7DF91CF911F91C1
:100E40000F910895EF92FF920F931F93CF93DF932B
:100E50008C017B01EA010CC0D7016D917D01D801A5
:100E6000ED91FC910190F081E02DC8010995219749
:100E7000209791F7DF91CF911F910F91FF90EF9005
:100E80000895DC01ED91FC910280F381E02D09953C
:100E900008952F923F924F925F926F927F928F921E
:100EA0009F92AF92BF92CF92DF92EF92FF920F93F9
:100EB0001F93DF93CF93CDB7DEB7A0970FB6F8940B
:100EC000DEBF0FBECDBF1C016A017B01411551057C
:100ED0006105710549F4DC01ED91FC910190F0810F
:100EE000E02D60E3099554C0882499245401422ED2
:100EF00055246624772401E010E00C0F1D1F080D17
:100F0000191DC701B601A30192010E947209F801DF
:100F100060830894811C911CA11CB11CC701B601FF
:100F2000A30192010E947209C901DA016C017D01DD
:100F3000C114D104E104F104F1F681E0E82EF12CB2
:100F4000EC0EFD1EE80CF91C3E010894611C711C9E
:100F5000D501C4010197A109B1096C01C818D908CC
:100F600014C0F601EE0DFF1D60816A3010F4605D63
:100F700001C0695CD101ED91FC910190F081E02DFF
:100F8000C10109950894E108F1086E147F0449F73E
:100F9000A0960FB6F894DEBF0FBECDBFCF91DF9104
:100FA0001F910F91FF90EF90DF90CF90BF90AF9087
:100FB0009F908F907F906F905F904F903F902F9079
:100FC00008952AE00E9449070895AB0160E070E0AF
:100FD0000E94E10708955058BB27AA270ED0E5C00C
:100FE000D6D030F0DBD020F031F49F3F11F41EF466
:100FF000CBC00EF4E095E7FBC1C0E92FE7D080F34A
:10100000BA17620773078407950718F071F49EF505
:10101000FFC00EF4E0950B2EBA2FA02D0B01B901E5
:1010200090010C01CA01A0011124FF27591B99F05E
:10103000593F50F4503E68F11A16F040A22F232F6A
:10104000342F4427585FF3CF469537952795A795BA
:10105000F0405395C9F77EF41F16BA0B620B730B61
:10106000840BBAF09150A1F0FF0FBB1F661F771FD2
:10107000881FC2F70EC0BA0F621F731F841F48F487
:10108000879577956795B795F7959E3F08F0B3CF0D
:101090009395880F08F09927EE0F979587950895F7
:1010A00004D06894B111B5C0089598D088F09F57C6
:1010B00090F0B92F9927B751A0F0D1F0660F771FA4
:1010C000881F991F1AF0BA95C9F712C0B13081F084
:1010D0009FD0B1E008959CC0672F782F8827B85F14
:1010E00039F0B93FCCF3869577956795B395D9F7E5
:1010F0003EF490958095709561957F4F8F4F9F4FEF
:101100000895E89409C097FB3EF4909580957095FA
:1011100061957F4F8F4F9F4F9923A9F0F92F96E943
:10112000BB279395F695879577956795B795F111B8
:10113000F8CFFAF4BB0F11F460FF1BC06F5F7F4F55
:101140008F4F9F4F16C0882311F096E911C0772367
:1011500021F09EE8872F762F05C0662371F096E870
:10116000862F70E060E02AF09A95660F771F881F3F
:10117000DAF7880F9695879597F9089597F99F67FD
:1011800080E870E060E008959FEF80EC089500240F
:101190000A941616170618060906089500240A94DC
:1011A00012161306140605060895092E0394000C62
:1011B00011F4882352F0BB0F40F4BF2B11F460FFF1
:1011C00004C06F5F7F4F8F4F9F4F089557FD90581A
:1011D000440F551F59F05F3F71F04795880F97FBFB
:1011E000991F61F09F3F79F08795089512161306B5
:1011F0001406551FF2CF4695F1DF08C016161706E4
:101200001806991FF1CF8695710561050894089518
:10121000E894BB2766277727CB0197F908950BD071
:10122000C4CFB5DF28F0BADF18F0952309F0A6CFB8
:10123000ABCF1124EECFCADFA0F3959FD1F3950F6A
:1012400050E0551F629FF001729FBB27F00DB11D4A
:10125000639FAA27F00DB11DAA1F649F6627B00DDA
:10126000A11D661F829F2227B00DA11D621F739FC3
:10127000B00DA11D621F839FA00D611D221F749FD1
:101280003327A00D611D231F849F600D211D822F18
:10129000762F6A2F11249F5750408AF0E1F088235F
:1012A0004AF0EE0FFF1FBB1F661F771F881F91506C
:1012B0005040A9F79E3F510570F060CFAACF5F3F25
:1012C000ECF3983EDCF3869577956795B795F7959F
:1012D000E7959F5FC1F7FE2B880F911D9695879527
:1012E00097F90895A1E21A2EAA1BBB1BFD010DC0A0
:1012F000AA1FBB1FEE1FFF1FA217B307E407F507C6
:1013000020F0A21BB30BE40BF50B661F771F881FA1
:10131000991F1A9469F760957095809590959B0137
:10132000AC01BD01CF01089597FB092E05260ED013
:1013300057FD04D0D7DF0AD0001C38F450954095F3
:10134000309521953F4F4F4F5F4F0895F6F7909599
:101350008095709561957F4F8F4F9F4F0895EE0F49
:0E136000FF1F0590F491E02D0994F894FFCF43
:10136E004552524F522100766F6C74616765206C46
:10137E006F7721007761746572206C6F7721007032
:10138E006F7765723A2000206B572F680077617473
:10139E0065723A2000204C0048434620736F6C6102
:1013AE00720069727269676174696F6E0001000084
:1013BE00000020020A07220700004000140054001B
:00000001FF
