:100000000C9461000C947E000C947E000C947E0095
:100010000C947E000C947E000C947E000C947E0068
:100020000C947E000C947E000C947E000C94440191
:100030000C947E000C947E000C947E000C947E0048
:100040000C949A030C947E000C947E000C947E0019
:100050000C947E000C947E000C947E000C947E0028
:100060000C947E000C947E00000000002400270009
:100070002A0000000000250028002B0000000000DE
:1000800023002600290004040404040404040202DA
:100090000202020203030303030301020408102007
:1000A0004080010204081020010204081020000012
:1000B0000007000201000003040600000000000029
:1000C000000011241FBECFEFD4E0DEBFCDBF11E092
:1000D000A0E0B1E0EAE3FBE002C005900D92A83594
:1000E000B107D9F711E0A8E5B1E001C01D92A93927
:1000F000B107E1F70E9493030C949B050C94000058
:1001000080930101089520917801222329F08091A4
:1001100083018F5F80938301809184019091850199
:10012000281759F0903510F08DE101C08BE0890F50
:10013000809385012093840103C09C5E9093850188
:1001400090918501903A08F488C020918601309101
:1001500087013695279530938701209386018091FA
:100160008301853028F03860309387012093860121
:10017000905A909385011092830180918101882388
:1001800009F45BC0809188018F5F809388018C3077
:1001900008F463C02091860130918701922F9F73EC
:1001A000A8E4B1E0FD0140E08081981729F04F5F9D
:1001B00031964031C9F740E086E0369527958A951B
:1001C000E1F790E08C91281729F09F5F119690310C
:1001D000C9F790E0242F2295207F292B8091590187
:1001E000882371F420938901822F84508B3140F051
:1001F0001092810180918A018F5F80938A01089516
:1002000080915901E82FF0E0E65AFE4F20838F5F7E
:10021000809359019091590180918901981750F06C
:100220001092810180918B018F5F80938B0181E01F
:1002300080935801109288010895809186019091D1
:10024000870188539B4049F481E08093810110929B
:1002500088011092590110925801089580917901F6
:100260008823E1F7089580914601609182010E9400
:100270003C048091010160E00E943C0410927901ED
:1002800081E08093800108951F920F920FB60F9224
:1002900011242F933F934F935F936F937F938F938B
:1002A0009F93AF93BF93EF93FF93809100010E94C0
:1002B000890480937801809179018823D1F180911C
:1002C0007A018F5F80937A01815099F5E0917B01EB
:1002D00080917C01E81760F00E94330180917D01DC
:1002E00090917E01019690937E0180937D0121C0C3
:1002F0008091010190917F0121E030E0092E02C040
:10030000220F331F0A94E2F7F0E0EE5FFE4F6081A8
:1003100062239F5F90937F010E943C0480917F0144
:10032000863038F010927F0180917B018F5F80933F
:100330007B0180917A01883010F010927A018091CF
:100340008001882311F00E948300FF91EF91BF91FB
:10035000AF919F918F917F916F915F914F913F915D
:100360002F910F900FBE0F901F9018951F93109212
:100370007B0110927F0110927A01109280016091AE
:10038000820111E06127809146010E943C04109394
:1003900079011F910895CF93DF93482F562F6C3129
:1003A00010F080E0A1C0809179018823E1F7A52FAA
:1003B000AD5F6FEF7FEF6A27062E6295607F602545
:1003C000072E762F62956F7006266695762767272B
:1003D000660F660F660F6025B0E0FD0124E0F5951D
:1003E000E7952A95E1F7E85BFE4F808180930A014B
:1003F000AF70B070A85BBE4F8C9180930B01CCE0C6
:10040000D1E0242F392FC901DC0125C0EC916E27E2
:10041000062E6295607F6025072E762F62956F709D
:100420000626669576276727660F660F660F602596
:10043000F0E094E0F595E7959A95E1F7E85BFE4FDB
:1004400080818883ED91F0E0EF70F070E85BFE4F03
:100450008081898322968A2F841B8517B8F25F5F7B
:10046000550F9B0120953095A52FB0E0A65FBE4F9C
:10047000F90184E0F695E7958A95E1F7EF70F07061
:10048000E85BFE4F80818C93A52FAF5F8A2F90E0B1
:10049000865F9E4FF901EF70F070E85BFE4F408180
:1004A000FC014083AF5F8A2F90E0865F9E4FF90189
:1004B000EF2FFF27E295EF70E85BFE4F4081FC01D4
:1004C0004083AF5FB0E0A65FBE4F232F33272F706E
:1004D0003070285B3E4FF90180818C93545F5093BC
:1004E0007C010E94B60181E0DF91CF9108959C01CB
:1004F00040E050E060E874E88EE190E00E945E0524
:100500001092800089E080938100309389002093CD
:100510008800EFE6F0E080818260808380910101B5
:1005200061E00E941C048091000160E00E941C04B4
:100530008091460161E00E941C0480914601609117
:1005400082010E943C0408950F931F93DF93CF9381
:1005500000D0CDB7DEB7182F062F0E942E01112331
:1005600009F411E0002309F401E019830A83DE0194
:100570001196FD0101900020E9F73197EA1BFB0B72
:10058000CD016E2F0E94CB010F900F90CF91DF9184
:100590001F910F9108959F92AF92BF92CF92DF92D9
:1005A000EF92FF920F931F9385E060E00E943C045E
:1005B00085E00E94D80490938D0180938C0184E0A3
:1005C0000E94D80490938F0180938E0180918C01BA
:1005D00090918D018C5F934024F485E061E00E944E
:1005E0003C0460918C0170918D0182E06C3B780736
:1005F0001CF42CEB32E007C09B01E4E061307E0785
:1006000014F020E034E030938D0120938C0100D071
:1006100000D0B901882777FD8095982F2FEF30E023
:1006200040E050E0EDB7FEB721833283438354832B
:100630002CEB32E040E050E0E12CF4E0FF2E012D05
:10064000112DAA24BB2465010E94F604962E609108
:100650008E0170918F010F900F900F900F90683C5A
:1006600071051CF428EC30E007C09B01F3E0613217
:100670007F0714F020E233E030938F0120938E0146
:1006800000D000D0B901882777FD8095982F2FEFF3
:1006900030E040E050E0EDB7FEB721833283438382
:1006A000548328EC30E040E050E0E0E2EE2EE3E05E
:1006B000FE2E012D112DAA24BB2465010E94F604F3
:1006C000162F0F900F900F900F9088E060E00E941F
:1006D0003C04892D612F0E94A40288E061E00E9401
:1006E0003C041F910F91FF90EF90DF90CF90BF904F
:1006F000AF909F90089581E061E00E941C0481E02A
:100700000E94800080E49FE10E94770288E061E01F
:100710000E941C0485E061E00E941C0488E060E007
:100720000E943C0408950E94E2030E947B030E9401
:10073000CB02FDCF1F920F920FB60F9211242F9371
:100740003F938F939F93AF93BF9380919401909128
:100750009501A0919601B091970130919801019671
:10076000A11DB11D232F2D5F2D3720F02D57019690
:10077000A11DB11D20939801809394019093950140
:10078000A0939601B093970180919001909191016F
:10079000A0919201B09193010196A11DB11D80938A
:1007A000900190939101A0939201B0939301BF9116
:1007B000AF919F918F913F912F910F900FBE0F900E
:1007C0001F901895789484B5826084BD84B581604B
:1007D00084BD85B5826085BD85B5816085BDEEE649
:1007E000F0E0808181608083E1E8F0E080818260D8
:1007F0008083808181608083E0E8F0E08081816097
:100800008083E1EBF0E0808184608083E0EBF0E0C6
:10081000808181608083EAE7F0E08081846080836A
:100820008081826080838081816080838081806814
:1008300080831092C1000895282F30E0C9018656A8
:100840009F4FFC0194912A573F4FF90184918823CF
:1008500091F0E82FF0E0EE0FFF1FE859FF4FA59150
:10086000B491662329F48C91909589238C930895F3
:100870008C91892B8C930895482F50E0CA018255A2
:100880009F4FFC012491CA0186569F4FFC01949111
:100890004A575F4FFA0134913323D1F1222331F1CA
:1008A000233021F4809180008F7705C0243031F40B
:1008B000809180008F7D8093800018C0213019F4D2
:1008C00084B58F7704C0223021F484B58F7D84BD38
:1008D0000DC0263021F48091B0008F7705C02730FD
:1008E00029F48091B0008F7D8093B000E32FF0E079
:1008F000EE0FFF1FEE58FF4FA591B491662329F428
:100900008C91909589238C9308958C91892B8C934D
:100910000895682F70E0CB0182559F4FFC01249110
:10092000CB0186569F4FFC0144916A577F4FFB01D4
:100930009491992319F420E030E038C0222331F15A
:10094000233021F4809180008F7705C0243031F46A
:10095000809180008F7D8093800018C0213019F431
:1009600084B58F7704C0223021F484B58F7D84BD97
:100970000DC0263021F48091B0008F7705C027305C
:1009800029F48091B0008F7D8093B000892F90E092
:10099000880F991F84589F4FFC01A591B4918C91A9
:1009A00020E030E0842311F021E030E0C901089517
:1009B0008F70909147019295990F990F907C982B89
:1009C00090937C0080917A00806480937A0080917B
:1009D0007A0086FDFCCF2091780040917900942F19
:1009E00080E030E0282B392BC90108952F923F92E7
:1009F0004F925F926F927F928F929F92AF92BF922F
:100A0000CF92DF92EF92FF920F931F93DF93CF93DA
:100A1000CDB7DEB73B014C0119012A016D897E89F2
:100A20008F89988D6A197B098C099D09621A730A4E
:100A3000840A950AA40193010E943F05E218F30875
:100A400004091509A80197010E9480052A0D3B1D84
:100A50004C1D5D1DB901CA01CF91DF911F910F910E
:100A6000FF90EF90DF90CF90BF90AF909F908F90CE
:100A70007F906F905F904F903F902F900895629F6E
:100A8000D001739FF001829FE00DF11D649FE00D86
:100A9000F11D929FF00D839FF00D749FF00D659FE7
:100AA000F00D9927729FB00DE11DF91F639FB00DE6
:100AB000E11DF91FBD01CF0111240895A1E21A2EF5
:100AC000AA1BBB1BFD010DC0AA1FBB1FEE1FFF1FF2
:100AD000A217B307E407F50720F0A21BB30BE40B42
:100AE000F50B661F771F881F991F1A9469F7609589
:100AF0007095809590959B01AC01BD01CF01089543
:100B000097FB092E05260ED057FD04D0D7DF0AD05B
:100B1000001C38F450954095309521953F4F4F4F2C
:100B20005F4F0895F6F790958095709561957F4F8A
:0A0B30008F4F9F4F0895F894FFCFF8
:100B3A000B0C2A2A2A2A2A2A382C00000000000034
:100B4A00000000000000000000000000000000009B
:100B5A00000000000000000000000000000000008B
:100B6A00000000000000000000000000000000007B
:100B7A000000000000000A010D0E131516191A1CB8
:080B8A00232526292A2C323410
:00000001FF
