:100000000C94AB000C94D3000C94D3000C942C01F2
:100010000C9456010C9480010C94D3000C94D300E2
:100020000C94D3000C94D3000C94D3000C94D30004
:100030000C94D3000C94D3000C94D3000C94D300F4
:100040000C9472040C94D3000C9461050C94D300AE
:100050000C94D3000C94D3000C94D3000C94D300D4
:100060000C94D3000C94D30000C2010001001100D5
:1000700011000D0000E100000A002500250022000B
:10008000009600001900390039003600127A00008D
:100090001F004600460044008070000022004D0012
:1000A0004D004A00004B00003600750075007200DC
:1000B000403800004A009C009C0099008025000008
:1000C0007200EC00EC00E900C0120000E900DA0167
:1000D000DA01D70160090000D701B603B603B30304
:1000E000B0040000B3036E076E076B072C0100001D
:1000F000DC0EC11DC11DBE1D000000002400270034
:100100002A0000000000250028002B00000000004D
:100110002300260029000404040404040404020249
:100120000202020203030303030301020408102076
:100130004080010204081020010204081020000081
:100140000007000201000003040600000000000098
:100150000000B203AA0611241FBECFEFD8E0DEBF15
:10016000CDBF11E0A0E0B1E0EEE5F1E102C0059005
:100170000D92AA35B107D9F712E0AAE5B1E001C0A6
:100180001D92AB36B107E1F711E0C6E5D1E004C03E
:100190002297FE010E94A908C235D107C9F70E9423
:1001A0006B040C94AD080C9400001F93CF93DF9365
:1001B000FC01A481B5812C917381272309F048C0EB
:1001C0008185928501972FEF8F3F9207D9F7C385DD
:1001D000D48560E031E040E050E010E0CE01212F16
:1001E00001972FEF8F3F9207D9F78C91872311F05A
:1001F000632B03C0832F80956823330F4F5F5F4FBE
:100200004830510559F78585968520E001972FEFF5
:100210008F3F9207D9F780919C0120919D0190E03A
:1002200001968F73907030E08217930779F0E09118
:100230009C01F0E0E45AFE4F608380919C0190E0C5
:1002400001968F73907080939C0102C081E0818B36
:10025000DF91CF911F9108951F920F920FB60F92C9
:1002600011242F933F934F935F936F937F938F93BB
:100270009F93AF93BF93EF93FF9380915A01909117
:100280005B01009711F00E94D500FF91EF91BF91A3
:10029000AF919F918F917F916F915F914F913F911E
:1002A0002F910F900FBE0F901F9018951F920F92D5
:1002B0000FB60F9211242F933F934F935F936F9339
:1002C0007F938F939F93AF93BF93EF93FF9380910F
:1002D0005A0190915B01009711F00E94D500FF91A7
:1002E000EF91BF91AF919F918F917F916F915F91AE
:1002F0004F913F912F910F900FBE0F901F90189527
:100300001F920F920FB60F9211242F933F934F938A
:100310005F936F937F938F939F93AF93BF93EF936D
:10032000FF9380915A0190915B01009711F00E9418
:10033000D500FF91EF91BF91AF919F918F917F91E8
:100340006F915F914F913F912F910F900FBE0F9042
:100350001F901895CF92DF92EF92FF920F931F9309
:10036000CF93DF93EC017A018B01188A1F861E86DA
:100370001D861C861B861A86198620E030E06901DE
:10038000CC0CDD1CC20ED31EB601660F771F660FA4
:10039000771FAB0148595F4FFA0185919591A5915F
:1003A000B4918E159F05A007B107E9F4FB01E4594C
:1003B000FF4F859194919A878987FB01E259FF4FFE
:1003C000859194919C878B87FB01E059FF4F859124
:1003D00094919E878D87FB01EE58FF4F85919491F4
:1003E000988B8F8706C02F5F3F4F2C30310509F067
:1003F000C6CF8D859E85892B09F44CC03A81383053
:1004000090F48091680084608093680020916D0072
:1004100081E090E002C0880F991F3A95E2F7282BFF
:1004200020936D002FC03E30B0F480916800816051
:100430008093680040916B00232F30E028503040BB
:1004400081E090E002C0880F991F2A95E2F7482BBF
:1004500040936B0017C03631A8F480916800826029
:100460008093680040916C00232F30E02E50304084
:1004700081E090E002C0880F991F2A95E2F7482B8F
:1004800040936C008F85988920E001972FEF8F3F74
:100490009207D9F780915A0190915B018C179D07C3
:1004A00071F0198A9FB7F89410929C0180919C0179
:1004B00080939D01D0935B01C0935A019FBFDF9150
:1004C000CF911F910F91FF90EF90DF90CF90089503
:1004D000FC0180915A0190915B018E179F0779F082
:1004E000118A9FB7F89410929C0180919C0180938F
:1004F0009D01F0935B01E0935A019FBF06C090916C
:100500009D0180919C01981719F42FEF3FEF0FC0C8
:10051000E0919D01F0E0E45AFE4F208180919D0121
:1005200090E001968F73907080939D0130E0C90137
:100530000895FC0180915A0190915B018E179F07ED
:1005400081F0118A9FB7F89410929C0180919C01D0
:1005500080939D01F0935B01E0935A019FBF80E07F
:10056000089580919C0120919D0190E0805C9F4FB7
:10057000821B910960E470E00E94430808950F9384
:100580001F93DC011F968D919C915097892B09F444
:100590006EC080915A0190915B018A179B0781F090
:1005A00051961C9251979FB7F89410929C0180919C
:1005B0009C0180939D01B0935B01A0935A019FBF62
:1005C0001FB7F8941796ED91FC91189790811696A5
:1005D0008C9116978095892380831F968D919C918D
:1005E0005097059620E001972FEF8F3F9207D9F79C
:1005F00031E040E050E070E000E0832F90E086239F
:1006000097231796ED91FC91189716962C911697B3
:10061000892B21F08081822B808304C080812095EA
:10062000282320831F968D919C915097202F01970E
:100630002FEF8F3F9207D9F7330F4F5F5F4F48304F
:100640005105D9F61796ED91FC9118978081169671
:100650009C911697892B80831FBF1F968D919C912B
:10066000509720E001972FEF8F3F9207D9F71F9106
:100670000F910895FF920F931F938C01F62E862FF2
:1006800060E00E94F4048F2D61E00E941405D801FF
:100690001296FC9212978F2D90E0FC01E65DFE4FC2
:1006A000E4911396EC9313978A5E9E4FFC0164913C
:1006B000E62FF0E0EE0FFF1FE45FFE4F859194916F
:1006C00015969C938E9314971F910F91FF90089508
:1006D000FF920F931F938C01F62E862F61E00E94EC
:1006E000F4048F2D61E00E9414058F2D90E0FC0131
:1006F000E65DFE4FE491D8011696EC9316978A5E5C
:100700009E4FFC016491E62FF0E0EE0FFF1FEE5FBD
:10071000FE4F8591949118969C938E9317971F91F5
:100720000F91FF900895FF920F931F938C01F62E67
:100730008AE491E0F8019183808312861186148601
:10074000138616861586108A1786118AC801642FAB
:100750000E946803C8016F2D0E943A031F910F91F8
:10076000FF9008958EE991E065E046E00E949303D2
:1007700080EB91E06DE040E00E94930308950F93B9
:100780001F9380EB91E00E949902893018F420E0D9
:1007900030E043C088E592E060E071E00E943A07F3
:1007A00080EB91E00E9468028093C20180EB91E0AF
:1007B0000E9468028093C30180EB91E00E9468026E
:1007C0008093C40180EB91E00E9468028093C50190
:1007D00080EB91E00E9468028093C60180EB91E07B
:1007E0000E9468028093C70180EB91E00E9468023A
:1007F000182F00E01093C9010093C80180EB91E02D
:100800000E946802080F191F1093C9010093C801C4
:1008100081E08093CA0121E030E0C9011F910F916E
:10082000089580EB91E040E855E260E070E00E94BE
:10083000AA010895CF93DF93C0E0D0E08EE991E064
:100840000E9499022196C436D105C1F70E94BF03C8
:10085000892BE1F388E592E064E171E00E943A07B8
:1008600088E592E06CE271E00E941B074091C401B0
:1008700050E060E070E088E592E02AE030E00E941D
:10088000190888E592E06CE371E00E941B07409133
:10089000C8015091C901662757FD6095762F88E5FC
:1008A00092E02AE030E00E941908DF91CF9108958C
:1008B0000E9411048EE991E040E855E260E070E0AA
:1008C0000E94AA0188E592E040E855E260E070E00D
:1008D0000E949E0508950E94BA040E9458040E9436
:1008E0001A04FDCF1F920F920FB60F9211242F936F
:1008F0003F938F939F93AF93BF938091CF0190913C
:10090000D001A091D101B091D2013091D3010196D3
:10091000A11DB11D232F2D5F2D3720F02D570196DE
:10092000A11DB11D2093D3018093CF019093D001DD
:10093000A093D101B093D2018091CB019091CC01D1
:10094000A091CD01B091CE010196A11DB11D809362
:10095000CB019093CC01A093CD01B093CE01BF9178
:10096000AF919F918F913F912F910F900FBE0F905C
:100970001F901895789484B5826084BD84B5816099
:1009800084BD85B5826085BD85B5816085BDEEE697
:10099000F0E0808181608083E1E8F0E08081826026
:1009A0008083808181608083E0E8F0E080818160E5
:1009B0008083E1EBF0E0808184608083E0EBF0E015
:1009C000808181608083EAE7F0E0808184608083B9
:1009D0008081826080838081816080838081806863
:1009E00080831092C1000895282F30E0C901865DF0
:1009F0009E4FFC0194912A5E3E4FF9018491882319
:100A000091F0E82FF0E0EE0FFF1FE850FF4FA591A7
:100A1000B491662329F48C91909589238C93089541
:100A20008C91892B8C930895482F50E0CA01825CE9
:100A30009E4FFC012491CA01865D9E4FFC0194915A
:100A40004A5E5E4FFA0134913323D1F1222331F112
:100A5000233021F4809180008F7705C0243031F459
:100A6000809180008F7D8093800018C0213019F420
:100A700084B58F7704C0223021F484B58F7D84BD86
:100A80000DC0263021F48091B0008F7705C027304B
:100A900029F48091B0008F7D8093B000E32FF0E0C7
:100AA000EE0FFF1FEE5FFE4FA591B491662329F470
:100AB0008C91909589238C9308958C91892B8C939C
:100AC00008951F920F920FB60F9211242F933F9308
:100AD0004F935F936F937F938F939F93AF93BF9346
:100AE000EF93FF934091C600E0915402F0915502BC
:100AF000CF01019660E870E00E9443089C0180915C
:100B00005602909157022817390739F0EC52FE4FE0
:100B100040833093550220935402FF91EF91BF918F
:100B2000AF919F918F917F916F915F914F913F9185
:100B30002F910F900FBE0F901F9018955F926F929C
:100B40007F928F929F92AF92BF92CF92DF92EF925D
:100B5000FF920F931F93CF93DF93EC013A014B0168
:100B6000413482E458078FE0680780E078070CF092
:100B70007FC060E874E88EE190E0A40193010E94D8
:100B800078082150304040405040CA01B90122E06D
:100B900030E040E050E00E94780859016A01A60167
:100BA0009501209530954095509594E0220F331F84
:100BB000441F551F9A95D1F760E074E284EF90E0EE
:100BC0000E947808CA01B9012FEF30E040E050E000
:100BD0000E942408A40193010E947808C901815051
:100BE0009F4F181619061CF4522E5A9403C0552410
:100BF0005394521A60E079E08DE390E0A4019301F0
:100C00000E9478082150304040405040CA01B9014C
:100C100022E030E040E050E00E94780820953095D6
:100C20004095509583E0220F331F441F551F8A952E
:100C3000D1F760E074E284EF90E00E947808CA0186
:100C4000B9012FEF30E040E050E00E942408A401F9
:100C500093010E947808C90181509F4F1816190608
:100C60001CF4822F815002C081E0821B851500F5A3
:100C7000E885F98581E090E00A8802C0880F991F15
:100C80000A94E2F7808360E079E08DE390E0A401CC
:100C900093010E9478082150304040405040CA01E2
:100CA000B90122E030E040E050E00E94780804C042
:100CB000E885F98510829501EC81FD813083EE8114
:100CC000FF812083EA85FB85208141E050E0CA0155
:100CD0000E8402C0880F991F0A94E2F7282B208304
:100CE000EA85FB852081CA010F8402C0880F991F05
:100CF0000A94E2F7282B2083EA85FB858081088807
:100D000002C0440F551F0A94E2F7842B8083DF91C1
:100D1000CF911F910F91FF90EF90DF90CF90BF90F8
:100D2000AF909F908F907F906F905F900895FC019F
:100D3000A085B18521898C9190E0022E02C0959505
:100D400087950A94E2F780FFF6CF0484F585E02DBD
:100D50006083089584E591E090935902809358024E
:100D600084ED91E090935B0280935A0285EC90E0D1
:100D700090935D0280935C0284EC90E090935F021C
:100D800080935E0280EC90E0909361028093600219
:100D900081EC90E0909363028093620286EC90E095
:100DA000909365028093640284E08093660283E0FE
:100DB0008093670287E08093680285E080936902F0
:100DC00081E080936A0208950F931F93CF93DF937E
:100DD0008C01EB0109C02196D801ED91FC910190A5
:100DE000F081E02DC801099568816623A1F7DF91A4
:100DF000CF911F910F910895EF92FF920F931F9340
:100E0000CF93DF938C017B01EA010CC0D7016D9178
:100E10007D01D801ED91FC910190F081E02DC80198
:100E200009952197209791F7DF91CF911F910F910D
:100E3000FF90EF900895DC01ED91FC910280F38129
:100E4000E02D099508950F931F938C01DC01ED911E
:100E5000FC910190F081E02D6DE00995D801ED91B4
:100E6000FC910190F081E02DC8016AE009951F9185
:100E70000F9108950F931F938C010E941B07C801C7
:100E80000E9423071F910F9108952F923F924F9236
:100E90005F926F927F928F929F92AF92BF92CF920A
:100EA000DF92EF92FF920F931F93DF93CF93CDB713
:100EB000DEB7A0970FB6F894DEBF0FBECDBF1C0102
:100EC0006A017B01411551056105710549F4DC0199
:100ED000ED91FC910190F081E02D60E3099554C003
:100EE000882499245401422E55246624772401E055
:100EF00010E00C0F1D1F080D191DC701B601A3013D
:100F000092010E945608F80160830894811C911C8C
:100F1000A11CB11CC701B601A30192010E94560891
:100F2000C901DA016C017D01C114D104E104F104AD
:100F3000F1F681E0E82EF12CEC0EFD1EE80CF91C18
:100F40003E010894611C711CD501C4010197A109DF
:100F5000B1096C01C818D90814C0F601EE0DFF1DC7
:100F600060816A3010F4605D01C0695CD101ED916F
:100F7000FC910190F081E02DC10109950894E108F0
:100F8000F1086E147F0449F7A0960FB6F894DEBFFF
:100F90000FBECDBFCF91DF911F910F91FF90EF90CA
:100FA000DF90CF90BF90AF909F908F907F906F9089
:100FB0005F904F903F902F900895EF92FF920F9384
:100FC0001F93CF93DF93EC017A018B0177FF0FC062
:100FD000E881F9810190F081E02D6DE2099510958D
:100FE0000095F094E094E11CF11C011D111DCE014F
:100FF000B801A7012AE00E944507DF91CF911F9118
:101000000F91FF90EF900895DC012115310541F417
:10101000ED91FC910190F081E02D642F09950895E8
:101020002A30310519F40E94DD0708950E94450712
:1010300008950F931F938C010E940408C8010E9419
:1010400023071F910F910895629FD001739FF001B4
:10105000829FE00DF11D649FE00DF11D929FF00D48
:10106000839FF00D749FF00D659FF00D9927729F7F
:10107000B00DE11DF91F639FB00DE11DF91FBD010A
:10108000CF011124089597FB092E07260AD077FD7A
:1010900004D049D006D000201AF4709561957F4F96
:1010A0000895F6F7909581959F4F0895A1E21A2E25
:1010B000AA1BBB1BFD010DC0AA1FBB1FEE1FFF1FFC
:1010C000A217B307E407F50720F0A21BB30BE40B4C
:1010D000F50B661F771F881F991F1A9469F7609593
:1010E0007095809590959B01AC01BD01CF0108954D
:1010F00097FB092E05260ED057FD04D0D7DF0AD066
:10110000001C38F450954095309521953F4F4F4F36
:101110005F4F0895F6F790958095709561957F4F94
:101120008F4F9F4F0895AA1BBB1B51E107C0AA1FF9
:10113000BB1FA617B70710F0A61BB70B881F991F78
:101140005A95A9F780959095BC01CD010895EE0FB1
:0E115000FF1F0590F491E02D0994F894FFCF55
:10115E006E6577206675656C2063656C6C206461C6
:10116E0074612100676F74206E6577206675656CFB
:10117E002063656C6C20646174613A007374616302
:10118E006B20766F6C746167653A200063757272BE
:10119E00656E743A200000000000BF02E406FC06F3
:0A11AE00000000009706E406FC06AE
:00000001FF
