:100000000C9436000C9427040C9444040C945E0069
:100010000C945E000C945E000C945E000C945E00E8
:100020000C945E000C945E000C945E000C945E00D8
:100030000C945E000C945E000C945E000C945E00C8
:100040000C9461040C945E000C947C050C945E008E
:100050000C945E000C945E000C945E000C945E00A8
:100060000C945E000C945E006A02080311241FBE0B
:10007000CFEFD4E0DEBFCDBF11E0A0E0B1E0EAE415
:10008000FCE002C005900D92AC34B107D9F711E045
:10009000ACE4B1E001C01D92AC3EB107E1F710E065
:1000A000CCE6D0E004C02297FE010E941F06C836AD
:1000B000D107C9F70E9401030C9423060C94000099
:1000C000CF93DF93BC018230910510F462E070E0C1
:1000D000A091EA01B091EB01ED01E0E0F0E040E039
:1000E00050E021C0888199818617970769F48A8139
:1000F0009B81309719F09383828304C09093EB0126
:100100008093EA01FE0134C06817790738F441157D
:10011000510519F08417950708F4AC01FE018A8196
:100120009B819C01E9012097E9F641155105A9F150
:10013000CA01861B970B049708F4BA01E0E0F0E0CF
:100140002AC08D919C91119784179507F9F4641733
:10015000750781F412968D919C911397309719F041
:100160009383828304C09093EB018093EA01FD01A5
:1001700032964CC0CA01861B970BFD01E80FF91F90
:100180006193719302978D939C9340C0FD0182818E
:1001900093819C01D9011097A1F68091E80190917B
:1001A000E901892B41F480914201909143019093A0
:1001B000E9018093E80140914401509145014115C6
:1001C000510541F44DB75EB78091400190914101D6
:1001D000481B590B2091E8013091E901CA01821BAB
:1001E000930B8617970780F0AB014E5F5F4F841724
:1001F000950750F0420F531F5093E9014093E801D7
:10020000F9016193719302C0E0E0F0E0CF01DF916A
:10021000CF910895CF93DF93009709F450C0EC017C
:1002200022971B821A82A091EA01B091EB011097EC
:1002300009F140E050E0AC17BD0708F1BB83AA8389
:10024000FE0121913191E20FF31FAE17BF0779F440
:100250008D919C911197280F391F2E5F3F4F398345
:10026000288312968D919C9113979B838A834115C5
:10027000510571F4D093EB01C093EA0120C01296AE
:100280008D919C911397AD01009711F0DC01D3CFB4
:10029000FA01D383C28321913191E20FF31FCE176C
:1002A000DF0769F488819981280F391F2E5F3F4F3E
:1002B000FA01318320838A819B8193838283DF913A
:1002C000CF910895FB01DC014150504048F001906E
:1002D0000D920020C9F701C01D9241505040E0F737
:1002E00008950F931F93CF93DF93EC018B01CB0104
:1002F00001960E946000888399831D830C831B8272
:100300001A8220E030E007C0E881F981E20FF31F94
:1003100010822F5F3F4F8C819D8128173907A0F3F2
:10032000DF91CF911F910F9108950F931F938C012F
:10033000DC0112964D915C9113974F5F5F4F8D9149
:100340009C910E946201D801ED91FC911197129647
:100350008D919C911397E80FF91F10821F910F91B7
:1003600008950F931F93CF93DF93EC018B016115D9
:10037000710511F400E011E0F80101900020E9F7A7
:100380003197E01BF10BFB83EA83FD83EC83CF0104
:1003900001960E9460008883998320E030E007C0C6
:1003A000E881F981E20FF31F10822F5F3F4F8C81AC
:1003B0009D8128173907A0F3B801CE010E9495014D
:1003C000DF91CF911F910F9108950F931F938C018F
:1003D00061E071E00E94B101C8011F910F91089581
:1003E000FF920F931F93CF93DF93EC01F62E2A8198
:1003F0003B818C819D8128173907A1F408811981DF
:10040000C9010196880F991F9D838C8301960E94D4
:10041000600088839983B801CE010E949501C801CC
:100420000E940A018A819B81E881F981E80FF91F06
:10043000F08201969B838A83E881F981E80FF91F96
:100440001082CE01DF91CF911F910F91FF900895FF
:100450000E94F00108950F931F93CF93DF93EC0157
:100460008B018617970781F1FB01228133818C81F3
:100470009D818217930770F4888199810E940A01F7
:10048000F801828193819D838C8301960E94600094
:1004900088839983F801828193819B838A8320E0FA
:1004A00030E007C0E881F981E20FF31F10822F5F6F
:1004B0003F4F8C819D8128173907A0F3F801608197
:1004C0007181CE010E949501CE01DF91CF911F91E4
:1004D0000F91089560E170E08CE491E00E94710159
:1004E00008950F931F93DF93CF9300D000D000D0D7
:1004F000CDB7DEB782E591E00E941303682F8091AB
:100500004E0190914F014E972CF48CE491E00E94A3
:1005100028020EC0772767FD70958E010F5F1F4F71
:10052000C8010E947101B8018CE491E00E942B0285
:1005300026960FB6F894DEBF0FBECDBFCF91DF91E8
:100540001F910F91089582E591E00E941603882380
:1005500051F10E94710260914C0170914D0182E550
:1005600091E00E944D0365E071E082E591E00E9418
:100570001E0360914E0170914F0182E591E00E944F
:10058000170465E171E082E591E00E941E0360912D
:1005900050017091510182E591E00E94170482E5BB
:1005A00091E00E94360308950F931F93DF93CF933A
:1005B00000D000D000D0CDB7DEB702E511E040E8B2
:1005C00055E260E070E0C8010E94190367E271E043
:1005D000C8010E941E036CE471E0CE0101960E94E6
:1005E000E50169817A81C8010E944D0326960FB604
:1005F000F894DEBF0FBECDBFCF91DF911F910F9159
:1006000008950E94D1040E94D4020E94A302FDCF4B
:100610008AE491E090935301809352010895862FCC
:100620000E94440508950E945D0508950E944C05AE
:100630000895CB01BA010E940B0508950F931F93F3
:10064000CF93DF938C01EB0109C02196D801ED9186
:10065000FC910190F081E02DC80109956881662325
:10066000A1F7DF91CF911F910F9108950F931F93E1
:100670008C01DC01ED91FC910190F081E02D6DE0A9
:100680000995D801ED91FC910190F081E02D6AE08F
:10069000C80109951F910F9108950F931F938C0125
:1006A0000E941E03C8010E9436031F910F910895F6
:1006B0002F923F924F925F926F927F928F929F9272
:1006C000AF92BF92CF92DF92EF92FF920F931F9360
:1006D000DF93CF93CDB7DEB7A0970FB6F894DEBF08
:1006E0000FBECDBF1C016A017B014115510561059B
:1006F000710549F4DC01ED91FC910190F081E02D50
:1007000060E3099554C0882499245401422E55244D
:100710006624772401E010E00C0F1D1F080D191D41
:10072000C701B601A30192010E94CC05F8016083C4
:100730000894811C911CA11CB11CC701B601A30126
:1007400092010E94CC05C901DA016C017D01C1143E
:10075000D104E104F104F1F681E0E82EF12CEC0E75
:10076000FD1EE80CF91C3E010894611C711CD501AA
:10077000C4010197A109B1096C01C818D90814C0B6
:10078000F601EE0DFF1D60816A3010F4605D01C05E
:10079000695CD101ED91FC910190F081E02DC101E6
:1007A00009950894E108F1086E147F0449F7A096B2
:1007B0000FB6F894DEBF0FBECDBFCF91DF911F9172
:1007C0000F91FF90EF90DF90CF90BF90AF909F90F0
:1007D0008F907F906F905F904F903F902F900895F3
:1007E000EF92FF920F931F93CF93DF93EC017A0167
:1007F0008B0177FF0FC0E881F9810190F081E02D36
:100800006DE2099510950095F094E094E11CF11CBF
:10081000011D111D2AE0B801A701CE010E94580355
:10082000DF91CF911F910F91FF90EF9008950F935B
:100830001F938C01AB01662757FD6095762F0E94B0
:10084000F003C8010E9436031F910F9108951F9273
:100850000F920FB60F9211248F939F93EF93FF93F4
:100860008091540190915501892B29F0E091540118
:10087000F09155010995FF91EF919F918F910F9004
:100880000FBE0F901F9018951F920F920FB60F92E8
:1008900011248F939F93EF93FF9380915601909132
:1008A0005701892B29F0E0915601F09157010995E4
:1008B000FF91EF919F918F910F900FBE0F901F901E
:1008C00018951F920F920FB60F9211242F938F93AA
:1008D0009F93AF93BF938091580190915901A0913C
:1008E0005A01B0915B010196A11DB11D8093580181
:1008F00090935901A0935A01B0935B0180915C01E0
:1009000090915D01A0915E01B0915F018050904C8B
:10091000AF4FBF4F80935C0190935D01A0935E0148
:10092000B0935F0127C080915C0190915D01A0911F
:100930005E01B0915F0180589E43A040B04080931B
:100940005C0190935D01A0935E01B0935F01809183
:10095000600190916101A0916201B09163010196E3
:10096000A11DB11D8093600190936101A09362016C
:10097000B093630180915C0190915D01A0915E0153
:10098000B0915F0181589E43A040B04060F6BF9196
:10099000AF919F918F912F910F900FBE0F901F904D
:1009A0001895789484B5826084BD84B5816084BDD7
:1009B00085B5826085BD85B5816085BDEEE6F0E0D8
:1009C000808181608083E1E8F0E0808182608083C3
:1009D000808181608083E0E8F0E0808181608083B5
:1009E000E1EBF0E0808184608083E0EBF0E08081E7
:1009F00081608083EAE7F0E0808184608083808189
:100A00008260808380818160808380818068808330
:100A10001092C1000895EF92FF920F931F937B01F4
:100A20008C0122E030E040E050E00E94EE05205CC6
:100A30003D4B404F5F4FCA01B901A80197010E9489
:100A4000EE05C901DA010197A109B109292F3A2F51
:100A50004B2F552747FD5A950196A11DB11D209397
:100A6000C50081508093C400E1ECF0E0808180619A
:100A700080838081886080838081806880831F91EB
:100A80000F91FF90EF900895982F8091C00085FFFF
:100A9000FCCF9093C6000895809164019091650108
:100AA00080589F4F2091660130916701821B930B04
:100AB00060E870E00E94B905089540916601509188
:100AC000670180916401909165018417950719F47D
:100AD0002FEF3FEF0FC0FA01E859FE4F2081CA0106
:100AE000019660E870E00E94B905909367018093D9
:100AF000660130E0C90108951F920F920FB60F9260
:100B000011242F933F934F935F936F937F938F9312
:100B10009F93AF93BF93EF93FF934091C600E091F3
:100B20006401F0916501CF01019660E870E00E94D8
:100B3000B9059C01809166019091670128173907DA
:100B400039F0E859FE4F40833093650120936401EA
:100B5000FF91EF91BF91AF919F918F917F916F9195
:100B60005F914F913F912F910F900FBE0F901F906B
:100B7000189597FB092E07260AD077FD04D049D097
:100B800006D000201AF4709561957F4F0895F6F70E
:100B9000909581959F4F0895A1E21A2EAA1BBB1B29
:100BA000FD010DC0AA1FBB1FEE1FFF1FA217B30739
:100BB000E407F50720F0A21BB30BE40BF50B661F4F
:100BC000771F881F991F1A9469F760957095809513
:100BD00090959B01AC01BD01CF01089597FB092EB3
:100BE00005260ED057FD04D0D7DF0AD0001C38F4FC
:100BF00050954095309521953F4F4F4F5F4F089549
:100C0000F6F790958095709561957F4F8F4F9F4F28
:100C10000895AA1BBB1B51E107C0AA1FBB1FA61743
:100C2000B70710F0A61BB70B881F991F5A95A9F795
:100C300080959095BC01CD010895EE0FFF1F0590A2
:0A0C4000F491E02D0994F894FFCF21
:100C4A0000302E3400537472696E67206C656E67CB
:100C5A0074683A2000537472696E67206361706128
:100C6A00636974793A2000537472696E67204C691B
:100C7A0062726172792076657273696F6E3A2000CA
:0C0C8A002000EC010000000000000F033F
:00000001FF
