:100000000C94AB000C94D3000C94D3000C943405E6
:100010000C945E050C9488050C94D3000C94D300CA
:100020000C94D3000C9419030C94D3000C94D300BB
:100030000C94D3000C94D3000C94D3000C94D300F4
:100040000C94120C0C94D3000C94A60D0C94D300B9
:100050000C94D3000C94D3000C94D3000C94D300D4
:100060000C94D3000C94D30000C2010001001100D5
:1000700011000D0000E100000A002500250022000B
:10008000009600001900390039003600127A00008D
:100090001F004600460044008070000022004D0012
:1000A0004D004A00004B00003600750075007200DC
:1000B000403800004A009C009C0099008025000008
:1000C0007200EC00EC00E900C0120000E900DA0167
:1000D000DA01D70160090000D701B603B603B30304
:1000E000B0040000B3036E076E076B072C0100001D
:1000F000DC0EC11DC11DBE1D000000002400270034
:100100002A0000000000250028002B00000000004D
:100110002300260029000404040404040404020249
:100120000202020203030303030301020408102076
:100130004080010204081020010204081020000081
:100140000007000201000003040600000000000098
:1001500000009E09EF0E11241FBECFEFD4E0DEBFDA
:10016000CDBF12E0A0E0B1E0E2EFF1E202C0059005
:100170000D92A631B107D9F713E0A6E1B2E001C0B4
:100180001D92A234B107E1F711E0C6E5D1E004C049
:100190002297FE010E94F310C235D107C9F70E94D1
:1001A0000B0C0C94F7100C940000CF93DF93BC0160
:1001B0008230910510F462E070E0A0914003B091AC
:1001C0004103ED01E0E0F0E040E050E021C0888133
:1001D00099818617970769F48A819B81309719F076
:1001E0009383828304C09093410380934003FE0174
:1001F00034C06817790738F44115510519F0841790
:10020000950708F4AC01FE018A819B819C01E901FC
:100210002097E9F641155105A9F1CA01861B970BF4
:10022000049708F4BA01E0E0F0E02AC08D919C91B7
:10023000119784179507F9F46417750781F41296DE
:100240008D919C911397309719F09383828304C00A
:100250009093410380934003FD0132964CC0CA0144
:10026000861B970BFD01E80FF91F619371930297AD
:100270008D939C9340C0FD01828193819C01D901A3
:100280001097A1F680913E0390913F03892B41F492
:100290008091EA019091EB0190933F0380933E039C
:1002A0004091EC015091ED014115510541F44DB7DC
:1002B0005EB78091E8019091E901481B590B2091AC
:1002C0003E0330913F03CA01821B930B86179707A9
:1002D00080F0AB014E5F5F4F8417950750F0420FDF
:1002E000531F50933F0340933E03F9016193719371
:1002F00002C0E0E0F0E0CF01DF91CF910895CF930D
:10030000DF93009709F450C0EC0122971B821A82F8
:10031000A0914003B0914103109709F140E050E0F3
:10032000AC17BD0708F1BB83AA83FE01219131916F
:10033000E20FF31FAE17BF0779F48D919C911197CF
:10034000280F391F2E5F3F4F3983288312968D91D6
:100350009C9113979B838A834115510571F4D09327
:100360004103C093400320C012968D919C91139736
:10037000AD01009711F0DC01D3CFFA01D383C28322
:1003800021913191E20FF31FCE17DF0769F48881C5
:100390009981280F391F2E5F3F4FFA013183208347
:1003A0008A819B8193838283DF91CF910895FB01A2
:1003B000DC010D900020E9F7119701900D920020CB
:1003C000E1F70895FB01DC014150504048F00190F5
:1003D0000D920020C9F701C01D9241505040E0F736
:1003E0000895FB0151915523A9F0BF01DC014D9106
:1003F00045174111E1F759F4CD010190002049F072
:100400004D9140154111C9F3FB014111EFCF81E03E
:1004100090E001970895FB019F01E8944230C4F0F9
:100420004532B4F44A3029F497FB1EF49095819537
:100430009F4F642F77270E94DD10805D8A330CF078
:10044000895D8193CB010097A1F716F45DE251938A
:100450001082C9010C946002FA01CF93FF93EF93CD
:10046000223044F1253234F5C22FE894CA3049F4E1
:1004700097FB3EF490958095709561957F4F8F4FD7
:100480009F4F2C2F332744275527FF93EF930E942C
:10049000A010EF91FF91605D6A330CF0695D61938C
:1004A000B901CA01605070408040904051F716F485
:1004B000CDE2C19310828F919F91CF910C946002F5
:1004C000DC01FC01672F71917723E1F7329704C0BB
:1004D0007C916D9370836291AE17BF07C8F3089546
:1004E0000F931F938B019C01809170008E7F8093EE
:1004F00070008091B0008C7F8093B0008091B1003B
:10050000877F8093B1008091B6008F7D8093B60085
:10051000809170008D7F809370008091B100846025
:100520008093B1008091B1008C7F8093B10086E010
:1005300090E090932202809321020115110521057C
:10054000310569F481E090E0A0E0B0E0809316020C
:1005500090931702A0931802B093190208C0009359
:100560001602109317022093180230931902509329
:100570001B0240931A021F910F91089510921C02C2
:1005800010921D0210921E0210921F021092200261
:1005900080912102909122028093B200E0E7F0E086
:1005A0008081816080830895E0E7F0E080818E7F24
:1005B0008083089580911C0290911D02A0911E02DB
:1005C000B0911F020196A11DB11D80931C02909352
:1005D0001D02A0931E02B0931F0220911C023091B5
:1005E0001D0240911E0250911F02809116029091AF
:1005F0001702A0911802B0911902281739074A076B
:100600005B07B0F080912002882391F481E0809311
:10061000200210921C0210921D0210921E021092D3
:100620001F02E0911A02F0911B020995109220021C
:1006300008951F920F920FB60F9211242F933F939C
:100640004F935F936F937F938F939F93AF93BF93DA
:10065000EF93FF9380912102909122028093B20048
:100660000E94DA02FF91EF91BF91AF919F918F911C
:100670007F916F915F914F913F912F910F900FBE9E
:100680000F901F9018950F931F93CF93DF93EC015A
:100690008B01CB0101960E94D500888399831D832D
:1006A0000C831B821A8220E030E007C0E881F981C8
:1006B000E20FF31F10822F5F3F4F8C819D8128171F
:1006C0003907A0F3DF91CF911F910F910895AF9259
:1006D000BF92CF92DF92EF92FF920F931F937B0115
:1006E0008C016A0181E290E00E94D500B82EA92E0B
:1006F000C801B7014B2D5A2D96010E942C028B2D5B
:100700009A2D1F910F91FF90EF90DF90CF90BF90A7
:10071000AF900895FC01808191810E94F1019C01BC
:1007200080E0232B09F081E008950F931F938C0143
:10073000DC0112964D915C9113974F5F5F4F8D9145
:100740009C910E94E201D801ED91FC9111971296C3
:100750008D919C911397E80FF91F10821F910F91B3
:100760000895FF920F931F93CF93DF93EC01F62E22
:100770002A813B818C819D8128173907A1F408814A
:100780001981C9010196880F991F9D838C83019659
:100790000E94D50088839983CE01B8010E949503F9
:1007A000C8010E947F018A819B81E881F981E80F5D
:1007B000F91FF08201969B838A83E881F981E80F13
:1007C000F91F1082CE01DF91CF911F910F91FF9001
:1007D00008950E94B10308950F931F93CF93DF9361
:1007E000EC018B016115710511F400E011E0D801F5
:1007F0000D900020E9F71197A01BB10BBB83AA83D2
:100800008C819D818A179B0768F4BD83AC838881A6
:1008100099810E947F018A819B8101960E94D50067
:100820008883998320E030E007C0E881F981E20FF6
:10083000F31F10822F5F3F4F8C819D81281739074E
:10084000A0F3CE01B8010E949503CE01DF91CF91B4
:100850001F910F9108950F931F93CF93DF93EC0196
:100860008B018617970781F1FB01228133818C81EF
:100870009D818217930770F4888199810E947F017E
:10088000F801828193819D838C8301960E94D5001B
:1008900088839983F801828193819B838A8320E0F6
:1008A00030E007C0E881F981E20FF31F10822F5F6B
:1008B0003F4F8C819D8128173907A0F3F801608193
:1008C0007181CE010E949503CE01DF91CF911F91DE
:1008D0000F910895EF92FF920F931F93CF93DF93A1
:1008E000EC017B016115710521F430E0E32E31E06C
:1008F000F32ED7010D900020E9F71197AE19BF092B
:100900008A819B81A80FB91FBB83AA838C819D819B
:100910008A179B0788F408811981BD83AC83CD01B8
:1009200001960E94D50088839983CE01B8010E9468
:100930009503C8010E947F0188819981B7010E94B7
:10094000D701E881F9818A819B81E80FF91F108224
:10095000CE01DF91CF911F910F91FF90EF900895FD
:10096000EF92FF920F931F93F82EE92ECB01BA015D
:10097000A9010E9467038C018F2D9E2DB8010E9452
:100980006A04C8010E947F018F2D9E2D1F910F9137
:10099000FF90EF9008950F931F93182F092FAB012D
:1009A000662757FD6095762F2AE030E00E94B0045C
:1009B000812F902F1F910F9108951F93CF93DF9355
:1009C000FC01A481B5812C917381272309F048C0D3
:1009D0008185928501972FEF8F3F9207D9F7C385C5
:1009E000D48560E031E040E050E010E0CE01212FFE
:1009F00001972FEF8F3F9207D9F78C91872311F042
:100A0000632B03C0832F80956823330F4F5F5F4FA5
:100A10004830510559F78585968520E001972FEFDD
:100A20008F3F9207D9F7809165022091660290E08E
:100A300001968F73907030E08217930779F0E09100
:100A40006502F0E0EB5DFD4F60838091650290E010
:100A500001968F7390708093650202C081E0818B54
:100A6000DF91CF911F9108951F920F920FB60F92B1
:100A700011242F933F934F935F936F937F938F93A3
:100A80009F93AF93BF93EF93FF9380912302909135
:100A90002402009711F00E94DD04FF91EF91BF91B5
:100AA000AF919F918F917F916F915F914F913F9106
:100AB0002F910F900FBE0F901F9018951F920F92BD
:100AC0000FB60F9211242F933F934F935F936F9321
:100AD0007F938F939F93AF93BF93EF93FF938091F7
:100AE000230290912402009711F00E94DD04FF91EF
:100AF000EF91BF91AF919F918F917F916F915F9196
:100B00004F913F912F910F900FBE0F901F9018950E
:100B10001F920F920FB60F9211242F933F934F9372
:100B20005F936F937F938F939F93AF93BF93EF9355
:100B3000FF938091230290912402009711F00E946C
:100B4000DD04FF91EF91BF91AF919F918F917F91C4
:100B50006F915F914F913F912F910F900FBE0F902A
:100B60001F901895CF92DF92EF92FF920F931F93F1
:100B7000CF93DF93EC017A018B01188A1F861E86C2
:100B80001D861C861B861A86198620E030E06901C6
:100B9000CC0CDD1CC20ED31EB601660F771F660F8C
:100BA000771FAB0148595F4FFA0185919591A59147
:100BB000B4918E159F05A007B107E9F4FB01E45934
:100BC000FF4F859194919A878987FB01E259FF4FE6
:100BD000859194919C878B87FB01E059FF4F85910C
:100BE00094919E878D87FB01EE58FF4F85919491DC
:100BF000988B8F8706C02F5F3F4F2C30310509F04F
:100C0000C6CF8D859E85892B09F44CC03A8138303A
:100C100090F48091680084608093680020916D005A
:100C200081E090E002C0880F991F3A95E2F7282BE7
:100C300020936D002FC03E30B0F480916800816039
:100C40008093680040916B00232F30E028503040A3
:100C500081E090E002C0880F991F2A95E2F7482BA7
:100C600040936B0017C03631A8F480916800826011
:100C70008093680040916C00232F30E02E5030406C
:100C800081E090E002C0880F991F2A95E2F7482B77
:100C900040936C008F85988920E001972FEF8F3F5C
:100CA0009207D9F780912302909124028C179D0717
:100CB00071F0198A9FB7F8941092650280916502CD
:100CC00080936602D0932402C09323029FBFDF91DA
:100CD000CF911F910F91FF90EF90DF90CF900895EB
:100CE000FC0180912302909124028E179F0779F0D6
:100CF000118A9FB7F89410926502809165028093E3
:100D00006602F0932402E09323029FBF06C09091F5
:100D1000660280916502981719F42FEF3FEF0FC01C
:100D2000E0916602F0E0EB5DFD4F2081809166026C
:100D300090E001968F7390708093660230E0C90155
:100D40000895FC0180912302909124028E179F0741
:100D500081F0118A9FB7F894109265028091650224
:100D600080936602F0932402E09323029FBF80E009
:100D70000895809165022091660290E0805C9F4F0B
:100D8000821B910960E470E00E948D1008950F931A
:100D90001F93DC011F968D919C915097892B09F42C
:100DA0006EC080912302909124028A179B0781F0E4
:100DB00051961C9251979FB7F894109265028091BA
:100DC000650280936602B0932402A09323029FBF22
:100DD0001FB7F8941796ED91FC911897908116968D
:100DE0008C9116978095892380831F968D919C9175
:100DF0005097059620E001972FEF8F3F9207D9F784
:100E000031E040E050E070E000E0832F90E0862386
:100E100097231796ED91FC91189716962C9116979B
:100E2000892B21F08081822B808304C080812095D2
:100E3000282320831F968D919C915097202F0197F6
:100E40002FEF8F3F9207D9F7330F4F5F5F4F483037
:100E50005105D9F61796ED91FC9118978081169659
:100E60009C911697892B80831FBF1F968D919C9113
:100E7000509720E001972FEF8F3F9207D9F71F91EE
:100E80000F910895FF920F931F938C01F62E862FDA
:100E900060E00E94CC0C8F2D61E00E94EC0CD80128
:100EA0001296FC9212978F2D90E0FC01E65DFE4FAA
:100EB000E4911396EC9313978A5E9E4FFC01649124
:100EC000E62FF0E0EE0FFF1FE45FFE4F8591949157
:100ED00015969C938E9314971F910F91FF900895F0
:100EE000FF920F931F938C01F62E862F61E00E94D4
:100EF000CC0C8F2D61E00E94EC0C8F2D90E0FC015A
:100F0000E65DFE4FE491D8011696EC9316978A5E43
:100F10009E4FFC016491E62FF0E0EE0FFF1FEE5FA5
:100F2000FE4F8591949118969C938E9317971F91DD
:100F30000F91FF900895FF920F931F938C01F62E4F
:100F400083EF91E0F80191838083128611861486E5
:100F5000138616861586108A1786118AC801642F93
:100F60000E947007C8016F2D0E9442071F910F91C8
:100F7000FF9008950F931F938C01FC01848160E022
:100F80000E94EC0C81E090E00E94840CF8018481C6
:100F900061E00E94EC0C81E090E00E94840CF8017A
:100FA000848160E00E94EC0C84E690E00E94840C56
:100FB0001F910F910895CF92DF92EF92FF920F93BE
:100FC0001F93CF93DF93D82EC92E282F392FC90115
:100FD0008C01C0E0D0E0E62EFF24F801858161E0BD
:100FE0000E94CC0CB7010C2E02C0759567950A942F
:100FF000E2F76170F80185810E94EC0C21960F5F89
:101000001F4FC830D10549F78D2D9C2D0E94BA077E
:10101000DF91CF911F910F91FF90EF90DF90CF90D4
:101020000895CF92DF92EF92FF920F931F93CF9389
:10103000DF93D82EC92E282F392FC9018C01C0E08B
:10104000D0E0E62EFF24F801858161E00E94CC0CFF
:10105000B7010C2E02C0759567950A94E2F761708E
:10106000F80185810E94EC0C21960F5F1F4FC43060
:10107000D10549F78D2D9C2D0E94BA07DF91CF91A4
:101080001F910F91FF90EF90DF90CF9008951F93E5
:10109000CF93DF93EC01162F8A81642F0E94EC0C12
:1010A0008B8160E00E94EC0C8D8584FF05C0CE0131
:1010B000612F0E94DB070EC0612F70E084E0759500
:1010C00067958A95E1F7CE010E941108CE01612F44
:1010D0000E941108DF91CF911F91089541E00E9475
:1010E0004708089540E00E9447080895FC0166857E
:1010F000862F846086876C60CF010E9472080895F5
:10110000DF93CF93CDB7DEB728970FB6F894DEBF45
:101110000FBECDBF9C01FE013196A3E0B2E088E096
:101120000D9001928150E1F7F9018189841710F443
:10113000482F4150E42FF0E0EE0FFF1FEC0FFD1F92
:101140008181680F6068C9010E94720828960FB6F5
:10115000F894DEBF0FBECDBFCF91DF91089561E05F
:101160000E94720880ED97E00E94840C0895CF934E
:10117000DF93EC01423018F08D8588608D87498BB4
:101180001A8A222329F0413019F48D8584608D87D5
:1011900080E593EC0E94840C8A8160E00E94EC0C54
:1011A0008C8160E00E94EC0C8B8160E00E94EC0C72
:1011B0006D8564FD1DC0CE0163E00E94110884E9C5
:1011C00091E10E94840CCE0163E00E94110884E941
:1011D00091E10E94840CCE0163E00E94110886E92F
:1011E00090E00E94840CCE0162E00E94110816C0BB
:1011F0006062CE010E94720884E991E10E94840C31
:101200006D856062CE010E94720886E990E00E94BE
:10121000840C6D856062CE010E9472086D856062EB
:10122000CE010E94720884E08E87CE010E9476086B
:10123000CE010E94AF0882E08F87CE0166E00E9457
:101240007208DF91CF9108956F927F928F92AF9243
:10125000CF92EF920F931F93DF93CF93CDB7DEB76B
:101260003C01162F842FF301428323830483E582FC
:10127000C682A78280869D8591879E8592879F855D
:1012800093879889948761E00E94CC0CF301838155
:1012900061E00E94CC0CF301848161E00E94CC0CDF
:1012A000112319F0F301158603C080E1F30185874E
:1012B000C30160E141E020E00E94B708CF91DF91D7
:1012C0001F910F91EF90CF90AF908F907F906F9084
:1012D00008958F92AF92CF92EF920F931F93CF9377
:1012E000DF93DC01362F542F722F102FAE2C8C2C55
:1012F0008DEF91E011969C938E9300D000D0EDB7C6
:10130000FEB73196CDB7DEB71982118212821382F1
:10131000CD0161E0432F2FEF052FE72EC12E0E9454
:1013200024090F900F900F900F90DF91CF911F9194
:101330000F91EF90CF90AF908F900895CF92EF9252
:101340000F9387E692E06EE170E00E9443038DE622
:1013500092E06EE170E00E94430389E792E062E070
:1013600043E00E949B078BE892E066E047E028E0BC
:1013700009E05AE0E52E3BE0C32E0E9469090F9177
:10138000EF90CF900895EF92FF920F931F93E82E66
:101390000BE213E0C80165E071E00E94680FC8012C
:1013A0006E2D0E94600FC80164E171E00E94680F19
:1013B000FF24E7FCF094F0927802E09277021F910C
:1013C0000F91FF90EF900895EF92FF921F93DF939C
:1013D000CF9300D000D000D0CDB7DEB787E692E043
:1013E00066E171E00E94EC037E010894E11CF11CAF
:1013F00089E792E00E94A1068823D1F389E792E071
:101400000E947006182F8091690290916A024E978F
:1014100034F487E692E0612F0E94E9030CC0612F4B
:10142000772767FD7095C7010E94430387E692E026
:10143000B7010E942B041D30D9F626960FB6F894FA
:10144000DEBF0FBECDBFCF91DF911F91FF90EF9018
:101450000895CF93DF93C0E0D0E084E00E94390D7F
:10146000892B19F420E030E00CC06AE070E080E0E5
:1014700090E00E945A0C2196CA30D10571F721E004
:1014800030E0C901DF91CF9108950F931F93CF935F
:10149000DF93EC018B018BE293E067E171E00E9446
:1014A000680F8BE293E0BE010E94870F0E94290A19
:1014B000019719F481E00E94C30989E792E0BE0117
:1014C0000E94680F89E792E04DE050E060E070E034
:1014D00020E030E00E945910012B19F420E030E0A8
:1014E00016C00E94E40960916702709168028BE265
:1014F00093E00E94870F87E692E068E271E00E9425
:101500008A0320E030E0882311F421E030E0C901B3
:10151000DF91CF911F910F9108950F931F93CF9358
:10152000DF93182F092F8BE293E06DE271E00E94A8
:10153000870F8EE391E061E070E00E94450A892BFD
:1015400009F052C0812F902F9C01E1E0F0E007C02C
:10155000FE01C9016AE070E00E948D109B01EF015D
:1015600021962A303105A4F78DE692E06AE471E015
:101570000E94EC038DE692E0BE010E94CB048091B4
:101580006D0290916E0260E070E00E94450A892B26
:1015900059F560916D0270916E02812F902F4AE093
:1015A00050E00E940B0280916D0290916E0261E00A
:1015B00070E00E94450A892BB9F48BE293E06FE456
:1015C00071E00E94870F8CE591E061E070E00E947D
:1015D000450A892B49F48BE293E068E671E00E94AA
:1015E000870F20E030E002C021E030E0C901DF9148
:1015F000CF911F910F9108958BE293E067E771E01F
:101600000E94870F8BE892E060E041E00E94800832
:101610008BE892E067E871E00E94680F08C00E94C2
:10162000E40964E670E080E090E00E945A0C87E6EE
:1016300092E068E271E00E948A03882381F38BE2E2
:1016400093E067E971E00E94870F8BE892E060E029
:1016500041E00E9480088BE892E066EA71E00E9417
:10166000680F08958DE061E00E94EC0C68EE73E075
:1016700080E090E00E945A0C8DE060E00E94EC0C4B
:1016800068EE73E080E090E00E945A0C8091750251
:1016900090917602019690937602809375020E9453
:1016A000D40280917302909174020E948D0A892B5A
:1016B00049F083E00E94C3090E94FC0A109278025C
:1016C000109277020E94BE0208958BE892E00E9479
:1016D000AF088091770290917802892B39F08BE8DE
:1016E00092E065EB71E00E94680F08958BE892E04C
:1016F0006BEB71E00E94680F8BE892E060E041E0E4
:101700000E94800883E00E94880D90937402809369
:10171000730260917502709176028BE892E00E94EC
:1017200051108BE892E066EC71E00E94680F6091C6
:101730007302709174028BE892E00E945110089538
:10174000109276021092750210927802109277022F
:101750008BE892E060E142E020E00E94B7088BE86D
:1017600092E06AEC71E00E94680F8BE293E040E83F
:1017700055E260E070E00E94E30D84E060E00E94CA
:10178000CC0C85E061E00E94CC0C8DE061E00E9411
:10179000CC0C8DE060E00E94EC0C85E061E00E94E2
:1017A000EC0C89E792E040E855E260E070E00E94CE
:1017B000B20585E060E00E94EC0C64E670E080E039
:1017C00090E00E945A0C85E061E00E94EC0C0E94BF
:1017D000FC0A88ED91E061E070E00E94450A892BE7
:1017E00019F082E00E94C3098CED91E060E070E0A6
:1017F0000E94450A64EF71E080E090E00E945A0C7C
:1018000064E670E080E090E045E65BE00E947002F4
:101810000E94BE0208950E94920C0E94A00B0E949A
:10182000320BFDCF1F920F920FB60F9211242F9300
:101830003F938F939F93AF93BF938091A202909118
:10184000A302A091A402B091A5023091A602019634
:10185000A11DB11D232F2D5F2D3720F02D5701968F
:10186000A11DB11D2093A6028093A2029093A30212
:10187000A093A402B093A50280919E0290919F0232
:10188000A091A002B091A1020196A11DB11D80936B
:101890009E0290939F02A093A002B093A102BF91D9
:1018A000AF919F918F913F912F910F900FBE0F900D
:1018B0001F901895EF92FF920F931F937B018C015D
:1018C0008FB7F8944091A2025091A3026091A402B4
:1018D0007091A5028FBF2FB7F8948091A2029091CA
:1018E000A302A091A402B091A5022FBF841B950B67
:1018F000A60BB70BE816F9060A071B0760F71F913E
:101900000F91FF90EF900895019759F0FC01EE0FB1
:10191000FF1FEE0FFF1F32978FB7F8943197F1F743
:101920008FBF0895789484B5826084BD84B581604A
:1019300084BD85B5826085BD85B5816085BDEEE6D7
:10194000F0E0808181608083E1E8F0E08081826066
:101950008083808181608083E0E8F0E08081816025
:101960008083E1EBF0E0808184608083E0EBF0E055
:10197000808181608083EAE7F0E0808184608083F9
:1019800080818260808380818160808380818068A3
:1019900080831092C1000895282F30E0C901865D30
:1019A0009E4FFC0194912A5E3E4FF9018491882359
:1019B00091F0E82FF0E0EE0FFF1FE850FF4FA591E8
:1019C000B491662329F48C91909589238C93089582
:1019D0008C91892B8C930895482F50E0CA01825C2A
:1019E0009E4FFC012491CA01865D9E4FFC0194919B
:1019F0004A5E5E4FFA0134913323D1F1222331F153
:101A0000233021F4809180008F7705C0243031F499
:101A1000809180008F7D8093800018C0213019F460
:101A200084B58F7704C0223021F484B58F7D84BDC6
:101A30000DC0263021F48091B0008F7705C027308B
:101A400029F48091B0008F7D8093B000E32FF0E007
:101A5000EE0FFF1FEE5FFE4FA591B491662329F4B0
:101A60008C91909589238C9308958C91892B8C93DC
:101A70000895682F70E0CB01825C9E4FFC01249199
:101A8000CB01865D9E4FFC0144916A5E7E4FFB0157
:101A90009491992319F420E030E038C0222331F1E9
:101AA000233021F4809180008F7705C0243031F4F9
:101AB000809180008F7D8093800018C0213019F4C0
:101AC00084B58F7704C0223021F484B58F7D84BD26
:101AD0000DC0263021F48091B0008F7705C02730EB
:101AE00029F48091B0008F7D8093B000892F90E021
:101AF000880F991F845F9E4FFC01A591B4918C9132
:101B000020E030E0842311F021E030E0C9010895A5
:101B10008F709091EE019295990F990F907C982B70
:101B200090937C0080917A00806480937A00809109
:101B30007A0086FDFCCF2091780040917900942FA7
:101B400080E030E0282B392BC90108951F920F92B5
:101B50000FB60F9211242F933F934F935F936F9380
:101B60007F938F939F93AF93BF93EF93FF93409196
:101B7000C600E0912703F0912803CF01019660E8A9
:101B800070E00E948D109C018091290390912A039E
:101B90002817390739F0E955FD4F40833093280362
:101BA00020932703FF91EF91BF91AF919F918F9168
:101BB0007F916F915F914F913F912F910F900FBE49
:101BC0000F901F9018955F926F927F928F929F92C5
:101BD000AF92BF92CF92DF92EF92FF920F931F933B
:101BE000CF93DF93EC013A014B01413482E4580773
:101BF0008FE0680780E078070CF07FC060E874E849
:101C00008EE190E0A40193010E94C2102150304067
:101C100040405040CA01B90122E030E040E050E0CD
:101C20000E94C21059016A01A601950120953095C4
:101C30004095509594E0220F331F441F551F9A95ED
:101C4000D1F760E074E284EF90E00E94C210CA0114
:101C5000B9012FEF30E040E050E00E946E10A40187
:101C600093010E94C210C90181509F4F1816190696
:101C70001CF4522E5A9403C055245394521A60E017
:101C800079E08DE390E0A40193010E94C2102150FD
:101C9000304040405040CA01B90122E030E040E00D
:101CA00050E00E94C210209530954095509583E0F9
:101CB000220F331F441F551F8A95D1F760E074E24D
:101CC00084EF90E00E94C210CA01B9012FEF30E00A
:101CD00040E050E00E946E10A40193010E94C210E7
:101CE000C90181509F4F181619061CF4822F81508C
:101CF00002C081E0821B851500F5E885F98581E049
:101D000090E00A8802C0880F991F0A94E2F7808346
:101D100060E079E08DE390E0A40193010E94C2109D
:101D20002150304040405040CA01B90122E030E02B
:101D300040E050E00E94C21004C0E885F98510829E
:101D40009501EC81FD813083EE81FF812083EA855E
:101D5000FB85208141E050E0CA010E8402C0880F5B
:101D6000991F0A94E2F7282B2083EA85FB852081BE
:101D7000CA010F8402C0880F991F0A94E2F7282B2A
:101D80002083EA85FB858081088802C0440F551FA7
:101D90000A94E2F7842B8083DF91CF911F910F91FA
:101DA000FF90EF90DF90CF90BF90AF909F908F907B
:101DB0007F906F905F900895FC01A085B185218987
:101DC0008C9190E0022E02C0959587950A94E2F7D7
:101DD00080FFF6CF0484F585E02D608308958FE0C1
:101DE00092E090932C0380932B0387EA92E09093E8
:101DF0002E0380932D0385EC90E090933003809325
:101E00002F0384EC90E0909332038093310380ECB5
:101E100090E0909334038093330381EC90E09093AF
:101E200036038093350386EC90E0909338038093DB
:101E3000370384E08093390383E080933A0387E09B
:101E400080933B0385E080933C0381E080933D03D6
:101E500008950F931F93CF93DF938C01EB0109C07B
:101E60002196D801ED91FC910190F081E02DC801FF
:101E7000099568816623A1F7DF91CF911F910F919A
:101E80000895EF92FF920F931F93CF93DF938C01EE
:101E90007B01EA010CC0D7016D917D01D801ED9164
:101EA000FC910190F081E02DC801099521972097C0
:101EB00091F7DF91CF911F910F91FF90EF900895CF
:101EC000DC01ED91FC910190F081E02D09950895E0
:101ED000DC01ED91FC910280F381E02D09950895DC
:101EE0000F931F938C01DC01ED91FC910190F08127
:101EF000E02D6DE00995D801ED91FC910190F08104
:101F0000E02DC8016AE009951F910F9108950F9384
:101F10001F938C010E94680FC8010E94700F1F91CF
:101F20000F9108952F923F924F925F926F927F92FE
:101F30008F929F92AF92BF92CF92DF92EF92FF92D9
:101F40000F931F93DF93CF93CDB7DEB7A0970FB654
:101F5000F894DEBF0FBECDBF1C016A017B014115A5
:101F600051056105710549F4DC01ED91FC91019089
:101F7000F081E02D60E3099554C088249924540130
:101F8000422E55246624772401E010E00C0F1D1F1B
:101F9000080D191DC701B601A30192010E94A010EE
:101FA000F80160830894811C911CA11CB11CC7011D
:101FB000B601A30192010E94A010C901DA016C01CF
:101FC0007D01C114D104E104F104F1F681E0E82EB1
:101FD000F12CEC0EFD1EE80CF91C3E010894611C6E
:101FE000711CD501C4010197A109B1096C01C81880
:101FF000D90814C0F601EE0DFF1D60816A3010F49F
:10200000605D01C0695CD101ED91FC910190F081AE
:10201000E02DC10109950894E108F1086E147F04D0
:1020200049F7A0960FB6F894DEBF0FBECDBFCF9193
:10203000DF911F910F91FF90EF90DF90CF90BF90B5
:10204000AF909F908F907F906F905F904F903F9058
:102050002F900895EF92FF920F931F93CF93DF93EA
:10206000EC017A018B0177FF0FC0E881F9810190C3
:10207000F081E02D6DE2099510950095F094E094C3
:10208000E11CF11C011D111DCE01B801A7012AE0C0
:102090000E94920FDF91CF911F910F91FF90EF90CF
:1020A0000895AB01662757FD6095762F0E942A1090
:1020B0000895DC012115310541F4ED91FC91019069
:1020C000F081E02D642F099508952A30310519F427
:1020D0000E942A1008950E94920F0895629FD001D5
:1020E000739FF001829FE00DF11D649FE00DF11DD3
:1020F000929FF00D839FF00D749FF00D659FF00D82
:102100009927729FB00DE11DF91F639FB00DE11D6E
:10211000F91FBD01CF011124089597FB092E072651
:102120000AD077FD04D049D006D000201AF470956B
:1021300061957F4F0895F6F7909581959F4F08958B
:10214000A1E21A2EAA1BBB1BFD010DC0AA1FBB1FBB
:10215000EE1FFF1FA217B307E407F50720F0A21B2D
:10216000B30BE40BF50B661F771F881F991F1A949A
:1021700069F760957095809590959B01AC01BD01C4
:10218000CF01089597FB092E05260ED057FD04D0E8
:10219000D7DF0AD0001C38F4509540953095219532
:1021A0003F4F4F4F5F4F0895F6F79095809570958C
:1021B00061957F4F8F4F9F4F0895AA1BBB1B51E125
:1021C00007C0AA1FBB1FA617B70710F0A61BB70BA7
:1021D000881F991F5A95A9F780959095BC01CD014C
:1021E0000895EE0FFF1F0590F491E02D0994F894E7
:0221F000FFCF1F
:1021F20000302E34006572726F72206E756D6265EA
:10220200723A20000A000073656E64696E6720747A
:102212006F207573623A2000443A5C3E006F70652D
:102222006E2F6372656174652066696C65004F503C
:1022320057206C6F672E74787400575246200063E3
:102242006C6F73696E672066696C6500434C46204B
:102252006C6F672E7478740066696E697368656462
:102262002077726974650057616974696E672066C8
:102272006F72205553420077616974696E672066F8
:102282006F722055534200555342204469736B20AC
:10229200726561647900555342206469736B2072E0
:1022A20065616479006572726F72006C6F6767694D
:1022B2006E672E2E2E00203A20004172636F6C61F1
:1022C20020456E657267790049504100444C4620B2
:1022D2006C6F672E747874002000420300000100C6
:1022E200000000C706290F410F000000006E0829F8
:1022F2000F410F000040001400540000000000DCF9
:062302000E290F410F003F
:00000001FF
