:100000000C9461000C947E000C947E000C947E0095
:100010000C947E000C947E000C947E000C947E0068
:100020000C947E000C947E000C947E000C947E0058
:100030000C947E000C9480000C947E000C947E0046
:100040000C94C0010C947E000C947E000C947E00F5
:100050000C947E000C947E000C947E000C947E0028
:100060000C947E000C947E00000000002400270009
:100070002A0000000000250028002B0000000000DE
:1000800023002600290004040404040404040202DA
:100090000202020203030303030301020408102007
:1000A0004080010204081020010204081020000012
:1000B0000007000201000003040600000000000029
:1000C000000011241FBECFEFD4E0DEBFCDBF11E092
:1000D000A0E0B1E0E0E0F6E002C005900D92AA30A9
:1000E000B107D9F711E0AAE0B1E001C01D92AE312D
:1000F000B107E1F70E94B9010C94FE020C940000D4
:100100001F920F920FB60F9211242F933F934F938C
:100110005F936F937F938F939F93AF93BF93EF936F
:10012000FF93E0910D01F0910E010995FF91EF9180
:10013000BF91AF919F918F917F916F915F914F91FF
:100140003F912F910F900FBE0F901F901895FC01BB
:10015000A3E0440F551F661F771FAA95D1F74030C3
:1001600080E0580781E0680780E0780714F481E0B8
:1001700010C033E075956795579547953A95D1F737
:10018000403080E0580781E0680780E078071CF481
:1001900082E0828339C023E075956795579547952E
:1001A0002A95D1F7403080E0580781E0680780E069
:1001B000780714F483E0EDCF92E075956795579535
:1001C00047959A95D1F7403080E0580781E068075D
:1001D00080E0780714F484E0DCCF82E075956795C1
:1001E000579547958A95D1F7403080E0580781E0D0
:1001F000680780E0780714F485E0CBCF85E0828340
:100200004FEF5FEF60E070E05183408350938700D1
:100210004093860080918100887F80938100809147
:1002200081009281892B8093810008951092800033
:1002300020E1209381000E94A70008950F931F934F
:10024000CF93DF93EC018B011216130614061506EB
:1002500024F4BA01A9010E94A7001C830B8381E04A
:1002600080936F007894809181009A81892B80938C
:100270008100DF91CF911F910F910895809111011D
:1002800090911201A0911301B09114010196A11D4A
:10029000B11D8093110190931201A0931301B093AB
:1002A0001401209104013091050140910601509103
:1002B000070182179307A407B50758F010921101A0
:1002C00010921201109213011092140181E0809398
:1002D0000801089580910F010E94AF02892B61F4FB
:1002E0008091000160E00E9462028091020160E062
:1002F0000E9462021092080180910801813051F43D
:100300008091000161E00E9462028091020161E03F
:100310000E94620208950F931F9386E68093660001
:1003200080910F0160E00E94420280910F0161E024
:100330000E9462028091000161E00E94420280916D
:10034000020161E00E9442020AE011E0C80140E2BD
:1003500051EA67E070E00E941601C8016EE371E0A7
:100360002FEF3FEF4FEF5FEF0E941E011F910F91A4
:1003700008950E9408020E948B010E946A01FDCF2D
:100380001F920F920FB60F9211242F933F938F93CA
:100390009F93AF93BF938091190190911A01A091FF
:1003A0001B01B0911C0130911D010196A11DB11DD1
:1003B000232F2D5F2D3720F02D570196A11DB11D44
:1003C00020931D018093190190931A01A0931B01A2
:1003D000B0931C018091150190911601A091170115
:1003E000B09118010196A11DB11D80931501909344
:1003F0001601A0931701B0931801BF91AF919F917F
:100400008F913F912F910F900FBE0F901F901895D5
:10041000789484B5826084BD84B5816084BD85B5DF
:10042000826085BD85B5816085BDEEE6F0E08081A6
:1004300081608083E1E8F0E0808182608083808158
:1004400081608083E0E8F0E0808181608083E1EB7F
:10045000F0E0808184608083E0EBF0E08081816067
:100460008083EAE7F0E0808184608083808182601D
:100470008083808181608083808180688083109206
:10048000C1000895282F30E0C90186569F4FFC0116
:1004900094912A573F4FF9018491882391F0E82FD6
:1004A000F0E0EE0FFF1FE859FF4FA591B4916623CE
:1004B00029F48C91909589238C9308958C91892BA4
:1004C0008C930895482F50E0CA0182559F4FFC013C
:1004D0002491CA0186569F4FFC0194914A575F4F61
:1004E000FA0134913323D1F1222331F1233021F465
:1004F000809180008F7705C0243031F48091800096
:100500008F7D8093800018C0213019F484B58F77D7
:1005100004C0223021F484B58F7D84BD0DC0263007
:1005200021F48091B0008F7705C0273029F48091A5
:10053000B0008F7D8093B000E32FF0E0EE0FFF1F3F
:10054000EE58FF4FA591B491662329F48C919095B4
:1005500089238C9308958C91892B8C930895682F0F
:1005600070E0CB0182559F4FFC012491CB01865650
:100570009F4FFC0144916A577F4FFB01949199234F
:1005800019F420E030E038C0222331F1233021F487
:10059000809180008F7705C0243031F480918000F5
:1005A0008F7D8093800018C0213019F484B58F7737
:1005B00004C0223021F484B58F7D84BD0DC0263067
:1005C00021F48091B0008F7705C0273029F4809105
:1005D000B0008F7D8093B000892F90E0880F991F25
:1005E00084589F4FFC01A591B4918C9120E030E09C
:1005F000842311F021E030E0C9010895F894FFCF81
:0A060000010002008051000001001B
:00000001FF
