:100000000C9462000C948A000C948A000C948A0070
:100010000C948A000C948A000C948A000C948A0038
:100020000C948A000C948A000C948A000C949C0115
:100030000C948A000C948A000C948A000C948A0018
:100040000C94BE020C948A000C94FC030C948A005D
:100050000C948A000C948A000C948A000C948A00F8
:100060000C948A000C948A000000000024002700F1
:100070002A0000000000250028002B0000000000DE
:1000800023002600290004040404040404040202DA
:100090000202020203030303030301020408102007
:1000A0004080010204081020010204081020000012
:1000B0000007000201000003040600000000000029
:1000C0000000450511241FBECFEFD4E0DEBFCDBF39
:1000D00011E0A0E0B1E0EEE7FEE002C005900D9275
:1000E000A037B107D9F712E0A0E7B1E001C01D9237
:1000F000A434B107E1F710E0C4ECD0E004C02297CB
:10010000FE010E943907C23CD107C9F70E94B7021D
:100110000C943D070C940000FB01DC0102C001902F
:100120000D9241505040D8F7089580930F010895E3
:1001300020919001222329F080919B018F5F809371
:100140009B0180919C0190919D01281759F0903559
:1001500010F08DE101C08BE0890F80939D01209309
:100160009C0103C09C5E90939D0190919D01903AEB
:1001700008F488C020919E0130919F013695279503
:1001800030939F0120939E0180919B01853028F040
:10019000386030939F0120939E01905A90939D0167
:1001A00010929B0180919901882309F45BC0809192
:1001B000A0018F5F8093A0018C3008F463C0209170
:1001C0009E0130919F01922F9F73A6E5B1E0FD0142
:1001D00040E08081981729F04F5F31964031C9F790
:1001E00040E086E0369527958A95E1F790E08C917E
:1001F000281729F09F5F11969031C9F790E0242FBE
:100200002295207F292B80917101882371F42093FE
:10021000A101822F84508B3140F01092990180917E
:10022000A2018F5F8093A201089580917101E82F50
:10023000F0E0EE58FE4F20838F5F80937101909124
:1002400071018091A101981750F01092990180914D
:10025000A3018F5F8093A30181E0809370011092CE
:10026000A001089580919E0190919F0188539B4029
:1002700049F481E0809399011092A00110927101DC
:1002800010927001089580919801882329F481E0EB
:10029000809398011092990108950F931F93382F1E
:1002A000FB0180917001882309F432C02091710113
:1002B00023508081281708F42083408103E711E050
:1002C000832FB80150E00E948C0010927001909131
:1002D00071012FEF3FEFF801319713C0819128276B
:1002E000022E2295207F2025032E322F22952F705B
:1002F0000226269532272327220F220F220F2025A0
:100300009150992359F780E0285B304F09F481E040
:100310001F910F9108958091550160919A010E945B
:1003200060038091100160E00E94600310929101CF
:1003300081E08093980108951F920F920FB60F925B
:1003400011242F933F934F935F936F937F938F93DA
:100350009F93AF93BF93EF93FF9380910F010E9400
:10036000AD0380939001809191018823D1F1809118
:1003700092018F5F80939201815099F5E0919301F2
:1003800080919401E81760F00E948B0180919501A3
:10039000909196010196909396018093950121C0CA
:1003A000809110019091970121E030E0092E02C068
:1003B000220F331F0A94E2F7F0E0EF5EFE4F6081F8
:1003C00062239F5F909397010E9460038091970141
:1003D000863038F010929701809193018F5F80935F
:1003E000930180919201883010F0109292018091D7
:1003F0009801882311F00E949800FF91EF91BF911E
:10040000AF919F918F917F916F915F914F913F91AC
:100410002F910F900FBE0F901F9018959C0140E0F8
:1004200050E060E874E88EE190E00E94E6061092E9
:10043000800089E0809381003093890020938800B8
:10044000EFE6F0E08081826080838091100161E0BE
:100450000E94400380910F0160E00E944003809160
:10046000550161E00E9440038091550160919A011D
:100470000E9460030895EF92FF920F931F93DF9302
:10048000CF9300D00F92CDB7DEB782E0898382E0B0
:10049000E82EF12CEC0EFD1EC701BE016F5F7F4FF1
:1004A0000E944D01882389F18DE061E00E94600384
:1004B00081E392E060E071E00E94B60500E010E0A8
:1004C00015C0F701E00FF11F408150E060E070E0DF
:1004D00081E392E020E130E00E949F0681E392E018
:1004E00066E071E00E94B6050F5F1F4F898190E0C2
:1004F0000817190734F381E392E068E071E00E9485
:10050000D5058DE060E00E9460030F900F900F9082
:10051000CF91DF911F910F91FF90EF9008950F936E
:100520001F9301E312E0C80140E052EC61E070E08B
:100530000E943904C80169E071E00E94D50582E09B
:1005400060E00E94400382E00E94950080E49FE109
:100550000E940E020E9443018DE061E00E94400370
:100560008DE061E00E9460031F910F9108950E9449
:1005700006030E948F020E943B02FDCF1F920F9242
:100580000FB60F9211242F933F938F939F93AF93A6
:10059000BF938091A8019091A901A091AA01B09167
:1005A000AB013091AC010196A11DB11D232F2D5F30
:1005B0002D3720F02D570196A11DB11D2093AC01C0
:1005C0008093A8019093A901A093AA01B093AB01D5
:1005D0008091A4019091A501A091A601B091A701DD
:1005E0000196A11DB11D8093A4019093A501A09334
:1005F000A601B093A701BF91AF919F918F913F91B9
:100600002F910F900FBE0F901F901895789484B57E
:10061000826084BD84B5816084BD85B5826085BDFE
:1006200085B5816085BDEEE6F0E0808181608083E4
:10063000E1E8F0E080818260808380818160808356
:10064000E0E8F0E0808181608083E1EBF0E0808190
:1006500084608083E0EBF0E0808181608083EAE762
:10066000F0E08081846080838081826080838081EB
:10067000816080838081806880831092C1000895AA
:10068000282F30E0C90186569F4FFC0194912A57CC
:100690003F4FF9018491882391F0E82FF0E0EE0FAD
:1006A000FF1FE859FF4FA591B491662329F48C915F
:1006B000909589238C9308958C91892B8C93089520
:1006C000482F50E0CA0182559F4FFC012491CA0176
:1006D00086569F4FFC0194914A575F4FFA0134911F
:1006E0003323D1F1222331F1233021F48091800092
:1006F0008F7705C0243031F4809180008F7D809306
:10070000800018C0213019F484B58F7704C02230DE
:1007100021F484B58F7D84BD0DC0263021F48091F5
:10072000B0008F7705C0273029F48091B0008F7D0D
:100730008093B000E32FF0E0EE0FFF1FEE58FF4F65
:10074000A591B491662329F48C91909589238C937B
:1007500008958C91892B8C930895682F70E0CB01BC
:1007600082559F4FFC012491CB0186569F4FFC017F
:1007700044916A577F4FFB019491992319F420E02B
:1007800030E038C0222331F1233021F48091800001
:100790008F7705C0243031F4809180008F7D809365
:1007A000800018C0213019F484B58F7704C022303E
:1007B00021F484B58F7D84BD0DC0263021F4809155
:1007C000B0008F7705C0273029F48091B0008F7D6D
:1007D0008093B000892F90E0880F991F84589F4F15
:1007E000FC01A591B4918C9120E030E0842311F0BC
:1007F00021E030E0C90108951F920F920FB60F92C9
:1008000011242F933F934F935F936F937F938F9315
:100810009F93AF93BF93EF93FF934091C600E091F6
:100820002D02F0912E02CF01019660E870E00E9447
:10083000D3069C0180912F0290913002281739072E
:1008400039F0E355FE4F408330932E0220932D0262
:10085000FF91EF91BF91AF919F918F917F916F9198
:100860005F914F913F912F910F900FBE0F901F906E
:1008700018955F926F927F928F929F92AF92BF92E4
:10088000CF92DF92EF92FF920F931F93CF93DF935C
:10089000EC013A014B01413482E458078FE06807CC
:1008A00080E078070CF07FC060E874E88EE190E0AB
:1008B000A40193010E94080721503040404050405D
:1008C000CA01B90122E030E040E050E00E94080790
:1008D00059016A01A60195012095309540955095E2
:1008E00094E0220F331F441F551F9A95D1F760E003
:1008F00074E284EF90E00E940807CA01B9012FEF6B
:1009000030E040E050E00E94B406A40193010E9450
:100910000807C90181509F4F181619061CF4522E62
:100920005A9403C055245394521A60E079E08DE341
:1009300090E0A40193010E940807215030404040FC
:100940005040CA01B90122E030E040E050E00E948E
:100950000807209530954095509583E0220F331F6E
:10096000441F551F8A95D1F760E074E284EF90E050
:100970000E940807CA01B9012FEF30E040E050E0C3
:100980000E94B406A40193010E940807C901815086
:100990009F4F181619061CF4822F815002C081E067
:1009A000821B851500F5E885F98581E090E00A88CD
:1009B00002C0880F991F0A94E2F7808360E079E013
:1009C0008DE390E0A40193010E940807215030407C
:1009D00040405040CA01B90122E030E040E050E020
:1009E0000E94080704C0E885F98510829501EC8112
:1009F000FD813083EE81FF812083EA85FB852081A4
:100A000041E050E0CA010E8402C0880F991F0A9489
:100A1000E2F7282B2083EA85FB852081CA010F8419
:100A200002C0880F991F0A94E2F7282B2083EA85D9
:100A3000FB858081088802C0440F551F0A94E2F7A5
:100A4000842B8083DF91CF911F910F91FF90EF90C6
:100A5000DF90CF90BF90AF909F908F907F906F90DE
:100A60005F900895FC01A085B18521898C9190E06B
:100A7000022E02C0959587950A94E2F780FFF6CF83
:100A80000484F585E02D608308958AE691E09093D3
:100A90003202809331028DEA91E090933402809388
:100AA000330285EC90E0909336028093350284EC1B
:100AB00090E0909338028093370280EC90E090931E
:100AC0003A028093390281EC90E090933C0280934B
:100AD0003B0286EC90E090933E0280933D0284E0DE
:100AE00080933F0283E08093400287E0809341023D
:100AF00085E08093420281E08093430208950F9342
:100B00001F93CF93DF938C01EB0109C02196D8018D
:100B1000ED91FC910190F081E02DC801099568816B
:100B20006623A1F7DF91CF911F910F910895EF9266
:100B3000FF920F931F93CF93DF938C017B01EA0108
:100B40000CC0D7016D917D01D801ED91FC91019010
:100B5000F081E02DC80109952197209791F7DF9149
:100B6000CF911F910F91FF90EF900895DC01ED91CF
:100B7000FC910280F381E02D099508950F931F9356
:100B80008C01DC01ED91FC910190F081E02D6DE094
:100B90000995D801ED91FC910190F081E02DC801FB
:100BA0006AE009951F910F9108950F931F938C018F
:100BB0000E94B605C8010E94BE051F910F910895BD
:100BC0002F923F924F925F926F927F928F929F925D
:100BD000AF92BF92CF92DF92EF92FF920F931F934B
:100BE000DF93CF93CDB7DEB7A0970FB6F894DEBFF3
:100BF0000FBECDBF1C016A017B0141155105610586
:100C0000710549F4DC01ED91FC910190F081E02D3A
:100C100060E3099554C0882499245401422E552438
:100C20006624772401E010E00C0F1D1F080D191D2C
:100C3000C701B601A30192010E94E606F801608394
:100C40000894811C911CA11CB11CC701B601A30111
:100C500092010E94E606C901DA016C017D01C1140E
:100C6000D104E104F104F1F681E0E82EF12CEC0E60
:100C7000FD1EE80CF91C3E010894611C711CD50195
:100C8000C4010197A109B1096C01C818D90814C0A1
:100C9000F601EE0DFF1D60816A3010F4605D01C049
:100CA000695CD101ED91FC910190F081E02DC101D1
:100CB00009950894E108F1086E147F0449F7A0969D
:100CC0000FB6F894DEBF0FBECDBFCF91DF911F915D
:100CD0000F91FF90EF90DF90CF90BF90AF909F90DB
:100CE0008F907F906F905F904F903F902F900895DE
:100CF000EF92FF920F931F93CF93DF93EC017A0152
:100D00008B0177FF0FC0E881F9810190F081E02D20
:100D10006DE2099510950095F094E094E11CF11CAA
:100D2000011D111DCE01B801A7012AE00E94E005B6
:100D3000DF91CF911F910F91FF90EF900895DC010B
:100D40002115310541F4ED91FC910190F081E02DE8
:100D5000642F099508952A30310519F40E94780608
:100D600008950E94E0050895629FD001739FF001ED
:100D7000829FE00DF11D649FE00DF11D929FF00D2B
:100D8000839FF00D749FF00D659FF00D9927729F62
:100D9000B00DE11DF91F639FB00DE11DF91FBD01ED
:100DA000CF011124089597FB092E07260AD077FD5D
:100DB00004D049D006D000201AF4709561957F4F79
:100DC0000895F6F7909581959F4F0895A1E21A2E08
:100DD000AA1BBB1BFD010DC0AA1FBB1FEE1FFF1FDF
:100DE000A217B307E407F50720F0A21BB30BE40B2F
:100DF000F50B661F771F881F991F1A9469F7609576
:100E00007095809590959B01AC01BD01CF0108952F
:100E100097FB092E05260ED057FD04D0D7DF0AD048
:100E2000001C38F450954095309521953F4F4F4F19
:100E30005F4F0895F6F790958095709561957F4F77
:100E40008F4F9F4F0895AA1BBB1B51E107C0AA1FDC
:100E5000BB1FA617B70710F0A61BB70B881F991F5B
:100E60005A95A9F780959095BC01CD010895EE0F94
:0E0E7000FF1F0590F491E02D0994F894FFCF38
:100E7E00476F743A20002000007365747570000B84
:100E8E000C2A2A2A2A2A2A382C00000000000000E8
:100E9E000000000000000000000000000000000044
:100EAE000000000000000000000000000000000034
:100EBE000000000000000000000000000000000024
:100ECE0000000000000A0D0E131516191A1C23251A
:100EDE0026292A2C32340000000032057F059705A2
:00000001FF
