:100000000C9436000C94BE030C94DB030C945E003D
:100010000C945E000C945E000C945E000C945E00E8
:100020000C945E000C945E000C945E000C945E00D8
:100030000C945E000C945E000C945E000C945E00C8
:100040000C94F8030C945E000C9413050C945E0061
:100050000C945E000C945E000C945E000C945E00A8
:100060000C945E000C945E00CE026E0311241FBE41
:10007000CFEFD4E0DEBFCDBF11E0A0E0B1E0E8E714
:10008000FBE002C005900D92A036B107D9F712E04F
:10009000A0E6B1E001C01D92A030B107E1F710E089
:1000A000CCE6D0E004C02297FE010E94B605C83617
:1000B000D107C9F70E9467030C94BA050C9400009D
:1000C000CF93DF93BC018230910510F462E070E0C1
:1000D000A091FE01B091FF01ED01E0E0F0E040E011
:1000E00050E021C0888199818617970769F48A8139
:1000F0009B81309719F09383828304C09093FF0112
:100100008093FE01FE0134C06817790738F4411569
:10011000510519F08417950708F4AC01FE018A8196
:100120009B819C01E9012097E9F641155105A9F150
:10013000CA01861B970B049708F4BA01E0E0F0E0CF
:100140002AC08D919C91119784179507F9F4641733
:10015000750781F412968D919C911397309719F041
:100160009383828304C09093FF018093FE01FD017D
:1001700032964CC0CA01861B970BFD01E80FF91F90
:100180006193719302978D939C9340C0FD0182818E
:1001900093819C01D9011097A1F68091FC01909167
:1001A000FD01892B41F48091550190915601909366
:1001B000FD018093FC014091570150915801411578
:1001C000510541F44DB75EB78091530190915401B0
:1001D000481B590B2091FC013091FD01CA01821B83
:1001E000930B8617970780F0AB014E5F5F4F841724
:1001F000950750F0420F531F5093FD014093FC01AF
:10020000F9016193719302C0E0E0F0E0CF01DF916A
:10021000CF910895CF93DF93009709F450C0EC017C
:1002200022971B821A82A091FE01B091FF011097C4
:1002300009F140E050E0AC17BD0708F1BB83AA8389
:10024000FE0121913191E20FF31FAE17BF0779F440
:100250008D919C911197280F391F2E5F3F4F398345
:10026000288312968D919C9113979B838A834115C5
:10027000510571F4D093FF01C093FE0120C0129686
:100280008D919C911397AD01009711F0DC01D3CFB4
:10029000FA01D383C28321913191E20FF31FCE176C
:1002A000DF0769F488819981280F391F2E5F3F4F3E
:1002B000FA01318320838A819B8193838283DF913A
:1002C000CF910895FB01DC014150504048F001906E
:1002D0000D920020C9F701C01D9241505040E0F737
:1002E0000895FB0151915523A9F0BF01DC014D9107
:1002F00045174111E1F759F4CD010190002049F073
:100300004D9140154111C9F3FB014111EFCF81E03F
:1003100090E0019708950F931F93CF93DF93EC0123
:100320008B01CB0101960E946000888399831D8315
:100330000C831B821A8220E030E007C0E881F9813B
:10034000E20FF31F10822F5F3F4F8C819D81281792
:100350003907A0F3DF91CF911F910F910895FC0110
:10036000808191810E9471019C0180E0232B09F022
:1003700081E008950F931F938C01DC0112964D913B
:100380005C9113974F5F5F4F8D919C910E9462012A
:10039000D801ED91FC91119712968D919C91139734
:1003A000E80FF91F10821F910F9108950F931F936B
:1003B000CF93DF93EC018B016115710511F400E01F
:1003C00011E0F80101900020E9F73197E01BF10BF3
:1003D000FB83EA83FD83EC83CF0101960E946000DA
:1003E0008883998320E030E007C0E881F981E20F3B
:1003F000F31F10822F5F3F4F8C819D812817390793
:10040000A0F3B801CE010E94BA01DF91CF911F91F4
:100410000F9108950F931F938C0161E071E00E948A
:10042000D601C8011F910F910895FF920F931F935A
:10043000CF93DF93EC01F62E2A813B818C819D8145
:1004400028173907A1F408811981C9010196880F7D
:10045000991F9D838C8301960E94600088839983F5
:10046000B801CE010E94BA01C8010E940A018A8126
:100470009B81E881F981E80FF91FF08201969B8347
:100480008A83E881F981E80FF91F1082CE01DF919C
:10049000CF911F910F91FF9008950E94150208952A
:1004A0000F931F93CF93DF93EC018B0161157105BF
:1004B00011F400E011E0D8010D900020E9F7119748
:1004C000A01BB10BBB83AA838C819D818A179B07DC
:1004D00068F4BD83AC83888199810E940A018A8176
:1004E0009B8101960E9460008883998320E030E020
:1004F00007C0E881F981E20FF31F10822F5F3F4FA1
:100500008C819D8128173907A0F3B801CE010E9484
:10051000BA01CE01DF91CF911F910F9108950F93F2
:100520001F93CF93DF93EC018B018617970781F11F
:10053000FB01228133818C819D818217930770F4A6
:10054000888199810E940A01F801828193819D83AB
:100550008C8301960E94600088839983F8018281D0
:1005600093819B838A8320E030E007C0E881F98192
:10057000E20FF31F10822F5F3F4F8C819D81281760
:100580003907A0F3F80160817181CE010E94BA01A0
:10059000CE01DF91CF911F910F9108956EE170E030
:1005A00080E691E00E948B0108950F931F93DF93E3
:1005B000CF9300D000D000D0CDB7DEB786E691E073
:1005C0000E947903682F80916201909163014E9798
:1005D0002CF480E691E00E944D020EC0772767FD63
:1005E00070958E010F5F1F4FC8010E948B01B801EB
:1005F00080E691E00E948F0226960FB6F894DEBF47
:100600000FBECDBFCF91DF911F910F91089586E668
:1006100091E00E947C03882351F00E94D5026091F2
:1006200060017091610186E691E00E94B30365E08C
:1006300071E080E691E00E94AF018823D1F06BE089
:1006400071E086E691E00E94B303609160017091D1
:10065000610186E691E00E94B3036AE271E080E600
:1006600091E00E9450026BE271E086E691E00E9408
:10067000B30308950F931F93DF93CF9300D000D05F
:1006800000D0CDB7DEB706E611E040E855E260E005
:1006900070E0C8010E947F036AE371E0C8010E9414
:1006A000840360E671E0CE0101960E940A0269812E
:1006B0007A81C8010E94B30326960FB6F894DEBF74
:1006C0000FBECDBFCF91DF911F910F9108950E9472
:1006D00068040E943A030E940703FDCF8DE591E074
:1006E00090936701809366010895862F0E94DB0432
:1006F00008950E94F40408950E94E3040895CB0134
:10070000BA010E94A20408950F931F93CF93DF9321
:100710008C01EB0109C02196D801ED91FC9101906B
:10072000F081E02DC801099568816623A1F7DF916A
:10073000CF911F910F9108950F931F938C01DC01AE
:10074000ED91FC910190F081E02D6DE00995D801CB
:10075000ED91FC910190F081E02D6AE0C8010995CE
:100760001F910F9108950F931F938C010E94840392
:10077000C8010E949C031F910F9108951F920F9230
:100780000FB60F9211248F939F93EF93FF93809155
:10079000680190916901892B29F0E0916801F0913D
:1007A00069010995FF91EF919F918F910F900FBE75
:1007B0000F901F9018951F920F920FB60F92112451
:1007C0008F939F93EF93FF9380916A0190916B01B8
:1007D000892B29F0E0916A01F0916B010995FF9155
:1007E000EF919F918F910F900FBE0F901F901895D2
:1007F0001F920F920FB60F9211242F938F939F93F6
:10080000AF93BF9380916C0190916D01A0916E01A7
:10081000B0916F010196A11DB11D80936C01909361
:100820006D01A0936E01B0936F0180917001909162
:100830007101A0917201B09173018050904CAF4F43
:10084000BF4F8093700190937101A0937201B09398
:10085000730127C08091700190917101A091720184
:10086000B091730180589E43A040B04080937001C6
:1008700090937101A0937201B09373018091740100
:1008800090917501A0917601B09177010196A11D1B
:10089000B11D8093740190937501A0937601B0937C
:1008A00077018091700190917101A0917201B091D6
:1008B000730181589E43A040B04060F6BF91AF9154
:1008C0009F918F912F910F900FBE0F901F901895B1
:1008D000789484B5826084BD84B5816084BD85B51B
:1008E000826085BD85B5816085BDEEE6F0E08081E2
:1008F00081608083E1E8F0E0808182608083808194
:1009000081608083E0E8F0E0808181608083E1EBBA
:10091000F0E0808184608083E0EBF0E080818160A2
:100920008083EAE7F0E08081846080838081826058
:100930008083808181608083808180688083109241
:10094000C1000895EF92FF920F931F937B018C01DA
:1009500022E030E040E050E00E948505205C3D4B05
:10096000404F5F4FCA01B901A80197010E94850558
:10097000C901DA010197A109B109292F3A2F4B2F9B
:10098000552747FD5A950196A11DB11D2093C5001D
:1009900081508093C400E1ECF0E08081806180832D
:1009A0008081886080838081806880831F910F911F
:1009B000FF90EF900895982F8091C00085FFFCCFA5
:1009C0009093C600089580917801909179018058A4
:1009D0009F4F20917A0130917B01821B930B60E83D
:1009E00070E00E945005089540917A0150917B017A
:1009F00080917801909179018417950719F42FEF70
:100A00003FEF0FC0FA01E458FE4F2081CA01019662
:100A100060E870E00E94500590937B0180937A011A
:100A200030E0C90108951F920F920FB60F92112462
:100A30002F933F934F935F936F937F938F939F93E6
:100A4000AF93BF93EF93FF934091C600E09178017D
:100A5000F0917901CF01019660E870E00E945005A5
:100A60009C0180917A0190917B012817390739F018
:100A7000E458FE4F40833093790120937801FF9131
:100A8000EF91BF91AF919F918F917F916F915F9106
:100A90004F913F912F910F900FBE0F901F9018957F
:100AA00097FB092E07260AD077FD04D049D006D03F
:100AB00000201AF4709561957F4F0895F6F7909590
:100AC00081959F4F0895A1E21A2EAA1BBB1BFD0121
:100AD0000DC0AA1FBB1FEE1FFF1FA217B307E4071D
:100AE000F50720F0A21BB30BE40BF50B661F771F75
:100AF000881F991F1A9469F7609570958095909555
:100B00009B01AC01BD01CF01089597FB092E05267D
:100B10000ED057FD04D0D7DF0AD0001C38F4509512
:100B20004095309521953F4F4F4F5F4F0895F6F711
:100B300090958095709561957F4F8F4F9F4F089549
:100B4000AA1BBB1B51E107C0AA1FBB1FA617B707F3
:100B500010F0A61BB70B881F991F5A95A9F780950F
:100B60009095BC01CD010895EE0FFF1F0590F49103
:080B7000E02D0994F894FFCF79
:100B780000302E34006F74746572004C6F6F6B21F7
:100B88002020416E206F7474657220696E2074682D
:100B98006520537472696E672100006E6F77206953
:100BA80074277320676F6E652E00537472696E67C1
:100BB800204C6962726172792076657273696F6E12
:100BC8003A20002000000200000000000075030029
:00000001FF
